:0400000008EF04F011
:100600000068656C6C6F0000000E836E000E956EC6
:10061000000E046E0F0E036E11EC05F0300E42EC6E
:1006200004F0000E046E050E036E11EC05F0300EA2
:1006300042EC04F0000E046E050E036E11EC05F0A2
:10064000320E42EC04F077EC04F00009D8A4FBD79A
:10065000280E42EC04F077EC04F00009D8A4FBD794
:10066000080E42EC04F077EC04F00009D8A4FBD7A4
:100670000C0E42EC04F077EC04F00009D8A4FBD790
:10068000010E42EC04F0060E42EC04F077EC04F0AC
:100690000009D8A4FBD7010E42EC04F01200056E4D
:1006A00093908192000E066E070E066401D0120030
:1006B000046A05AE01D0042A010E04168150041804
:1006C000FE0B0418816ED8900536000E036E020EE4
:1006D000026E06EC05F08182000E036E020E026EC1
:1006E00006EC05F08192000E036E020E026E06EC1F
:1006F00005F0062AD9D7000E0A6E13D00A50010D54
:1007000006C008F007C009F0F3500826F45009228B
:1007100008C0F6FF09C0F7FF0800F550A6EC04F08A
:100720000A2A0A50010D06C008F007C009F0F3506C
:100730000826F450092208C0F6FF09C0F7FF080098
:10074000F5500009D8B41200D9D754EC05F027ECC5
:1007500005F0BBEC04F0000E196E000E186ECFEC25
:1007600004F0C8EC03F030EC05F040EC05F004ECCC
:1007700003F0010E42EC04F0000E066E000EE9ECF0
:1007800003F0010E066E060E076E7BEC03F0FFD73A
:10079000000E086E060E076E990E096E5DEC04F0F1
:1007A000000E086E070E076E010E096E5DEC04F078
:1007B000000E086E080E076ECC0E096E5DEC04F09C
:1007C000000E086E090E076E040E096E5DEC04F053
:1007D00012000B6E020E066012000F0E0B6401D0A9
:1007E00012000604D8B402D0800E01D0C00E0BC097
:1007F00007F0086A0710096E08500A6E095042ECAB
:1008000004F0000E046E050E036E11EC05F01200EC
:10081000A00EF66E0A0EF76E000EF86E00EE0CF0EB
:1008200010EE08F00900F5CFEEFFE550E150FAE1D7
:10083000196A186A176A166A156A146A000EF86E41
:10084000060EF76E0001A5EF03F0000E046E938014
:100850008180000E036E010E026E06EC05F08182AF
:10086000000E036E010E026E06EC05F007D0042A9E
:10087000FA0E046403D0E2EC04F0120081B0F7D762
:1008800081921200056E000E046E050E036E11ECCF
:1008900005F0000E016E05508FEC04F00538F00BEA
:1008A000056E000E046E010E036E11EC05F0000ED5
:1008B000016E05508FEC04F01200F4EC04F0400ED1
:1008C0004FEC03F025EC04F007504FEC03F025EC5F
:1008D00004F009504FEC03F025EC04F0E2EC04F0D6
:1008E000000E046E0A0E036E11EC05F012008390E8
:1008F000838258EC05F0838458EC05F0958E83AE26
:1009000007D08394838483948392959E010E120072
:100910008394838483948392959E000E1200026ECA
:1009200002380F0B026E02500F0B026E83500F0B3A
:10093000836E0238F00B8310836E01B002D0839077
:1009400001D083808392838483941200056E000E0D
:10095000046E050E036E11EC05F0010E016E0550DC
:100960008FEC04F00538F00B056E010E016E05509A
:100970008FEC04F01200C280C19AC198C186C18474
:10098000C182C190C29AC298C296C294C08EC08AD7
:10099000C088C086C094C092C0809D9C120046EC66
:1009A00005F0000E086EFE0E076E790E096E5DEC06
:1009B00004F0000E086E000E076E010E096E5DEC6D
:1009C00004F01200939081928190000E036E040E49
:1009D000026E06EC05F081828180000E036E040E2B
:1009E000026E06EC05F01200939081808182000E69
:1009F000036E040E026E06EC05F08190000E036E8D
:100A0000040E026E06EC05F081921200010E38EC25
:100A100005F00206D8A0030602500310D8B4120055
:100A2000F5D7010E1CEC05F00306D8A00406035010
:100A30000410D8B41200F5D7026E0D0E016EFC0E34
:100A4000E82EFED7012EFCD7022EF7D71200928097
:100A50009292000E956E000E8C6EF00E946E120047
:100A6000D59ED58CD59AD596D594D592D5801200A1
:100A7000016E030EE82EFED700F0012EFAD7120009
:100A8000D09EF28EF28CF28AF2941200939293909E
:100A9000818281801200016E00F0012EFDD71200CC
:100AA0001F11111F11111F00D394D390D392120064
:080AB000120E4BEC05F01200E0
:020000040020DA
:08000000FFFFFFFFFFFFFFFF00
:020000040030CA
:0E000000FF061F1EFF8281FF0FC00FE00F40A2
:00000001FF
