:0400000007EF00F016
:100008006B82A5ED06F018EF0AF0220E00018B6F47
:10001800000E00018C6FFDEF04F0250E000192190F
:10002800D8B40AD01EC0D9FF1FC0DAFF92C0DFFFC4
:100038001E4A1F2AFDEF04F0000E0001916F000E0A
:10004800906F000E0001946F000E936F0DD00001A9
:10005800938708D00001938105D00001948702D0CE
:1000680000019385204A212A20C0F6FF21C0F7FF0E
:100078000800F550200AD8B4EDD7030AD8B4EDD754
:100088000E0AD8B4E4D71D0AD8B4EAD7000193A75A
:1000980002D00001939520C0F6FF21C0F7FF0800A9
:1000A800F5507EEC0CF0D8A036D0000E0001916F10
:1000B800000E906F90C012F091C013F0000E156EF4
:1000C8000A0E146E12EC0CF012C090F013C091F0EE
:1000D800D00E286EFF0E296E20C0F6FF21C0F7FF54
:1000E8000800F5502A6E2B6A28502A2629502B2200
:1000F8002A50000190272B5000019123204A212AE1
:1001080020C0F6FF21C0F7FF0800F5507EEC0CF088
:10011800D8A019D0CFD720C0F6FF21C0F7FF08001C
:10012800F5502A0AD8A40FD08BC0D9FF8CC0DAFFAB
:10013800DECF90F0DDCF91F0020E00018B27000E8C
:100148008C23204A212A20C0F6FF21C0F7FF08008F
:10015800F5502E0AD8A43CD00001948D204A212ABB
:1001680020C0F6FF21C0F7FF0800F5502A0AD8A4DE
:100178000FD08BC0D9FF8CC0DAFFDF5000018F6F22
:10018800020E00018B27000E8C23204A212A0FD152
:10019800000E00018F6F11D020C0F6FF21C0F7FFBD
:1001A8000800F5CF28F000018F510A0DF3502824DC
:1001B800D00F00018F6F204A212A20C0F6FF21C0EE
:1001C800F7FF0800F5507EEC0CF0D8A0F0D0E4D78B
:1001D800000E00018F6FEBD00001938D12D100014A
:1001E800948B0001938B0001938F0BD18BC0D9FFA7
:1001F8008CC0DAFFDECF87F0DDCF88F0020E000179
:100208008B27000E8C230001875100018811D8A488
:1002180006D0C60E0001876F7F0E0001886F000EA2
:1002280000018A6F000E896F03D00001894B8A2B69
:100238000001895100018725286E00018A510001BB
:100248008821296E28C0F6FF29C0F7FFF86A050E35
:10025800F76403D00800F55005D0F6CFE9FFF7CFD3
:10026800EAFFEF500009D8A4E0D700018F51000140
:10027800D8B414D08FC028F0296A28BE29060001F6
:100288008951285C00018A512958D8B007D000014B
:100298008F510001896F8A6B89BF8A0700019051CD
:1002A8000001895D0001915100018A59D8B009D037
:1002B800000189510001905F00018A510001915BA2
:1002C80005D0000E0001916F000E906F000193A7FA
:1002D80009D02ED01EC0D9FF1FC0DAFF200EDF6E56
:1002E8001E4A1F2A00019007D8A0910700019029F3
:1002F800F1E100019129D8B41BD0ECD787C0F6FFF3
:1003080088C0F7FFF86A1EC0D9FF1FC0DAFF050EC4
:10031800F76403D00800F55005D0F6CFE9FFF7CF12
:10032800EAFFEF50DF6E0001874B882B1E4A1F2A19
:1003380000018907D8A08A0700018929DFE10001A7
:100348008A29D8A4DBD7000193B709D052D31EC09D
:10035800D9FF1FC0DAFF200EDF6E1E4A1F2A0001D8
:100368009007D8A0910700019029F1E10001912997
:10037800D8B43FD3ECD78BC0D9FF8CC0DAFFDF509D
:100388000001926F020E00018B27000E8C23920E43
:100398000001876F000E0001886F000E00018A6F50
:1003A800010E896F62D7C00E000193132AD020C0B6
:1003B800F6FF21C0F7FF204A212A0800F5CF92F066
:1003C80000019251000AD8B422D3580AD8B409D7E8
:1003D8003B0AD8B4D0D7070AD8B413D00D0AD8B47A
:1003E80010D0060AD8B4F8D61F0AD8B4F8D6030A2B
:1003F800D8B4FCD6060AD8B4D6D70D0AD8B4F3D6E2
:10040800C6D7C00E00019315286E000E0001941582
:10041800296E28502910D8A419D08BC0D9FF8CC0B8
:10042800DAFFDECF8DF0DDCF8EF0020E00018B27D4
:10043800000E8C2300018EAF16D0030E000193131B
:1004480000018D6D8E1FD8B08E2B0DD08BC0D9FFBB
:100458008CC0DAFFDECF8DF0DDCF8EF0020E00010A
:100468008B27000E8C2300018F510001D8A463D084
:1004780000018D5100018E11D8A45DD000018F2B91
:100488005AD0010E0001926F050E00019219D8B4DE
:1004980061D000019251020D0F0EF324F66E7E0E0C
:1004A800F420F76E0900F55000018D5D0900F55044
:1004B80000018E59D8A04ED00001922BE5D7010E2D
:1004C8000001926F040E00019219D8B443D00001C4
:1004D8009251020D190EF324F66E7E0EF420F76E7B
:1004E8000900F55000018D5D0900F55000018E5995
:1004F800D8A030D00001922BE5D7010E0001926FF1
:10050800060E00019219D8B425D000019251020DAF
:10051800030EF324F66E7E0EF420F76E0900F550F4
:1005280000018D5D0900F55000018E59D8A012D048
:100538000001922BE5D700019351C00B000AD8B4F3
:10054800A0D7400AD8B4D9D7C00AD8B4B8D7400A77
:10055800D8B497D700019251800A286E00018F51B4
:10056800800A285CD8B003D08FC092F00BD000016D
:100578008F51800A286E00019251800A285CD8A009
:1005880092C08FF00001905100019111D8B410D0A1
:10059800030E00019315286E000E00019415296EB4
:1005A80028502910D8B404D000019007D8A091078A
:1005B800000194AD1FD0800E00018FBF7F0E286E02
:1005C8000001905100018F5D00019151800A285867
:1005D800D8B00BD000018F510001905F000E0001D0
:1005E8008FBFFF0E0001915B05D0000E0001916FD7
:1005F800000E906FC40E286E080E296E93C02AF064
:1006080094C02BF028502A1629502B16400E2A1871
:100618000FE1080E2B18D8A40BD00001905100014F
:100628009111D8B42ED000019007D8A0910729D0F5
:10063800C00E286E080E296E93C02AF094C02BF0C5
:1006480028502A1629502B16800E2A181AE1080E4F
:100658002B18D8A416D0000191BF0ED000019151DB
:1006680005E1030E0001905DD8A006D00001FE0E42
:100678009027FF0E912305D0000E0001916F000E08
:10068800906F800E000192BF7F0E286E000190517E
:100698000001925D00019151800A2858D8B00BD012
:1006A800000192510001905F000E000192BFFF0E01
:1006B8000001915B05D0000E0001916F000E906F54
:1006C800000193A561D0030E00019315286E000E5A
:1006D80000019415296E28502910D8B409D01EC0DD
:1006E800D9FF1FC0DAFF2D0E0BD01E4A1F2A39D0A2
:1006F800000193A107D01EC0D9FF1FC0DAFF200E4A
:10070800DF6EF3D7C00E286E080E296E93C02AF04C
:1007180094C02BF028502A1629502B16800E2A1820
:1007280020E1080E2B18D8A41CD01EC0D9FF1FC06A
:10073800DAFF300EDF6E1E4A1F2A000193BB05D078
:10074800000E0001826F780E04D0000E0001826F47
:10075800580E816F1EC0D9FF1FC0DAFF81C0DFFFAE
:10076800C4D70001905100019111D8B41DD11EC009
:10077800D9FF1FC0DAFF300EDF6E1E4A1F2A0001A4
:100788009007D8A09107EDD7000190510001911171
:10079800D8B415D0000193B712D01EC0D9FF1FC01E
:1007A800DAFF200EDF6E1E4A1F2A00019007D8A02C
:1007B80091070001905100019111D8A4EED7030EC2
:1007C80000019315286E000E00019415296E28501B
:1007D8002910D8B409D01EC0D9FF1FC0DAFF2D0ECA
:1007E8000BD01E4A1F2A0AD0000193A107D01EC0B1
:1007F800D9FF1FC0DAFF200EDF6EF3D7C00E286EB8
:10080800080E296E93C02AF094C02BF028502A169F
:1008180029502B16400E2A180BE1080E2B18D8A4C5
:1008280007D01EC0D9FF1FC0DAFF300EDF6EBAD066
:10083800C00E286E080E296E93C02AF094C02BF0C3
:1008480028502A1629502B16800E2A1803E1080E64
:100858002B18D8A4A9D01EC0D9FF1FC0DAFF300EAC
:10086800DF6E1E4A1F2A000193BB05D0000E00014F
:10087800846F780E04D0000E0001846F580E836FC9
:100888001EC0D9FF1FC0DAFF83C0DFFF8BD0000175
:100898008F51020D0F0EF324F66E7E0EF420F76EC4
:1008A8000900F5CF14F00A00F5CF15F08DC012F04D
:1008B8008EC013F041EC0AF012C019F013C01AF000
:1008C800000E1C6E0A0E1B6E8FEC0AF0195051D0E8
:1008D8008DC012F08EC013F000018F51020D190E59
:1008E800F324F66E7E0EF420F76E0900F5CF14F0AF
:1008F8000A00F5CF15F041EC0AF012500F0B000179
:10090800806F000193BB05D0CE0E0001856F7E0E6F
:1009180004D0BD0E0001856F7E0E0001866F0001B8
:100928008051010D85C028F086C029F0F350282693
:10093800F450292228C0F6FF29C0F7FF0800F5CF98
:1009480092F02AD08DC012F08EC013F000018F51A2
:10095800020D030EF324F66E7E0EF420F76E0900E6
:10096800F5CF14F00A00F5CF15F041EC0AF012505B
:10097800070B300F0001926F0FD000019351C00B8D
:10098800000AD8B484D7400AD8B4DCD7C00AD8B48F
:100998009FD7400AD8B47BD71EC0D9FF1FC0DAFF43
:1009A80092C0DFFF1E4A1F2A00018F0700018F290E
:1009B800D8A4E3D7000193A71CD0000191BF19D098
:1009C8000001915104E100019005D8A012D01EC089
:1009D800D9FF1FC0DAFF200EDF6E1E4A1F2A000152
:1009E8009007D8A091070001905100019111D8A457
:1009F800EED720C0F6FF21C0F7FF204A212A0800C1
:100A0800F5CF92F000019251D8A411EF00F01EC06A
:100A1800D9FF1FC0DAFF000EDF6E120080D01F5012
:100A28002010D8B409D01FC01AF020C01BF0060E41
:100A38001C6E41EC0BF0120021501F241A6E22503C
:100A480020201B6E060E1C6E41EC0BF01200A80E47
:100A58001F5C060E2058D8B009D01FC01AF020C05D
:100A68001BF00A0E1C6E41EC0BF0120021501F24E3
:100A78001A6E225020201B6E0A0E1C6E41EC0BF0E1
:100A88001200080E1F5C080E2058D8B009D01FC0ED
:100A98001AF020C01BF00E0E1C6E41EC0BF0120079
:100AA80021501F241A6E225020201B6E0E0E1C6E21
:100AB80041EC0BF01200BB0E1F5C060E2058D8B09C
:100AC80009D01FC01AF020C01BF0120E1C6E41EC9A
:100AD8000BF0120021501F241A6E225020201B6E8A
:100AE800120E1C6E41EC0BF012004A0E1F5C060E33
:100AF8002058D8B009D01FC01AF020C01BF0160E1D
:100B08001C6E41EC0BF0120021501F241A6E22506B
:100B180020201B6E160E1C6E41EC0BF012002350A9
:100B2800000AD8B47CD7010AD8B491D7030AD8B43C
:100B3800A8D7010AD8B4BFD7070AD8A41200D5D7B6
:100B480020EE03F02450D9262550DA229F0EDF64C8
:100B580020D0C00E266EFE0E276E20EE03F0245025
:100B6800D9262550DA22DF50286E296AD8902836EF
:100B780029362650282627502922A50E2824F66E25
:100B88007C0E2920F76E0900F5CF38F00A00F5CF62
:100B980039F020EE02F02450D9262550DA22890EA9
:100BA800DF6420D0EC0E266EFE0E276E20EE02F0DB
:100BB8002450D9262550DA22DF50286E296AD89089
:100BC800283629362650282627502922FF0E282481
:100BD800F66E790E2920F76E0900F5CF36F00A0077
:100BE800F5CF37F036C01FF037C020F038C021F0FD
:100BF80039C022F0010E236E12EC05F02AC01FF056
:100C08002BC020F030C021F031C022F0020E236E3C
:100C180012EC05F02CC01FF02DC020F032C021F0DE
:100C280033C022F0030E236E12EC05F02EC01FF025
:100C38002FC020F034C021F035C022F0040E236EFE
:100C480012EC05F012000101DC6F23EE00F011EE4A
:100C580078F0630EDBCFE3FFE806FCE22ED0780ED7
:100C68001E6E010E1F6E610E206E7F0E216EEE0E3F
:100C7800226E7F0E236E2EC024F02FC025F030C0C8
:100C880026F031C027F009EC00F01FD0780E1E6E58
:100C9800010E1F6E610E206E7F0E216EF20E226E07
:100CA8007F0E236E2EC024F02FC025F030C026F012
:100CB80031C027F009EC00F008D00101DC51000A2E
:100CC800D8B4CDD7010AD8B4E1D733BE06D0335053
:100CD80017E1050E325CD8B013D0000E1E6E010E5F
:100CE8001F6E960E206E7E0E216E32C022F033C02B
:100CF80023F0780E246E010E256E09EC00F00ED05C
:100D0800000E1E6E010E1F6EDF0E206E7E0E216E0F
:100D1800780E226E010E236E09EC00F0000E256E8F
:100D2800010E266EBE0E276E7F0E286ECD0E296E22
:100D38007F0E2A6E000E2C6E5A0E2B6E21EC07F0D9
:100D480012000600FACF03F0FBCF04F0E9CF05F05C
:100D5800EACF06F0E1CF07F0E2CF08F0D9CF09F0EB
:100D6800DACF0AF0F3CF0BF0F4CF0CF0F6CF0DF09A
:100D7800F7CF0EF0F8CF0FF0F5CF10F09EAA38D0CD
:100D8800AECF11F00201CC517F0B016E310E016024
:100D98002ED00201CC517F0B016E0150010D9A0E2D
:100DA800F324D96E020EF420DA6E11C0DFFF010EB3
:100DB800016E0201CC517F0B026E01500226020126
:100DC800CC510218800B02180201CC6F0201CC51E1
:100DD8007F0B016E0150010D9A0EF324D96E020E9D
:100DE800F420DA6EDF50D8A402D00201CC8F9E9A8C
:100DF8009EA205D05A4A5B2A5C4A5D2A9E9210C080
:100E0800F5FF0FC0F8FF0EC0F7FF0DC0F6FF0CC0CE
:100E1800F4FF0BC0F3FF0AC0DAFF09C0D9FF08C00E
:100E2800E2FF07C0E1FF06C0EAFF05C0E9FF04C012
:100E3800FBFF03C0FAFF6B921100000E5F6E000EFD
:100E48005E6E0201CC91CC93CC95CC97CC99CC9B7F
:100E5800CC9D25C012F026C013F089EC09F027506C
:100E68002810D8A406D029502A10D8A402D0010EE0
:100E780012002BC014F02CC015F099EC0CF0275080
:100E88002810D8B422D029502A10D8B41ED0010E68
:100E98002D6E9A0E216E020E226E27C023F028C0F6
:100EA80024F006EC09F021660ED09A0E216E020E8F
:100EB800226E29C023F02AC024F006EC09F021662E
:100EC80002D0000E2D6E2D50120027502810D8B4D5
:100ED8000CD09A0E216E020E226E27C023F028C075
:100EE80024F006EC09F0215012009A0E216E020E31
:100EF800226E29C023F02AC024F006EC09F0215004
:100F08001200FFEC0BF0D4EC0BF07A0E256E7F0E7E
:100F1800266EBB0E276E7F0E286E000E296E000E01
:100F28002A6E010E2C6EF40E2B6E21EC07F077EC76
:100F38000BF0EA0E2E6E7F0E2F6E850E306E7F0E32
:100F4800316E6AEC0AF00009D8B4F3D7FF0E256EAB
:100F58007E0E266EBB0E276E7F0E286E000E296E43
:100F6800000E2A6E010E2C6EF40E2B6E21EC07F08B
:100F78000009D8B4EBD70E0E256E7F0E266EBB0E79
:100F8800276E7F0E286E000E296E000E2A6E010E47
:100F98002C6EF40E2B6E21EC07F00009D8B4EBD7B9
:100FA8006E0E2E6E7F0E2F6EE50E306E7F0E316E3A
:100FB800000E336E070E326E000E27EC06F00009A5
:100FC800D8A41200EDD7000E836E000E956E000EA9
:100FD800156E0F0E146E99EC0CF0300E0BEC0BF036
:100FE800000E156E050E146E99EC0CF0300E0BEC1D
:100FF8000BF0000E156E050E146E99EC0CF0320E07
:101008000BEC0BF090EC0BF00009D8A4FBD7280EE2
:101018000BEC0BF090EC0BF00009D8A4FBD7080EF2
:101028000BEC0BF090EC0BF00009D8A4FBD70C0EDE
:101038000BEC0BF090EC0BF00009D8A4FBD7010ED9
:101048000BEC0BF0060E0BEC0BF090EC0BF0000920
:10105800D8A4FBD7010E0BEC0BF01200000E276E84
:10106800000E286E0201CC91CC93CC95CC97CC99EC
:10107800CC9BCC9D9A0E216E020E226EFB0E236E27
:101088007F0E246E06EC09F02150D8B4F3D7020184
:10109800CC91CC93CC95CC97CC99CC9BCC9D020190
:1010A800CC9F9A0E216E020E226EF90E236E7F0ED1
:1010B800246E06EC09F021502210D8B4F2D79A0E0B
:1010C800216E020E226EF90E236E7F0E246E06EC40
:1010D80009F021502210D8B404D09A0E276E020EBF
:1010E800286E27C025F028C026F01200DAEC0CF094
:1010F800CAEC0CF037EC0CF08DEC0CF0BAEC0CF000
:10110800E7EC07F025EC0CF085EC07F0010E0BEC92
:101118000BF0000E176E000EB0EC0AF0D40E176E2E
:101128007F0E186EEEEC09F00B0E156EB80E146EED
:1011380099EC0CF0010E0BEC0BF0E2EC0CF0000E4D
:10114800616E9A0E126E020E136E000E156E000E70
:10115800146E000E176E320E166EA8EC0BF032EC01
:1011680008F025C03AF026C03BF03AC024F03BC056
:1011780025F0A4EC05F0F3D72E6E39D01C0E256EA1
:101188007F0E266EBB0E276E7F0E286E000E296E10
:10119800000E2A6E090E2C6EC40E2B6E21EC07F081
:1011A8001200380E256E7F0E266EBB0E276E7F0E40
:1011B800286E000E296E000E2A6E090E2C6EC40EC3
:1011C8002B6E21EC07F01200460E256E7F0E266E60
:1011D800BB0E276E7F0E286E000E296E000E2A6E3B
:1011E800090E2C6EC40E2B6E21EC07F012002E5047
:1011F800000AD8B4C3D7010AD8B4D3D7030AD8A4ED
:101208001200E2D731D021C018F022C019F023C053
:101218001AF024C01BF023C012F024C013F0CFEC46
:101228000AF012C01CF013C01DF048EC09F0185069
:101238001910D8A405D021C021F022C022F0120034
:10124800010E2124126E000E2220136E23C0F6FF19
:1012580024C0F7FF0800F550146E156A26EC0BF051
:1012680012C021F013C022F021502210D8B407D0A8
:1012780021C0D9FF22C0DAFFDF50D8A4C4D7000E9E
:10128800216E000E226E120033D018C0D9FF19C08B
:10129800DAFFDF50D8B40FD018C0D9FF19C0DAFF71
:1012A800DF501E6E1AC0F6FF1BC0F7FF0800F5508E
:1012B8001E18D8B419D01AC0F6FF1BC0F7FF0800D3
:1012C800F5501E6E1F6A1E1E1F1E1E4A1F2A18C0BA
:1012D800D9FF19C0DAFFDF50206E20501E24186E87
:1012E800000E1F20196E1200184A192A1A4A1B2AC2
:1012F8001C06D8A01D061C28C8E11D28D8A4C5D7DF
:10130800000E196E000E186E120016681768164A3D
:10131800172A9EA8FED716501224146E17501320B1
:10132800156E14C0F6FF15C0F7FFF86A050EF764CE
:1013380003D00800F55005D0F6CFE9FFF7CFEAFF54
:10134800EF50AD6E16501224146E17501320156E00
:1013580014C0F6FF15C0F7FFF86A050EF76403D04E
:101368000800F55005D0F6CFE9FFF7CFEAFFEF50B8
:101378000009D8A4CCD7ACB21200FDD7166E939052
:101388008192000E176E070E176401D01200156ABD
:1013980016AE01D0152A010E151681501518FE0B30
:1013A8001518816ED8901636000E146E020E136E44
:1013B800AFEC0CF08182000E146E020E136EAFECCF
:1013C8000CF08192000E146E020E136EAFEC0CF04E
:1013D800172AD9D7000E1B6E13D01B50010D17C04A
:1013E80019F018C01AF0F3501926F4501A2219C02F
:1013F800F6FF1AC0F7FF0800F550EAEC0BF01B2ABD
:101408001B50010D17C019F018C01AF0F350192617
:10141800F4501A2219C0F6FF1AC0F7FF0800F55059
:101428000009D8B41200D9D7AC0EF66E190EF76EB3
:10143800000EF86E00EE63F010EE08F00900F5CF2C
:10144800EEFFE550E150FAE103EE00F0640EEE6ABB
:10145800E806FDE102EE00F0CE0EEE6AE806FDE1D8
:1014680000EE3CF0270EEE6AE806FDE16B906B9209
:10147800000EF86E00017AEF08F0000E186E000EEC
:10148800176E14501510D8B41CD0010E166E04D067
:10149800D89014361536162A15AEFAD7D8901736BE
:1014A80018361450125C15501358D8A005D0145093
:1014B800125E1550135A1780D89015321432162E12
:1014C800EDD717C012F018C013F01200000E1E6EF0
:1014D800010E1F6E810E206E7E0E216E2EC022F030
:1014E8002FC023F030C024F031C025F009EC00F003
:1014F800000E256E010E266EBB0E276E7F0E286E1F
:10150800A30E296E7F0E2A6E3A0E2C6E980E2B6E45
:1015180021EC07F012001B501C10D8B418D0010E93
:101528001D6E04D0D8901B361C361D2A1CAEFAD767
:101538001B50195C1C501A58D8A004D01B50195EB7
:101548001C501A5AD8901C321B321D2EF1D719C0C4
:1015580019F01AC01AF012001C6E020E1760120061
:101568000F0E1C6401D012001704D8B402D0800EEC
:1015780001D0C00E1CC018F0196A18101A6E195044
:101588001B6E1A500BEC0BF0000E156E050E146E48
:1015980099EC0CF0120012C016F013C017F002D02C
:1015A800164A172A16C0F6FF17C0F7FF0800F550AD
:1015B8000009D8A4F5D712C014F013C015F0141EF2
:1015C800151E144A152A16501424126E1750152089
:1015D800136E1200000E156E93808180000E146E3B
:1015E800010E136EAFEC0CF08182000E146E010E2A
:1015F800136EAFEC0CF007D0152AFA0E156403D061
:1016080049EC0CF0120081B0F7D781921200166EE7
:10161800000E156E050E146E99EC0CF0000E126E8D
:101628001650BEEC0BF01638F00B166E000E156E49
:10163800010E146E99EC0CF0000E126E1650BEECF2
:101648000BF0120012C0D9FF13C0DAFF1450DE18D5
:10165800D8A405D012C012F013C013F0120012C0A3
:10166800D9FF13C0DAFF124A132ADF50D8A4EAD7E9
:10167800000E126E000E136E12001AC01EF01B50E0
:101688001D6E000E186E1C505CEC0BF0000E186EF0
:101698001C285CEC0BF01EC018F01C50020F5CEC10
:1016A8000BF01DC018F01C50030F5CEC0BF012007F
:1016B800196E5BEC0CF0800EC2EC09F0EEEC0AF04F
:1016C8001950C2EC09F0EEEC0AF01850C2EC09F01F
:1016D800EEEC0AF049EC0CF0000E156E0A0E146ED2
:1016E80099EC0CF01200000EC0EC08F0540E256EB8
:1016F8007F0E266E8F0E276E7F0E286EBB0E296E0C
:101708007F0E2A6E000E2C6E640E2B6E21EC07F0F5
:101718000009D8A41200EAD783908382DEEC0CF08B
:101728008384DEEC0CF0958683A607D083948384AB
:10173800839483929596010E1200839483848394F4
:1017480083929596000E120012C018F013C019F07B
:1017580008D018C0D9FF19C0DAFF14C0DFFF184A33
:10176800192A1606D8A017061628F3E11728D8B4A0
:101778001200EFD7136E13380F0B136E13500F0BA5
:10178800136E8350F00B836E83501310836E12B068
:1017980002D0839001D08380839283848394120043
:1017A800E00E256E7F0E266EBB0E276E7F0E286E0E
:1017B800000E296E000E2A6E000E2C6EC80E2B6EBF
:1017C80021EC07F00009D8A41200EAD7166E000E23
:1017D800156E050E146E99EC0CF0010E126E165073
:1017E800BEEC0BF01638F00B166E010E126E16508A
:1017F800BEEC0BF01200AD0E256E7F0E266EBB0EF2
:10180800276E7F0E286EDA0E296E7F0E2A6E090E5D
:101818002C6EC40E2B6E21EC07F01200125014022D
:10182800F3CF16F0F4CF17F012501502F350172625
:1018380013501402F350172616C012F017C013F0F5
:101848001200AC98AC9CAB8E9D98AC8AD08EF28E70
:10185800F28CAB889D8AAB9CAC84B886000EB06EC7
:10186800560EAF6E12006DEC0CF0110E186E000ED5
:101878005CEC0BF0150E186EFE0E5CEC0BF0010E16
:10188800186E000E5CEC0BF0120093908192819020
:10189800000E146E040E136EAFEC0CF08182000E75
:1018A800146E040E136EAFEC0CF08180120093904E
:1018B80081808182000E146E040E136EAFEC0CF062
:1018C8008190000E146E040E136EAFEC0CF0819232
:1018D8001200939293908182000E146E020E136E82
:1018E800AFEC0CF08180000E146E020E136EAFEC9C
:1018F8000CF01200146E000E136E3A0E146005D030
:101908002F0E146402D0010E136E13C012F01230A1
:101918001200F90ECB6ECA50870B4809CA6ECA501E
:10192800FC0B0109CA6ECA841200010EA4EC0CF06B
:101938001406D8A0150614501510D8B41200F5D7FF
:10194800136E0D0E126EFC0EE82EFED7122EFCD76B
:10195800132EF7D71200010EC2EC0CF01306D8A014
:10196800140613501410D8B41200F5D7D08EF28E86
:10197800F28CF29AF2949D829E921200126E030EDD
:10198800E82EFED700F0122EFAD71200000E956E40
:10199800000E8C6E929089901200126E00F0122E3A
:1019A800FDD712001F11111F11111F00D394D390DE
:0E19B800D3921200120ED1EC0CF012001200AD
:1074840000E1020000000000000000000000000015
:1074940000000000000000000000000000000000E8
:1074A40000000000000000000000000000000000D8
:1074B40000000000000000000000000000000000C8
:1074C40000000000000000000000000000000000B8
:1074D40000000000000000000000000000000000A8
:1074E4000000000000000000000000000000000098
:1074F4000000000000000000000000000000000088
:107504000000000000000000000000000000000077
:107514000000000000000000000000000000000067
:107524000000000000000000000000000000000057
:107534000000000000000000000000000000000047
:107544000000000000000000000000000000000037
:107554000000000000000000000000000000000027
:107564000000000000000000000000000000000017
:107574000000000000000000000000000000000007
:1075840000000000000000000000000000000000F7
:1075940000000000000000000000000000000000E7
:1075A40000000000000000000000000000000000D7
:1075B40000000000000000E102E702ED02F302F91E
:1075C40002FF0205030B03110317031D0323032901
:1075D400032F0335033B03410347034D035303596F
:1075E400035F0365036B03710377037D03830389DF
:1075F400038F0395039B03A103A703AD03B303B94F
:1076040003BF03C603CC03D203D803DE03E403EAB7
:1076140003F003F603FC03020408040E0414041A22
:1076240004200426042C04320438043E0444044A8E
:1076340004500456045C04620468046E0474047AFE
:1076440004800486048C04920498049E04A504AB6C
:1076540004B104B704BD04C304C904CF04D504DBD6
:1076640004E104E704ED04F304F904FF0405050B45
:1076740005110517051D05230529052F0535053BAE
:1076840005410547054D05530559055F0565056B1E
:1076940005710577057D0583058A05900596059C8A
:1076A40005A205A805AE05B405BA05C005C605CCF6
:1076B40005D205D805DE05E405EA05F005F605FC66
:1076C40005020608060E0614061A06200626062CCF
:1076D40006320638063E0644064A06500656065C3E
:1076E4000662066906E102E802EF02F702FE0205FD
:1076F400030D0314031C0323032A03320339034039
:107704000348034F0357035E0365036D0374037B50
:107714000383038A0392039903A003A803AF03B767
:1077240003BE03C503CD03D403DB03E303EA03F27F
:1077340003F903000408040F0416041E0425042D91
:107744000434043B0443044A0451045904600468A7
:10775400046F0476047E0485048D0494049B04A3BE
:1077640004AA04B104B904C004C804CF04D604DED6
:1077740004E504EC04F404FB0403050A05110519EB
:1077840005200527052F0536053E0545054C0554FE
:10779400055B0563056A0571057905800587058F15
:1077A4000596059E05A505AC05B405BB05C205CA2D
:1077B40005D105D905E005E705EF05F605FD050545
:1077C400060C0614061B0622062A06310639064054
:1077D4000647064F0656065D0665066C0674067B6C
:1077E4000682068A0691069806A006A706AF06B684
:1077F40006BD06C506CC06D306DB06E206EA06F19C
:1078040006F806000707070F07E102EB02F602017C
:10781400030B03160321032B03360341034C0356C6
:107824000361036C03760381038C039703A103AC08
:1078340003B703C103CC03D703E203EC03F703024A
:10784400040C04170422042D04370442044D045785
:107854000462046D04780482048D049804A204ADC7
:1078640004B804C204CD04D804E304ED04F804030A
:10787400050D05180523052E05380543054E055845
:107884000563056E05790583058E059905A305AE87
:1078940005B905C405CE05D905E405EE05F90504C9
:1078A400060F06190624062F06390644064F065A03
:1078B4000664066F067A0684068F069A06A406AF47
:1078C40006BA06C506CF06DA06E506EF06FA060589
:1078D4000710071A07250730073A07450750075BC3
:1078E40007650770077B07850790079B07A607B006
:1078F40007BB07C607D007DB07E607F107FB070648
:107904000811081B08260831083C0800000800106C
:1079140000190021002A0032003B0043004C0054AF
:10792400005D0065006E0076007F0087009000987F
:1079340000A100A900B200BA00C300CB00D300DC50
:1079440000E400ED00F500FE0006010F0117012020
:107954000128013101390142014A0153015B0164EB
:10796400016C0175017D0186018E0196019F01A7BD
:1079740001B001B801C101C901D201DA01E301EB8F
:1079840001F401FC0105020D0216021E0227022F5A
:107994000238024002490251025A0262026A027328
:1079A400027B0284028C0295029D02A602AE02B7FB
:1079B40002BF02C802D002D902E102EA02F202FBCB
:1079C4000203030C0314031D0325032D0336033E96
:1079D4000347034F0358036003690371037A038267
:1079E400038B0393039C03A403AD03B503BE03C637
:1079F40003CF03D703E003E803F103E102E902F252
:107A040002FA0203030C0314031D0325032E033798
:107A1400033F0348035103590362036A0373037C5E
:107A24000384038D0396039E03A703AF03B803C126
:107A340003C903D203DB03E303EC03F403FD0306EE
:107A4400040E041704200428043104390442044BAE
:107A54000453045C0465046D0476047E0487049076
:107A6400049804A104AA04B204BB04C304CC04D53E
:107A740004DD04E604EF04F7040005080511051A03
:107A84000522052B0534053C0545054D0556055FC6
:107A94000567057005790581058A0592059B05A48E
:107AA40005AC05B505BE05C605CF05D705E005E956
:107AB40005F105FA0503060B0614061C0625062E19
:107AC4000636063F0648065006590661066A0673DE
:107AD400067B0684068D0695069E06A606AF06B8A6
:107AE40006C006C906D2060000030006000A000DFF
:107AF400001100140018001B001F0022002600299A
:107B0400002D003000340037003B003E00420045A9
:107B14000049004C005000530057005A005E0061B9
:107B240000650068006C006F00730076007A007DC9
:107B3400008100840088008B008F009200960099D9
:107B4400009D00A000A400A700AB00AE00B200B5E9
:107B540000B900BC00C000C300C600CA00CD00D1FB
:107B640000D400D800DB00DF00E200E600E900ED0D
:107B740000F000F400F700FB00FE0002010501091B
:107B8400010C011001130117011A011E0121012525
:107B94000128012C012F01330136013A013D014135
:107BA40001440148014B014F015201560159015D45
:107BB400016001640167016B016E01720175017955
:107BC400017C0180018301870100000000000000A6
:107BD40000000000000000000000000000000000A1
:107BE4000000000000000000000000000000000091
:107BF4000000000000000000000000000000000081
:107C04000000000000000000000000000000000070
:107C14000000000000000000000000000000000060
:107C24000000000000000000000000000000000050
:107C34000000000000000000000000000000000040
:107C44000000000000000000000000000000000030
:107C54000000000000000000000000000000000020
:107C64000000000000000000000000000000000010
:107C74000000000000000000000000000000000000
:107C840000000000000000000000000000000000F0
:107C940000000000000000000000000000000000E0
:107CA4000000000E001D002C003A00490058006737
:107CB40000750084009300A200B000BF00CE00DD78
:107CC40000EB00FA000901180126013501440153B3
:107CD40001610170017F018E019C01AB01BA01C9F0
:107CE40001D701E601F50104021202210230023F2C
:107CF400024D025C026B027A0288029702A602B568
:107D040002C302D202E102F002FE020D031C032BA5
:107D1400033903480357036603740383039203A1DF
:107D240003AF03BE03CD03DC03EA03F9030804171E
:107D340004250434044304520460046F047E048D57
:107D4400049B04AA04B904C804D604E504F4040397
:107D540005110520052F053E054C055B056A0579CF
:107D64000500000C001800240030003C00480055B9
:107D74000061006D007900850091009E00AA00B6A4
:107D840000C200CE00DA00E600F300FF000B01178A
:107D94000123012F013C014801540160016C017869
:107DA40001840191019D01A901B501C101CD01DA4F
:107DB40001E601F201FE010A02160222022F023B31
:107DC40002470253025F026B027802840290029C13
:107DD40002A802B402C002CD02D902E502F102FDFA
:107DE400020903160322032E033A03460352035ED9
:107DF400036B03770383038F039B03A703B403017C
:107E0400000800400000020010008001000A006425
:107E140000E8031027010010000001001041542B5A
:107E240043575341503D222573222C222573222C83
:107E3400312C25730D0A0041542B554152543D31C8
:107E440031353230302C382C312C302C300D0A00A6
:107E540041542B554152543D393630302C382C3155
:107E64002C302C300D0A0041542B434950534552B9
:107E74005645523D312C353030300D0A0041542BDB
:107E840043574A41503D222573222C222573220D4B
:107E94000A0041542B43495053544152543D2564E4
:107EA4002C25730D0A0041542B43495053454E442D
:107EB4003D25642C25640D0A0030313233343536C7
:107EC4003738394142434445460030313233343542
:107ED400363738396162636465660041542B43491F
:107EE4005053544152543D25730D0A0041542B43C1
:107EF40049504D4F44453D300D0A0041542B4349F0
:107F0400504D4F44453D310D0A0041542B434950D7
:107F14004D55583D300D0A0041542B43574D4F44A5
:107F2400453D310D0A0041542B4349504D55583DB0
:107F3400310D0A0041542B43574D4F44453D320DFA
:107F44000A0041542B43574D4F44453D330D0A001D
:107F540041542B43574D4F44453F0D0A002225738E
:107F6400222C222573222C2573003139322E3136EE
:107F7400382E342E310041542B43575141500D0AB1
:107F8400007A7834353232333331002B43574D4F36
:107F940044453A31002B43574D4F44453A32004350
:107FA4004F4E4E45435445440041542B5253540DB7
:107FB4000A0053454E44204F4B00434F4E4E454319
:107FC4005400286E756C6C2900414C52454159008F
:107FD40048656C6C6F0072656164790041540D0AE8
:107FE4000035303030004B454E005443500055446A
:0C7FF40050003E2000000021003400007E
:020000040020DA
:08000000FFFFFFFFFFFFFFFF00
:020000040030CA
:0E000000FF061F1EFF8081FF0FC00FE00F40A4
:00000001FF
