:0400000007EF00F016
:10000800598202ED06F076EF09F0220E376E000EE7
:10001800386E46EF04F0250E3E18D8B40AD01EC03C
:10002800D9FF1FC0DAFF3EC0DFFF1E4A1F2A46EF76
:1000380004F0000E3D6E000E3C6E000E406E000E89
:100048003F6E09D03F8605D03F8003D0408601D05F
:100058003F84204A212A20C0F6FF21C0F7FF08006C
:10006800F550200AD8B4F0D7030AD8B4EFD70E0A4F
:10007800D8B4E8D71D0AD8B4EBD73FB63F9420C010
:10008800F6FF21C0F7FF0800F55026EC0CF0D8A0C9
:1000980033D0000E3D6E000E3C6E3CC012F03DC0E9
:1000A80013F0000E156E0A0E146EBAEC0BF012C0A7
:1000B8003CF013C03DF0D00E286EFF0E296E20C014
:1000C800F6FF21C0F7FF0800F5502A6E2B6A28506A
:1000D8002A2629502B222A503C262B503D22204AE2
:1000E800212A20C0F6FF21C0F7FF0800F55026ECB2
:1000F8000CF0D8A018D0D1D720C0F6FF21C0F7FF48
:100108000800F5502A0AD8A40ED037C0D9FF38C045
:10011800DAFFDECF3CF0DDCF3DF0020E3726000ED1
:100128003822204A212A20C0F6FF21C0F7FF080004
:10013800F5502E0AD8A436D0408C204A212A20C057
:10014800F6FF21C0F7FF0800F5502A0AD8A40DD001
:1001580037C0D9FF38C0DAFFDF503B6E020E3726B2
:10016800000E3822204A212ADBD0000E3B6E0FD029
:1001780020C0F6FF21C0F7FF0800F5CF28F03B505C
:100188000A0DF3502824D00F3B6E204A212A20C0A4
:10019800F6FF21C0F7FF0800F55026EC0CF0D8A0B8
:1001A800BFD0E6D7000E3B6EBBD03F8CE2D0408A72
:1001B8003F8A3F8EDED037C0D9FF38C0DAFFDECFA6
:1001C80033F0DDCF34F0020E3726000E38223350DC
:1001D8003410D8A404D0C20E336E7F0E346E000ED5
:1001E800366E000E356E02D0354A362A3550332425
:1001F800286E36503420296E28C0F6FF29C0F7FF34
:10020800F86A050EF76403D00800F55005D0F6CF5C
:10021800E9FFF7CFEAFFEF500009D8A4E5D73B5034
:10022800D8B410D03BC028F0296A28BE290635501A
:10023800285C36502958D8B005D03B50356E366A00
:1002480035BE36063C50355C3D503658D8B005D0E2
:1002580035503C5E36503D5A04D0000E3D6E000EBF
:100268003C6E3FA609D02AD01EC0D9FF1FC0DAFFB6
:10027800200EDF6E1E4A1F2A3C06D8A03D063C28E9
:10028800F3E13D28D8B41AD0EFD733C0F6FF34C015
:10029800F7FFF86A1EC0D9FF1FC0DAFF050EF76422
:1002A80003D00800F55005D0F6CFE9FFF7CFEAFFF5
:1002B800EF50DF6E334A342A1E4A1F2A3506D8A06B
:1002C80036063528E2E13628D8A4DFD73FB609D06C
:1002D800D9D21EC0D9FF1FC0DAFF200EDF6E1E4A1A
:1002E8001F2A3C06D8A03D063C28F3E13D28D8B497
:1002F800C9D2EFD737C0D9FF38C0DAFFDF503E6E1A
:10030800020E3726000E38223E0E336E000E346E73
:10031800000E366E010E356E82D7C00E3F1229D000
:1003280020C0F6FF21C0F7FF204A212A0800F5CF98
:100338003EF03E50000AD8B4B2D2580AD8B438D7E2
:100348003B0AD8B4D7D7070AD8B413D00D0AD8B403
:1003580010D0060AD8B429D71F0AD8B428D7030A58
:10036800D8B429D7060AD8B4D8D70D0AD8B421D713
:10037800CBD7C00E3F14286E000E4014296E2850AB
:100388002910D8A415D037C0D9FF38C0DAFFDECF7E
:1003980039F0DDCF3AF0020E3726000E38223AAE99
:1003A80013D0030E3F12396C3A1ED8B03A2A0CD03B
:1003B80037C0D9FF38C0DAFFDECF39F0DDCF3AF0E9
:1003C800020E3726000E38223B50D8A44ED03950A2
:1003D8003A10D8A44AD03B2A48D0010E3E6E050EEA
:1003E8003E18D8B450D03E50020D0B0EF324F66ED2
:1003F8007E0EF420F76E0900F550395C0900F550BF
:100408003A58D8A040D03E2AEAD7010E3E6E040ED4
:100418003E18D8B438D03E50020D150EF324F66EAF
:100428007E0EF420F76E0900F550395C0900F5508E
:100438003A58D8A028D03E2AEAD7010E3E6E060EBA
:100448003E18D8B420D03E50020DFF0EF324F66EAD
:100458007D0EF420F76E0900F550395C0900F5505F
:100468003A58D8A010D03E2AEAD73F50C00B000A0D
:10047800D8B4B3D7400AD8B4E0D7C00AD8B4C5D7DF
:10048800400AD8B4AAD73E50800A286E3B50800A4A
:10049800285CD8B003D03BC03EF009D03B50800A5E
:1004A800286E3E50800A285CD8A03EC03BF03C50E5
:1004B8003D10D8B40DD0030E3F14286E000E401422
:1004C800296E28502910D8B403D03C06D8A03D0680
:1004D80040AC16D0800E3BBE7F0E286E3C503B5C75
:1004E8003D50800A2858D8B007D03B503C5E000EDB
:1004F8003BBEFF0E3D5A04D0000E3D6E000E3C6E12
:10050800C40E286E080E296E3FC02AF040C02BF09A
:1005180028502A1629502B16400E2A180CE1080ECE
:100528002B18D8A408D03C503D10D8B428D03C068D
:10053800D8A03D0624D0C00E286E080E296E3FC0F4
:100548002AF040C02BF028502A1629502B16800E6E
:100558002A1815E1080E2B18D8A411D03DBE0BD0CF
:100568003D5004E1030E3C5CD8A005D0FE0E3C26AD
:10057800FF0E3D2204D0000E3D6E000E3C6E800E34
:100588003EBE7F0E286E3C503E5C3D50800A285887
:10059800D8B007D03E503C5E000E3EBEFF0E3D5A1E
:1005A80004D0000E3D6E000E3C6E3FA458D0030EE2
:1005B8003F14286E000E4014296E28502910D8B414
:1005C80009D01EC0D9FF1FC0DAFF2D0E0AD01E4A5F
:1005D8001F2A35D03FA007D01EC0D9FF1FC0DAFFA1
:1005E800200EDF6EF4D7C00E286E080E296E3FC0AD
:1005F8002AF040C02BF028502A1629502B16800EBE
:100608002A181DE1080E2B18D8A419D01EC0D9FF2E
:100618001FC0DAFF300EDF6E1E4A1F2A3FBA04D011
:10062800000E2E6E780E03D0000E2E6E580E2D6E14
:100638001EC0D9FF1FC0DAFF2DC0DFFFC8D73C504E
:100648003D10D8B404D11EC0D9FF1FC0DAFF300E48
:10065800DF6E1E4A1F2A3C06D8A03D06F0D73C5044
:100668003D10D8A43FB60FD01EC0D9FF1FC0DAFF77
:10067800200EDF6E1E4A1F2A3C06D8A03D063C50BD
:100688003D10D8A4F1D7030E3F14286E000E401475
:10069800296E28502910D8B409D01EC0D9FF1FC010
:1006A800DAFF2D0E0AD01E4A1F2A09D03FA007D014
:1006B8001EC0D9FF1FC0DAFF200EDF6EF4D7C00EB0
:1006C800286E080E296E3FC02AF040C02BF0285033
:1006D8002A1629502B16400E2A180BE1080E2B1843
:1006E800D8A407D01EC0D9FF1FC0DAFF300EDF6EB6
:1006F800ACD0C00E286E080E296E3FC02AF040C04C
:100708002BF028502A1629502B16800E2A1803E1A0
:10071800080E2B18D8A49BD01EC0D9FF1FC0DAFF23
:10072800300EDF6E1E4A1F2A3FBA04D0000E306E0C
:10073800780E03D0000E306E580E2F6E1EC0D9FFF3
:100748001FC0DAFF2FC0DFFF80D03B50020D0B0E19
:10075800F324F66E7E0EF420F76E0900F5CF14F040
:100768000A00F5CF15F039C012F03AC013F0D1ECF9
:1007780009F012C019F013C01AF0000E1C6E0A0E10
:100788001B6E1FEC0AF0195049D039C012F03AC05C
:1007980013F03B50020D150EF324F66E7E0EF42076
:1007A800F76E0900F5CF14F00A00F5CF15F0D1EC7B
:1007B80009F012500F0B2C6E3FBA04D0CA0E316EDE
:1007C8007E0E03D0B90E316E7E0E326E2C50010DA6
:1007D80031C028F032C029F0F3502826F4502922DD
:1007E80028C0F6FF29C0F7FF0800F5CF3EF027D054
:1007F80039C012F03AC013F03B50020DFF0EF3243B
:10080800F66E7D0EF420F76E0900F5CF14F00A009D
:10081800F5CF15F0D1EC09F01250070B300F3E6EF2
:100828000ED03F50C00B000AD8B48FD7400AD8B4B6
:10083800DFD7C00AD8B4A9D7400AD8B486D71EC013
:10084800D9FF1FC0DAFF3EC0DFFF1E4A1F2A3B0642
:100858003B28D8A4E6D73FB63DBE14D03D5003E1AF
:100868003C04D8A00FD01EC0D9FF1FC0DAFF200E4D
:10087800DF6E1E4A1F2A3C06D8A03D063C503D109C
:10088800D8A4F1D720C0F6FF21C0F7FF204A212ABB
:100898000800F5CF3EF03E50D8A40FEF00F01EC080
:1008A800D9FF1FC0DAFF000EDF6E120082EC0CF0D9
:1008B80072EC0CF0DFEC0BF035EC0CF062EC0CF0A9
:1008C800A3EC07F0CDEC0BF0E2EC06F0010E9BEC8C
:1008D8000AF0000E176E000E40EC0AF0D00E176EEC
:1008E8007F0E186EFFEC08F00B0E156EB80E146E26
:1008F80041EC0CF0010E9BEC0AF08AEC0CF0000EB7
:100908004F6E9A0E126E020E136E000E156E000ECA
:10091800146E000E176E320E166E66EC0BF0EEECCF
:1009280007F025C0E7F226C0E8F2CE0E126E020EDE
:10093800136EE7C214F0E8C215F038EC0BF0000EA5
:10094800156E0A0E146E41EC0CF0000E176E000EB8
:1009580040EC0AF0E20E1E6E020E1F6EF20E206EC2
:100968007F0E216E020120EE08F0E751D926E851EA
:10097800DA22DF50476E4750226E236A09EC00F0F6
:10098800E20E176E020E186EFFEC08F0000E176EDE
:10099800040E40EC0AF0E20E1E6E020E1F6EF20EFE
:1009A800206E7F0E216E020120EE09F0E751D92654
:1009B800E851DA22DF50476E4750226E236A09EC6D
:1009C80000F0E20E176E020E186EFFEC08F0E7C298
:1009D80024F0E8C225F044EC07F0A1D780D01F50DE
:1009E8002010D8B409D01FC01AF020C01BF0060E82
:1009F8001C6ED1EC0AF0120021501F241A6E2250EE
:100A080020201B6E060E1C6ED1EC0AF01200740E2C
:100A18001F5C060E2058D8B009D01FC01AF020C09D
:100A28001BF00A0E1C6ED1EC0AF0120021501F2494
:100A38001A6E225020201B6E0A0E1C6ED1EC0AF092
:100A48001200D10E1F5C070E2058D8B009D01FC065
:100A58001AF020C01BF00E0E1C6ED1EC0AF012002A
:100A680021501F241A6E225020201B6E0E0E1C6E61
:100A7800D1EC0AF01200BB0E1F5C060E2058D8B04D
:100A880009D01FC01AF020C01BF0120E1C6ED1EC4A
:100A98000AF0120021501F241A6E225020201B6ECB
:100AA800120E1C6ED1EC0AF012002D0E1F5C060E01
:100AB8002058D8B009D01FC01AF020C01BF0160E5D
:100AC8001C6ED1EC0AF0120021501F241A6E22501D
:100AD80020201B6E160E1C6ED1EC0AF0120023505B
:100AE800000AD8B47CD7010AD8B491D7030AD8B47D
:100AF800A8D7010AD8B4BFD7070AD8A41200D5D7F7
:100B08000101DC6F23EE00F011EE78F0630EDBCF0D
:100B1800E3FFE806FCE22ED0780E1E6E010E1F6E73
:100B28005D0E206E7F0E216EEA0E226E7F0E236E02
:100B380041C024F042C025F043C026F044C027F04D
:100B480009EC00F01FD0780E1E6E010E1F6E5D0EB0
:100B5800206E7F0E216EEE0E226E7F0E236E41C038
:100B680024F042C025F043C026F044C027F009EC29
:100B780000F008D00101DC51000AD8B4CDD7010A31
:100B8800D8B4E1D746BE06D0465017E1050E455CFD
:100B9800D8B013D0000E1E6E010E1F6E920E206E7E
:100BA8007E0E216E45C022F046C023F0780E246EDA
:100BB800010E256E09EC00F00ED0000E1E6E010E1F
:100BC8001F6EDB0E206E7E0E216E780E226E010ED9
:100BD800236E09EC00F0000E256E010E266EBA0E8B
:100BE800276E7F0E286EC90E296E7F0E2A6E000EA4
:100BF8002C6E5A0E2B6E7EEC06F012000600FACF11
:100C080003F0FBCF04F0E9CF05F0EACF06F0E1CF1F
:100C180007F0E2CF08F0D9CF09F0DACF0AF0F3CF26
:100C28000BF0F4CF0CF0F6CF0DF0F7CF0EF0F8CFB5
:100C38000FF0F5CF10F09EAA38D0AECF11F0020118
:100C4800CC517F0B016E310E01602ED00201CC51C8
:100C58007F0B016E0150010D9A0EF324D96E020E1E
:100C6800F420DA6E11C0DFFF010E016E0201CC51D3
:100C78007F0B026E015002260201CC510218800B34
:100C880002180201CC6F0201CC517F0B016E01509A
:100C9800010D9A0EF324D96E020EF420DA6EDF509D
:100CA800D8A402D00201CC8F9E9A9EA205D0484AB1
:100CB800492A4A4A4B2A9E9210C0F5FF0FC0F8FFF6
:100CC8000EC0F7FF0DC0F6FF0CC0F4FF0BC0F3FF1A
:100CD8000AC0DAFF09C0D9FF08C0E2FF07C0E1FF78
:100CE80006C0EAFF05C0E9FF04C0FBFF03C0FAFF26
:100CF80059921100000E4D6E000E4C6E0201CC91FF
:100D0800CC93CC95CC97CC99CC9BCC9D25C012F09C
:100D180026C013F03DEC09F027502810D8A406D0BF
:100D280029502A10D8A402D0010E12002BC014F0AA
:100D38002CC015F041EC0CF027502810D8B422D064
:100D480029502A10D8B41ED0010E2D6E9A0E216E8D
:100D5800020E226E27C023F028C024F07CEC08F095
:100D680021660ED09A0E216E020E226E29C023F043
:100D78002AC024F07CEC08F0216602D0000E2D6E0B
:100D88002D50120027502810D8B40CD09A0E216E7E
:100D9800020E226E27C023F028C024F07CEC08F055
:100DA800215012009A0E216E020E226E29C023F0E5
:100DB8002AC024F07CEC08F021501200A7EC0BF0BC
:100DC8007CEC0BF0760E256E7F0E266EB70E276E26
:100DD8007F0E286E000E296E000E2A6E010E2C6EF4
:100DE800F40E2B6E7EEC06F007EC0BF0E60E416E6F
:100DF8007F0E426E810E436E7F0E446EFAEC09F050
:100E08000009D8B4F3D7FB0E256E7E0E266EB70EFA
:100E1800276E7F0E286E000E296E000E2A6E010EB8
:100E28002C6EF40E2B6E7EEC06F00009D8B4EBD7CE
:100E38000A0E256E7F0E266EB70E276E7F0E286E61
:100E4800000E296E000E2A6E010E2C6EF40E2B6E0B
:100E58007EEC06F00009D8B4EBD76A0E416E7F0E1F
:100E6800426EE10E436E7F0E446E000E466E070E14
:100E7800456E000E84EC05F00009D8A41200EDD7E9
:100E880020EE09F02450D9262550DA22870EDF6497
:100E980020D0F00E266EFE0E276E20EE09F02450AC
:100EA800D9262550DA22DF50286E296AD8902836AC
:100EB800293626502826275029220B0E2824F66E7C
:100EC800790E2920F76E0900F5CF2CF00A00F5CF2E
:100ED8002DF020EE08F02450D9262550DA22680E8D
:100EE800DF6420D02E0E266EFF0E276E20EE08F04F
:100EF8002450D9262550DA22DF50286E296AD89046
:100F0800283629362650282627502922B70E282485
:100F1800F66E750E2920F76E0900F5CF2AF00A0043
:100F2800F5CF2BF02AC01FF02BC020F02CC021F0E9
:100F38002DC022F0040E236EF2EC04F01200000E15
:100F4800836E000E956E000E156E0F0E146E41EC3A
:100F58000CF0300E9BEC0AF0000E156E050E146EA8
:100F680041EC0CF0300E9BEC0AF0000E156E050EED
:100F7800146E41EC0CF0320E9BEC0AF020EC0BF0F6
:100F88000009D8A4FBD7280E9BEC0AF020EC0BF044
:100F98000009D8A4FBD7080E9BEC0AF020EC0BF054
:100FA8000009D8A4FBD70C0E9BEC0AF020EC0BF040
:100FB8000009D8A4FBD7010E9BEC0AF0060E9BECA7
:100FC8000AF020EC0BF00009D8A4FBD7010E9BEC2B
:100FD8000AF01200000E276E000E286E0201CC9156
:100FE800CC93CC95CC97CC99CC9BCC9D9A0E216E6A
:100FF800020E226EFA0E236E7F0E246E7CEC08F031
:101008002150D8B4F3D70201CC91CC93CC95CC978E
:10101800CC99CC9BCC9D0201CC9F9A0E216E020EDE
:10102800226EF80E236E7F0E246E7CEC08F02150A1
:101038002210D8B4F2D79A0E216E020E226EF80E44
:10104800236E7F0E246E7CEC08F021502210D8B459
:1010580004D09A0E276E020E286E27C025F028C0ED
:1010680026F012002E6E39D0180E256E7F0E266ED1
:10107800B70E276E7F0E286E000E296E000E2A6EA0
:10108800090E2C6EC40E2B6E7EEC06F01200340E88
:10109800256E7F0E266EB70E276E7F0E286E000E09
:1010A800296E000E2A6E090E2C6EC40E2B6E7EEC75
:1010B80006F01200420E256E7F0E266EB70E276EC2
:1010C8007F0E286E000E296E000E2A6E090E2C6EF9
:1010D800C40E2B6E7EEC06F012002E50000AD8B417
:1010E800C3D7010AD8B4D3D7030AD8A41200E2D7C9
:1010F80031D021C018F022C019F023C01AF024C042
:101108001BF023C012F024C013F05FEC0AF012C0E9
:101118001CF013C01DF0BEEC08F018501910D8A42C
:1011280005D021C021F022C022F01200010E212496
:10113800126E000E2220136E23C0F6FF24C0F7FFA4
:101148000800F550146E156AB6EC0AF012C021F0CA
:1011580013C022F021502210D8B407D021C0D9FFE3
:1011680022C0DAFFDF50D8A4C4D7000E216E000ECB
:10117800226E120033D018C0D9FF19C0DAFFDF5031
:10118800D8B40FD018C0D9FF19C0DAFFDF501E6ECF
:101198001AC0F6FF1BC0F7FF0800F5501E18D8B498
:1011A80019D01AC0F6FF1BC0F7FF0800F5501E6ED5
:1011B8001F6A1E1E1F1E1E4A1F2A18C0D9FF19C0EB
:1011C800DAFFDF50206E20501E24186E000E1F20FC
:1011D800196E1200184A192A1A4A1B2A1C06D8A086
:1011E8001D061C28C8E11D28D8A4C5D7000E196EF5
:1011F800000E186E1200000E1B6E1DD01B50010D44
:1012080017C019F018C01AF0F3501926F4501A2212
:1012180019C0F6FF1AC0F7FFF86A050EF76403D085
:101228000800F55005D0F6CFE9FFF7CFEAFFEF50F9
:1012380092EC0BF01B2A1B50010D17C019F018C0B7
:101248001AF0F3501926F4501A2219C0F6FF1AC0E2
:10125800F7FFF86A050EF76403D00800F55005D0CB
:10126800F6CFE9FFF7CFEAFFEF500009D8B4120034
:10127800C5D716681768164A172A9EA8FED71650AB
:101288001224146E17501320156E14C0F6FF15C0E3
:10129800F7FFF86A050EF76403D00800F55005D08B
:1012A800F6CFE9FFF7CFEAFFEF50AD6E16501224E4
:1012B800146E17501320156E14C0F6FF15C0F7FFF3
:1012C800F86A050EF76403D00800F55005D0F6CF8C
:1012D800E9FFF7CFEAFFEF500009D8A4CCD7ACB2AA
:1012E8001200FDD7FC0EF66E180EF76E000EF86EA3
:1012F80000EE51F010EE08F00900F5CFEEFFE550D2
:10130800E150FAE103EE00F0640EEE6AE806FDE152
:1013180002EE00F0CE0EEE6AE806FDE101EEDDF029
:101328001E0EEE6AE806FDE100EE48F0090EEE6AD0
:10133800E806FDE159905992000EF86E00015AEF47
:1013480004F0166E93908192000E176E070E1764C4
:1013580001D01200156A16AE01D0152A010E151615
:1013680081501518FE0B1518816ED8901636000E90
:10137800146E020E136E57EC0CF08182000E146E80
:10138800020E136E57EC0CF08192000E146E020ED2
:10139800136E57EC0CF0172AD9D7000E186E000EF2
:1013A800176E14501510D8B41CD0010E166E04D048
:1013B800D89014361536162A15AEFAD7D89017369F
:1013C80018361450125C15501358D8A005D0145074
:1013D800125E1550135A1780D89015321432162EF3
:1013E800EDD717C012F018C013F01200800E1E6E51
:1013F800000E1F6E7D0E206E7E0E216E41C022F003
:1014080042C023F043C024F044C025F009EC00F0AA
:10141800800E256E000E266EB70E276E7F0E286E84
:101428009F0E296E7F0E2A6E3A0E2C6E980E2B6E2A
:101438007EEC06F012001B501C10D8B418D0010E18
:101448001D6E04D0D8901B361C361D2A1CAEFAD748
:101458001B50195C1C501A58D8A004D01B50195E98
:101468001C501A5AD8901C321B321D2EF1D719C0A5
:1014780019F01AC01AF012001C6E020E1760120042
:101488000F0E1C6401D012001704D8B402D0800ECD
:1014980001D0C00E1CC018F0196A18101A6E195025
:1014A8001B6E1A509BEC0AF0000E156E050E146E9A
:1014B80041EC0CF0120012C016F013C017F002D065
:1014C800164A172A16C0F6FF17C0F7FF0800F5508E
:1014D8000009D8A4F5D712C014F013C015F0141ED3
:1014E800151E144A152A16501424126E175015206A
:1014F800136E1200000E156E93808180000E146E1C
:10150800010E136E57EC0CF08182000E146E010E62
:10151800136E57EC0CF007D0152AFA0E156403D099
:10152800F1EC0BF0120081B0F7D781921200166E21
:10153800000E156E050E146E41EC0CF0000E126EC6
:1015480016504FEC0BF01638F00B166E000E156E99
:10155800010E146E41EC0CF0000E126E16504FEC9A
:101568000BF0120012C0D9FF13C0DAFF1450DE18B6
:10157800D8A405D012C012F013C013F0120012C084
:10158800D9FF13C0DAFF124A132ADF50D8A4EAD7CA
:10159800000E126E000E136E12001AC01EF01B50C1
:1015A8001D6E000E186E1C50ECEC0AF0000E186E42
:1015B8001C28ECEC0AF01EC018F01C50020FECECD2
:1015C8000AF01DC018F01C50030FECEC0AF01200D2
:1015D800196E03EC0CF0800EA5EC09F07EEC0AF015
:1015E8001950A5EC09F07EEC0AF01850A5EC09F0AA
:1015F8007EEC0AF0F1EC0BF0000E156E0A0E146E7C
:1016080041EC0CF01200000E36EC08F0500E256E7E
:101618007F0E266E8B0E276E7F0E286EB70E296EF4
:101628007F0E2A6E000E2C6E640E2B6E7EEC06F07A
:101638000009D8A41200EAD78390838286EC0CF0C4
:10164800838486EC0CF0958E83AE07D083948384D4
:1016580083948392959E010E1200839483848394CD
:101668008392959E000E120012C016F013C017F058
:1016780004D0164A172A144A152A14C0D9FF15C0CF
:10168800DAFF16C0E1FF17C0E2FFDFCFE7FFE75040
:10169800D8B41200EED7136E13380F0B136E135015
:1016A8000F0B136E83500F0B836E1338F00B8310E0
:1016B800836E12B002D0839001D08380839283849A
:1016C8008394120012C018F013C019F008D018C083
:1016D800D9FF19C0DAFF14C0DFFF184A192A160605
:1016E800D8A017061628F3E11728D8B41200EFD7A8
:1016F800DC0E256E7F0E266EB70E276E7F0E286EC7
:10170800000E296E000E2A6E000E2C6EC80E2B6E6F
:101718007EEC06F00009D8A41200EAD7166E000E77
:10172800156E050E146E41EC0CF0010E126E16507B
:101738004FEC0BF01638F00B166E010E126E1650A9
:101748004FEC0BF01200A90E256E7F0E266EB70E19
:10175800276E7F0E286ED60E296E7F0E2A6E090E12
:101768002C6EC40E2B6E7EEC06F012001250140282
:10177800F3CF16F0F4CF17F012501502F3501726D6
:1017880013501402F350172616C012F017C013F0A6
:101798001200AC98AC9CAB8E9D98AC8AD08EF28E21
:1017A800F28CAB889D8AAB9CAC84B886000EB06E78
:1017B800560EAF6E120015EC0CF0110E186E000EDE
:1017C800ECEC0AF0150E186EFE0EECEC0AF0010EA9
:1017D800186E000EECEC0AF0120093908192819042
:1017E800000E146E040E136E57EC0CF08182000E7E
:1017F800146E040E136E57EC0CF081801200939057
:1018080081808182000E146E040E136E57EC0CF06A
:101818008190000E146E040E136E57EC0CF081923A
:101828001200939293908182000E146E020E136E32
:1018380057EC0CF08180000E146E020E136E57ECFC
:101848000CF01200146E000E136E3A0E146005D0E0
:101858002F0E146402D0010E136E13C012F0123052
:101868001200F90ECB6ECA50870B4809CA6ECA50CF
:10187800FC0B0109CA6ECA841200010E4CEC0CF074
:101888001406D8A0150614501510D8B41200F5D7B0
:10189800136E0D0E126EFC0EE82EFED7122EFCD71C
:1018A800132EF7D71200010E6AEC0CF01306D8A01D
:1018B800140613501410D8B41200F5D7D08EF28E37
:1018C800F28CF29AF2949D829E921200126E030E8E
:1018D800E82EFED700F0122EFAD71200000E956EF1
:1018E800000E8C6E929089901200126E00F0122EEB
:1018F800FDD712001F11111F11111F00D394D3908F
:0E190800D3921200120E79EC0CF012001200B5
:1074800000E1020000000000000000000000000019
:1074900000000000000000000000000000000000EC
:1074A00000000000000000000000000000000000DC
:1074B00000000000000000000000000000000000CC
:1074C00000000000000000000000000000000000BC
:1074D00000000000000000000000000000000000AC
:1074E000000000000000000000000000000000009C
:1074F000000000000000000000000000000000008C
:10750000000000000000000000000000000000007B
:10751000000000000000000000000000000000006B
:10752000000000000000000000000000000000005B
:10753000000000000000000000000000000000004B
:10754000000000000000000000000000000000003B
:10755000000000000000000000000000000000002B
:10756000000000000000000000000000000000001B
:10757000000000000000000000000000000000000B
:1075800000000000000000000000000000000000FB
:1075900000000000000000000000000000000000EB
:1075A00000000000000000000000000000000000DB
:1075B00000000000000000E102E702ED02F302F922
:1075C00002FF0205030B03110317031D0323032905
:1075D000032F0335033B03410347034D0353035973
:1075E000035F0365036B03710377037D03830389E3
:1075F000038F0395039B03A103A703AD03B303B953
:1076000003BF03C603CC03D203D803DE03E403EABB
:1076100003F003F603FC03020408040E0414041A26
:1076200004200426042C04320438043E0444044A92
:1076300004500456045C04620468046E0474047A02
:1076400004800486048C04920498049E04A504AB70
:1076500004B104B704BD04C304C904CF04D504DBDA
:1076600004E104E704ED04F304F904FF0405050B49
:1076700005110517051D05230529052F0535053BB2
:1076800005410547054D05530559055F0565056B22
:1076900005710577057D0583058A05900596059C8E
:1076A00005A205A805AE05B405BA05C005C605CCFA
:1076B00005D205D805DE05E405EA05F005F605FC6A
:1076C00005020608060E0614061A06200626062CD3
:1076D00006320638063E0644064A06500656065C42
:1076E0000662066906E102E802EF02F702FE020501
:1076F000030D0314031C0323032A0332033903403D
:107700000348034F0357035E0365036D0374037B54
:107710000383038A0392039903A003A803AF03B76B
:1077200003BE03C503CD03D403DB03E303EA03F283
:1077300003F903000408040F0416041E0425042D95
:107740000434043B0443044A0451045904600468AB
:10775000046F0476047E0485048D0494049B04A3C2
:1077600004AA04B104B904C004C804CF04D604DEDA
:1077700004E504EC04F404FB0403050A05110519EF
:1077800005200527052F0536053E0545054C055402
:10779000055B0563056A0571057905800587058F19
:1077A0000596059E05A505AC05B405BB05C205CA31
:1077B00005D105D905E005E705EF05F605FD050549
:1077C000060C0614061B0622062A06310639064058
:1077D0000647064F0656065D0665066C0674067B70
:1077E0000682068A0691069806A006A706AF06B688
:1077F00006BD06C506CC06D306DB06E206EA06F1A0
:1078000006F806000707070F07E102EB02F6020180
:10781000030B03160321032B03360341034C0356CA
:107820000361036C03760381038C039703A103AC0C
:1078300003B703C103CC03D703E203EC03F703024E
:10784000040C04170422042D04370442044D045789
:107850000462046D04780482048D049804A204ADCB
:1078600004B804C204CD04D804E304ED04F804030E
:10787000050D05180523052E05380543054E055849
:107880000563056E05790583058E059905A305AE8B
:1078900005B905C405CE05D905E405EE05F90504CD
:1078A000060F06190624062F06390644064F065A07
:1078B0000664066F067A0684068F069A06A406AF4B
:1078C00006BA06C506CF06DA06E506EF06FA06058D
:1078D0000710071A07250730073A07450750075BC7
:1078E00007650770077B07850790079B07A607B00A
:1078F00007BB07C607D007DB07E607F107FB07064C
:107900000811081B08260831083C08000007000F72
:107910000017001F0027002F0036003E0046004ED3
:107920000056005E0066006D0075007D0085008DCC
:107930000095009C00A400AC00B400BC00C400CCC6
:1079400000D300DB00E300EB00F300FB0003010ABF
:107950000112011A0122012A0132013901410149B2
:1079600001510159016101690170017801800188AB
:1079700001900198019F01A701AF01B701BF01C7A5
:1079800001CF01D601DE01E601EE01F601FE01069E
:10799000020D0215021D0225022D0235023C024491
:1079A000024C0254025C0264026C0273027B02838A
:1079B000028B0293029B02A202AA02B202BA02C284
:1079C00002CA02D202D902E102E902F102F902017D
:1079D0000309031003180320032803300338033F6F
:1079E0000347034F0357035F0367036F0376037E69
:1079F0000386038E0396039E03A603E102E902F2C7
:107A000002FA0203030C0314031D0325032E03379C
:107A1000033F0348035103590362036A0373037C62
:107A20000384038D0396039E03A703AF03B803C12A
:107A300003C903D203DB03E303EC03F403FD0306F2
:107A4000040E041704200428043104390442044BB2
:107A50000453045C0465046D0476047E048704907A
:107A6000049804A104AA04B204BB04C304CC04D542
:107A700004DD04E604EF04F7040005080511051A07
:107A80000522052B0534053C0545054D0556055FCA
:107A90000567057005790581058A0592059B05A492
:107AA00005AC05B505BE05C605CF05D705E005E95A
:107AB00005F105FA0503060B0614061C0625062E1D
:107AC0000636063F0648065006590661066A0673E2
:107AD000067B0684068D0695069E06A606AF06B8AA
:107AE00006C006C906D20600000200050007000A0B
:107AF000000C000F0011001400160019001C001EDD
:107B00000021002300260028002B002D0030003328
:107B100000350038003A003D003F00420044004775
:107B2000004A004C004F0051005400560059005BC1
:107B3000005E0061006300660068006B006D00700D
:107B4000007200750078007A007D007F008200845A
:107B500000870089008C008F0091009400960099A6
:107B6000009B009E00A000A300A500A800AB00ADF4
:107B700000B000B200B500B700BA00BC00BF00C240
:107B800000C400C700C900CC00CE00D100D300D68D
:107B900000D900DB00DE00E000E300E500E800EAD9
:107BA00000ED00F000F200F500F700FA00FC00FF25
:107BB0000001010401070109010C010E011101136B
:107BC00001160118011B011E010000000000000049
:107BD00000000000000000000000000000000000A5
:107BE0000000000000000000000000000000000095
:107BF0000000000000000000000000000000000085
:107C00000000000000000000000000000000000074
:107C10000000000000000000000000000000000064
:107C20000000000000000000000000000000000054
:107C30000000000000000000000000000000000044
:107C40000000000000000000000000000000000034
:107C50000000000000000000000000000000000024
:107C60000000000000000000000000000000000014
:107C70000000000000000000000000000000000004
:107C800000000000000000000000000000000000F4
:107C900000000000000000000000000000000000E4
:107CA00000000006000D0013001A00210027002E1E
:107CB0000035003B00420049004F0056005D006364
:107CC000006A00710077007E0085008B00920099A9
:107CD000009F00A600AD00B300BA00C100C700CEEF
:107CE00000D500DB00E200E900EF00F600FD000334
:107CF000010A01110117011E0125012B0132013971
:107D0000013F0146014D0153015A01610167016EB6
:107D10000175017B01820189018F0196019D01A3FB
:107D200001AA01B101B701BE01C501CB01D201D940
:107D300001DF01E601ED01F301FA01010207020E84
:107D40000215021B02220229022F0236023D0243C3
:107D5000024A02510257025E0265026B0272027908
:107D60000200000B00170022002E003900450051D0
:107D7000005C00680073007F008A009600A200ADDE
:107D800000B900C400D000DB00E700F300FE000AE9
:107D900001150121012D01380144014F015B0166EC
:107DA0000172017E0189019501A001AC01B701C3F7
:107DB00001CF01DA01E601F101FD01080214022000
:107DC000022B02370242024E025A02650271027C05
:107DD00002880293029F02AB02B602C202CD02D910
:107DE00002E402F002FC02070313031E032A033518
:107DF0000341034D03580364036F037B03870301AF
:107E0000000800400000020010008001000A006429
:107E100000E8031027010010000001001041542B5E
:107E200043575341503D222573222C222573222C87
:107E3000312C25730D0A0041542B554152543D31CC
:107E400031353230302C382C312C302C300D0A00AA
:107E500041542B554152543D393630302C382C3159
:107E60002C302C300D0A0041542B434950534552BD
:107E70005645523D312C353030300D0A0041542BDF
:107E800043574A41503D222573222C222573220D4F
:107E90000A0041542B43495053544152543D2564E8
:107EA0002C25730D0A0041542B43495053454E4431
:107EB0003D25642C25640D0A0030313233343536CB
:107EC0003738394142434445460030313233343546
:107ED000363738396162636465660041542B434923
:107EE0005053544152543D25730D0A0041542B43C5
:107EF00049504D4F44453D300D0A0041542B4349F4
:107F0000504D4F44453D310D0A0041542B434950DB
:107F10004D55583D300D0A0041542B43574D4F44A9
:107F2000453D310D0A0041542B4349504D55583DB4
:107F3000310D0A0041542B43574D4F44453D320DFE
:107F40000A0041542B43574D4F44453D330D0A0021
:107F500041542B43574D4F44453F0D0A0022257392
:107F6000222C222573222C2573003139322E3136F2
:107F7000382E342E310041542B43575141500D0AB5
:107F8000007A7834353232333331002B43574D4F3A
:107F900044453A31002B43574D4F44453A32004354
:107FA0004F4E4E45435445440041542B5253540DBB
:107FB0000A0053454E44204F4B00434F4E4E45431D
:107FC0005400286E756C6C2900414C524541590093
:107FD00048656C6C6F0072656164790041540D0AEC
:107FE0000035303030004B454E005443500055446E
:0F7FF00050002564003E200000002100340000F6
:020000040020DA
:08000000FFFFFFFFFFFFFFFF00
:020000040030CA
:0E000000FF061F1EFF8081FF0FC00FE00F40A4
:00000001FF
