:0400000007EF00F016
:1000080052823FED07F075EF0AF0220E376E000EB0
:10001800386E46EF04F0250E3E18D8B40AD01EC03C
:10002800D9FF1FC0DAFF3EC0DFFF1E4A1F2A46EF76
:1000380004F0000E3D6E000E3C6E000E406E000E89
:100048003F6E09D03F8605D03F8003D0408601D05F
:100058003F84204A212A20C0F6FF21C0F7FF08006C
:10006800F550200AD8B4F0D7030AD8B4EFD70E0A4F
:10007800D8B4E8D71D0AD8B4EBD73FB63F9420C010
:10008800F6FF21C0F7FF0800F5500BEC0CF0D8A0E4
:1000980033D0000E3D6E000E3C6E3CC012F03DC0E9
:1000A80013F0000E156E0A0E146E9FEC0BF012C0C2
:1000B8003CF013C03DF0D00E286EFF0E296E20C014
:1000C800F6FF21C0F7FF0800F5502A6E2B6A28506A
:1000D8002A2629502B222A503C262B503D22204AE2
:1000E800212A20C0F6FF21C0F7FF0800F5500BECCD
:1000F8000CF0D8A018D0D1D720C0F6FF21C0F7FF48
:100108000800F5502A0AD8A40ED037C0D9FF38C045
:10011800DAFFDECF3CF0DDCF3DF0020E3726000ED1
:100128003822204A212A20C0F6FF21C0F7FF080004
:10013800F5502E0AD8A436D0408C204A212A20C057
:10014800F6FF21C0F7FF0800F5502A0AD8A40DD001
:1001580037C0D9FF38C0DAFFDF503B6E020E3726B2
:10016800000E3822204A212ADBD0000E3B6E0FD029
:1001780020C0F6FF21C0F7FF0800F5CF28F03B505C
:100188000A0DF3502824D00F3B6E204A212A20C0A4
:10019800F6FF21C0F7FF0800F5500BEC0CF0D8A0D3
:1001A800BFD0E6D7000E3B6EBBD03F8CE2D0408A72
:1001B8003F8A3F8EDED037C0D9FF38C0DAFFDECFA6
:1001C80033F0DDCF34F0020E3726000E38223350DC
:1001D8003410D8A404D0CC0E336E7F0E346E000ECB
:1001E800366E000E356E02D0354A362A3550332425
:1001F800286E36503420296E28C0F6FF29C0F7FF34
:10020800F86A050EF76403D00800F55005D0F6CF5C
:10021800E9FFF7CFEAFFEF500009D8A4E5D73B5034
:10022800D8B410D03BC028F0296A28BE290635501A
:10023800285C36502958D8B005D03B50356E366A00
:1002480035BE36063C50355C3D503658D8B005D0E2
:1002580035503C5E36503D5A04D0000E3D6E000EBF
:100268003C6E3FA609D02AD01EC0D9FF1FC0DAFFB6
:10027800200EDF6E1E4A1F2A3C06D8A03D063C28E9
:10028800F3E13D28D8B41AD0EFD733C0F6FF34C015
:10029800F7FFF86A1EC0D9FF1FC0DAFF050EF76422
:1002A80003D00800F55005D0F6CFE9FFF7CFEAFFF5
:1002B800EF50DF6E334A342A1E4A1F2A3506D8A06B
:1002C80036063528E2E13628D8A4DFD73FB609D06C
:1002D800D9D21EC0D9FF1FC0DAFF200EDF6E1E4A1A
:1002E8001F2A3C06D8A03D063C28F3E13D28D8B497
:1002F800C9D2EFD737C0D9FF38C0DAFFDF503E6E1A
:10030800020E3726000E38223E0E336E000E346E73
:10031800000E366E010E356E82D7C00E3F1229D000
:1003280020C0F6FF21C0F7FF204A212A0800F5CF98
:100338003EF03E50000AD8B4B2D2580AD8B438D7E2
:100348003B0AD8B4D7D7070AD8B413D00D0AD8B403
:1003580010D0060AD8B429D71F0AD8B428D7030A58
:10036800D8B429D7060AD8B4D8D70D0AD8B421D713
:10037800CBD7C00E3F14286E000E4014296E2850AB
:100388002910D8A415D037C0D9FF38C0DAFFDECF7E
:1003980039F0DDCF3AF0020E3726000E38223AAE99
:1003A80013D0030E3F12396C3A1ED8B03A2A0CD03B
:1003B80037C0D9FF38C0DAFFDECF39F0DDCF3AF0E9
:1003C800020E3726000E38223B50D8A44ED03950A2
:1003D8003A10D8A44AD03B2A48D0010E3E6E050EEA
:1003E8003E18D8B450D03E50020D150EF324F66EC8
:1003F8007E0EF420F76E0900F550395C0900F550BF
:100408003A58D8A040D03E2AEAD7010E3E6E040ED4
:100418003E18D8B438D03E50020D1F0EF324F66EA5
:100428007E0EF420F76E0900F550395C0900F5508E
:100438003A58D8A028D03E2AEAD7010E3E6E060EBA
:100448003E18D8B420D03E50020D090EF324F66EA3
:100458007E0EF420F76E0900F550395C0900F5505E
:100468003A58D8A010D03E2AEAD73F50C00B000A0D
:10047800D8B4B3D7400AD8B4E0D7C00AD8B4C5D7DF
:10048800400AD8B4AAD73E50800A286E3B50800A4A
:10049800285CD8B003D03BC03EF009D03B50800A5E
:1004A800286E3E50800A285CD8A03EC03BF03C50E5
:1004B8003D10D8B40DD0030E3F14286E000E401422
:1004C800296E28502910D8B403D03C06D8A03D0680
:1004D80040AC16D0800E3BBE7F0E286E3C503B5C75
:1004E8003D50800A2858D8B007D03B503C5E000EDB
:1004F8003BBEFF0E3D5A04D0000E3D6E000E3C6E12
:10050800C40E286E080E296E3FC02AF040C02BF09A
:1005180028502A1629502B16400E2A180CE1080ECE
:100528002B18D8A408D03C503D10D8B428D03C068D
:10053800D8A03D0624D0C00E286E080E296E3FC0F4
:100548002AF040C02BF028502A1629502B16800E6E
:100558002A1815E1080E2B18D8A411D03DBE0BD0CF
:100568003D5004E1030E3C5CD8A005D0FE0E3C26AD
:10057800FF0E3D2204D0000E3D6E000E3C6E800E34
:100588003EBE7F0E286E3C503E5C3D50800A285887
:10059800D8B007D03E503C5E000E3EBEFF0E3D5A1E
:1005A80004D0000E3D6E000E3C6E3FA458D0030EE2
:1005B8003F14286E000E4014296E28502910D8B414
:1005C80009D01EC0D9FF1FC0DAFF2D0E0AD01E4A5F
:1005D8001F2A35D03FA007D01EC0D9FF1FC0DAFFA1
:1005E800200EDF6EF4D7C00E286E080E296E3FC0AD
:1005F8002AF040C02BF028502A1629502B16800EBE
:100608002A181DE1080E2B18D8A419D01EC0D9FF2E
:100618001FC0DAFF300EDF6E1E4A1F2A3FBA04D011
:10062800000E2D6E780E03D0000E2D6E580E2C6E17
:100638001EC0D9FF1FC0DAFF2CC0DFFFC8D73C504F
:100648003D10D8B404D11EC0D9FF1FC0DAFF300E48
:10065800DF6E1E4A1F2A3C06D8A03D06F0D73C5044
:100668003D10D8A43FB60FD01EC0D9FF1FC0DAFF77
:10067800200EDF6E1E4A1F2A3C06D8A03D063C50BD
:100688003D10D8A4F1D7030E3F14286E000E401475
:10069800296E28502910D8B409D01EC0D9FF1FC010
:1006A800DAFF2D0E0AD01E4A1F2A09D03FA007D014
:1006B8001EC0D9FF1FC0DAFF200EDF6EF4D7C00EB0
:1006C800286E080E296E3FC02AF040C02BF0285033
:1006D8002A1629502B16400E2A180BE1080E2B1843
:1006E800D8A407D01EC0D9FF1FC0DAFF300EDF6EB6
:1006F800ACD0C00E286E080E296E3FC02AF040C04C
:100708002BF028502A1629502B16800E2A1803E1A0
:10071800080E2B18D8A49BD01EC0D9FF1FC0DAFF23
:10072800300EDF6E1E4A1F2A3FBA04D0000E2F6E0D
:10073800780E03D0000E2F6E580E2E6E1EC0D9FFF5
:100748001FC0DAFF2EC0DFFF80D03B50020D150E10
:10075800F324F66E7E0EF420F76E0900F5CF14F040
:100768000A00F5CF15F039C012F03AC013F027ECA3
:100778000AF012C019F013C01AF0000E1C6E0A0E0F
:100788001B6E99EC0AF0195049D039C012F03AC0E2
:1007980013F03B50020D1F0EF324F66E7E0EF4206C
:1007A800F76E0900F5CF14F00A00F5CF15F027EC25
:1007B8000AF012500F0B326E3FBA04D0D40E306ECE
:1007C8007E0E03D0C30E306E7E0E316E3250010D98
:1007D80030C028F031C029F0F3502826F4502922DF
:1007E80028C0F6FF29C0F7FF0800F5CF3EF027D054
:1007F80039C012F03AC013F03B50020D090EF32431
:10080800F66E7E0EF420F76E0900F5CF14F00A009C
:10081800F5CF15F027EC0AF01250070B300F3E6E9B
:100828000ED03F50C00B000AD8B48FD7400AD8B4B6
:10083800DFD7C00AD8B4A9D7400AD8B486D71EC013
:10084800D9FF1FC0DAFF3EC0DFFF1E4A1F2A3B0642
:100858003B28D8A4E6D73FB63DBE14D03D5003E1AF
:100868003C04D8A00FD01EC0D9FF1FC0DAFF200E4D
:10087800DF6E1E4A1F2A3C06D8A03D063C503D109C
:10088800D8A4F1D720C0F6FF21C0F7FF204A212ABB
:100898000800F5CF3EF03E50D8A40FEF00F01EC080
:1008A800D9FF1FC0DAFF000EDF6E120020EE01F044
:1008B8002450D9262550DA22C70EDF6420D0700EC6
:1008C800266EFE0E276E20EE01F02450D926255004
:1008D800DA22DF50286E296AD89028362936265021
:1008E800282627502922990E2824F66E7D0E2920C5
:1008F800F76E0900F5CF34F00A00F5CF35F020EE99
:1009080003F02450D9262550DA229F0EDF6420D028
:10091800C00E266EFE0E276E20EE03F02450D92658
:100928002550DA22DF50286E296AD89028362936D1
:1009380026502826275029229D0E2824F66E7B0E45
:100948002920F76E0900F5CF36F00A00F5CF37F009
:1009580020EE05F02450D9262550DA228E0EDF64C9
:1009680020D0E20E266EFE0E276E20EE05F02450F3
:10097800D9262550DA22DF50286E296AD8902836E1
:1009880029362650282627502922BB0E2824F66E01
:100998007A0E2920F76E0900F5CF38F00A00F5CF56
:1009A80039F020EE07F02450D9262550DA22B00E6F
:1009B800DF6420D09E0E266EFE0E276E20EE07F016
:1009C8002450D9262550DA22DF50286E296AD8907B
:1009D8002836293626502826275029225D0E282415
:1009E800F66E7C0E2920F76E0900F5CF3AF00A0062
:1009F800F5CF3BF020EE09F02450D9262550DA2215
:100A0800870EDF6420D0F00E266EFE0E276E20EED5
:100A180009F02450D9262550DA22DF50286E296A99
:100A2800D890283629362650282627502922DF0E26
:100A38002824F66E780E2920F76E0900F5CF3CF0D1
:100A48000A00F5CF3DF024C0D9FF25C0DAFFB00E6B
:100A5800DF641ED09E0E266EFE0E276E24C0D9FFC0
:100A680025C0DAFFDF50286E296AD8902836293643
:100A78002650282627502922FB0E2824F66E7C0EA5
:100A88002920F76E0900F5CF2AF00A00F5CF2BF0E0
:100A980020EE02F02450D9262550DA22890EDF6490
:100AA80020D0EC0E266EFE0E276E20EE02F02450AB
:100AB800D9262550DA22DF50286E296AD8902836A0
:100AC80029362650282627502922CF0E2824F66EAC
:100AD800790E2920F76E0900F5CF2CF00A00F5CF22
:100AE8002DF020EE04F02450D9262550DA227E0E6F
:100AF800DF6420D0020E266EFF0E276E20EE04F073
:100B08002450D9262550DA22DF50286E296AD89039
:100B1800283629362650282627502922DD0E282453
:100B2800F66E770E2920F76E0900F5CF2EF00A0031
:100B3800F5CF2FF020EE06F02450D9262550DA22E2
:100B48006D0EDF6420D0240E266EFF0E276E20EE79
:100B580006F02450D9262550DA22DF50286E296A5B
:100B6800D890283629362650282627502922B90E0B
:100B78002824F66E760E2920F76E0900F5CF30F09E
:100B88000A00F5CF31F020EE08F02450D926255080
:100B9800DA22680EDF6420D02E0E266EFF0E276E36
:100BA80020EE08F02450D9262550DA22DF50286E8E
:100BB800296AD890283629362650282627502922EF
:100BC8008B0E2824F66E750E2920F76E0900F5CFD6
:100BD80032F00A00F5CF33F02AC01FF02BC020F006
:100BE80034C021F035C022F0000E236E2DEC06F043
:100BF8002CC01FF02DC020F036C021F037C022F0E5
:100C0800010E236E2DEC06F02EC01FF02FC020F031
:100C180038C021F039C022F0020E236E2DEC06F008
:100C280030C01FF031C020F03AC021F03BC022F0A4
:100C3800030E236E2DEC06F032C01FF033C020F0F7
:100C48003CC021F03DC022F0040E236E2DEC06F0CE
:100C5800120082D09D0E1F5C050E2058D8B009D016
:100C68001FC01AF020C01BF0060E1C6E11EC0BF012
:100C7800120021501F241A6E225020201B6E060ECF
:100C88001C6E11EC0BF01200740E1F5C060E20583F
:100C9800D8B009D01FC01AF020C01BF00A0E1C6E75
:100CA80011EC0BF0120021501F241A6E2250202044
:100CB8001B6E0A0E1C6E11EC0BF01200D10E1F5C9D
:100CC800070E2058D8B009D01FC01AF020C01BF05A
:100CD8000E0E1C6E11EC0BF0120021501F241A6E20
:100CE800225020201B6E0E0E1C6E11EC0BF0120011
:100CF800BB0E1F5C060E2058D8B009D01FC01AF0D2
:100D080020C01BF0120E1C6E11EC0BF012002150CB
:100D18001F241A6E225020201B6E120E1C6E11EC1E
:100D28000BF012002D0E1F5C060E2058D8B009D00B
:100D38001FC01AF020C01BF0160E1C6E11EC0BF031
:100D4800120021501F241A6E225020201B6E160EEE
:100D58001C6E11EC0BF012002350000AD8B47AD79D
:100D6800010AD8B491D7030AD8B4A8D7010AD8B4CD
:100D7800BFD7070AD8A41200D5D70101DC6F22EE2D
:100D880000F011EE78F0630EDBCFE3FFE806FCE23B
:100D98002ED0780E1E6E010E1F6E670E206E7F0E0F
:100DA800216EEE0E226E7F0E236E41C024F042C0EB
:100DB80025F043C026F044C027F009EC00F01FD00E
:100DC800780E1E6E010E1F6E670E206E7F0E216E4E
:100DD800F20E226E7F0E236E41C024F042C025F031
:100DE80043C026F044C027F009EC00F008D0010108
:100DF800DC51000AD8B4CDD7010AD8B4E1D746BE31
:100E080006D0465017E1050E455CD8B013D0000E49
:100E18001E6E010E1F6E9C0E206E7E0E216E45C04A
:100E280022F046C023F0780E246E010E256E09ECE0
:100E380000F00ED0000E1E6E010E1F6EE50E206E25
:100E48007E0E216E780E226E010E236E09EC00F0E4
:100E5800000E256E010E266EC40E276E7F0E286EBC
:100E6800D30E296E7F0E2A6E000E2C6E5A0E2B6E34
:100E780018EC08F012000600FACF03F0FBCF04F0DC
:100E8800E9CF05F0EACF06F0E1CF07F0E2CF08F0AE
:100E9800D9CF09F0DACF0AF0F3CF0BF0F4CF0CF08A
:100EA800F6CF0DF0F7CF0EF0F8CF0FF0F5CF10F02A
:100EB8009EAA38D0AECF11F00201C8517F0B016E47
:100EC800630E01602ED00201C8517F0B016E0150E4
:100ED800010D640EF324D96E020EF420DA6E11C0EF
:100EE800DFFF010E016E0201C8517F0B026E015037
:100EF80002260201C8510218800B02180201C86FAD
:100F08000201C8517F0B016E0150010D640EF324DC
:100F1800D96E020EF420DA6EDF50D8A402D0020196
:100F2800C88F9E9A9EB29E9210C0F5FF0FC0F8FF20
:100F38000EC0F7FF0DC0F6FF0CC0F4FF0BC0F3FFA7
:100F48000AC0DAFF09C0D9FF08C0E2FF07C0E1FF05
:100F580006C0EAFF05C0E9FF04C0FBFF03C0FAFFB3
:100F6800529211008CEC0BF076EC0BF0800E256E93
:100F78007F0E266EC10E276E7F0E286E000E296E1C
:100F8800000E2A6E010E2C6EF40E2B6E18EC08F073
:100F980047EC0BF0EA0E416E7F0E426E8B0E436EED
:100FA8007F0E446E50EC0AF00009D8B4F3D7050E52
:100FB800256E7F0E266EC10E276E7F0E286E000EE0
:100FC800296E000E2A6E010E2C6EF40E2B6E18EC94
:100FD80008F00009D8B4EBD7140E256E7F0E266EE4
:100FE800C10E276E7F0E286E000E296E000E2A6E27
:100FF800010E2C6EF40E2B6E18EC08F00009D8B414
:10100800EBD7740E416E7F0E426EE50E436E7F0E77
:10101800446E000E466E070E456E000EC1EC06F0DB
:101028000009D8A41200EDD70201C891C893C89549
:10103800C897C899C89BC89D25C012F026C013F050
:1010480091EC09F027502810D8A406D029502A106E
:10105800D8A402D0010E12002BC014F02CC015F039
:101068001AEC0CF027502810D8B422D029502A1096
:10107800D8B41ED0010E2D6E640E216E020E226EA3
:1010880027C023F028C024F00EEC09F021660ED00A
:10109800640E216E020E226E29C023F02AC024F0AD
:1010A8000EEC09F0216602D0000E2D6E2D501200B4
:1010B80027502810D8B40CD0640E216E020E226E70
:1010C80027C023F028C024F00EEC09F021501200AC
:1010D800640E216E020E226E29C023F02AC024F06D
:1010E8000EEC09F021501200000E286E000E296E39
:1010F80007D00201C8517F0B276E630E276408D002
:101108000201C891C893C895C897C899C89BC89D3B
:10111800640E216E020E226EFB0E236E7F0E246E6D
:101128000EEC09F02150D8B4E4D70201C891C89355
:10113800C895C897C899C89BC89D0201C89F640EE6
:10114800216E020E226EF90E236E7F0E246E0EECB7
:1011580009F021502210D8B4F2D7640E216E020E85
:10116800226EF90E236E7F0E246E0EEC09F02150CC
:101178002210D8B404D0640E286E020E296E28C03E
:1011880025F029C026F012002E6E39D0220E256EC9
:101198007F0E266EC10E276E7F0E286E000E296EFA
:1011A800000E2A6E090E2C6EC40E2B6E18EC08F079
:1011B80012003E0E256E7F0E266EC10E276E7F0E24
:1011C800286E000E296E000E2A6E090E2C6EC40EB3
:1011D8002B6E18EC08F012004C0E256E7F0E266E52
:1011E800C10E276E7F0E286E000E296E000E2A6E25
:1011F800090E2C6EC40E2B6E18EC08F012002E503F
:10120800000AD8B4C3D7010AD8B4D3D7030AD8A4DC
:101218001200E2D731D021C018F022C019F023C043
:101228001AF024C01BF023C012F024C013F0BAEC4B
:101238000AF012C01CF013C01DF050EC09F0185051
:101248001910D8A405D021C021F022C022F0120024
:10125800010E2124126E000E2220136E23C0F6FF09
:1012680024C0F7FF0800F550146E156AF6EC0AF072
:1012780012C021F013C022F021502210D8B407D098
:1012880021C0D9FF22C0DAFFDF50D8A4C4D7000E8E
:10129800216E000E226E120033D018C0D9FF19C07B
:1012A800DAFFDF50D8B40FD018C0D9FF19C0DAFF61
:1012B800DF501E6E1AC0F6FF1BC0F7FF0800F5507E
:1012C8001E18D8B419D01AC0F6FF1BC0F7FF0800C3
:1012D800F5501E6E1F6A1E1E1F1E1E4A1F2A18C0AA
:1012E800D9FF19C0DAFFDF50206E20501E24186E77
:1012F800000E1F20196E1200184A192A1A4A1B2AB2
:101308001C06D8A01D061C28C8E11D28D8A4C5D7CE
:10131800000E196E000E186E120016681768164A2D
:10132800172A9EA8FED716501224146E17501320A1
:10133800156E14C0F6FF15C0F7FFF86A050EF764BE
:1013480003D00800F55005D0F6CFE9FFF7CFEAFF44
:10135800EF50AD6E16501224146E17501320156EF0
:1013680014C0F6FF15C0F7FFF86A050EF76403D03E
:101378000800F55005D0F6CFE9FFF7CFEAFFEF50A8
:101388000009D8A4CCD7ACB21200FDD756EC0CF0AB
:101398004BEC0CF0C4EC0BF0010E516E3BEC0CF076
:1013A800B2EC0BF0B6EC07F0640E126E020E136E80
:1013B800000E156E000E146E000E176E640E166E7B
:1013C80060EC0BF078EC08F025C047F026C048F038
:1013D80047C024F048C025F05AEC04F00201C89137
:1013E800C893C895C897C899C89BC89DEBD7166E6F
:1013F80093908192000E176E070E176401D01200A9
:10140800156A16AE01D0152A010E15168150151849
:10141800FE0B1518816ED8901636000E146E020E4B
:10142800136E30EC0CF08182000E146E020E136EF7
:1014380030EC0CF08192000E146E020E136E30EC3C
:101448000CF0172AD9D7000E176E000E166E14501E
:101458001510D8B41CD0010E186E04D0D8901436CC
:101468001536182A15AEFAD7D890163617361450EE
:10147800125C15501358D8A005D01450125E1550A0
:10148800135A1680D89015321432182EEDD716C07C
:1014980012F017C013F01200800E1E6E000E1F6EA1
:1014A800870E206E7E0E216E41C022F042C023F0CE
:1014B80043C024F044C025F009EC00F0800E256EEE
:1014C800000E266EC10E276E7F0E286EA90E296E9D
:1014D8007F0E2A6E3A0E2C6E980E2B6E18EC08F0C2
:1014E8001200A40EF66E180EF76E000EF86E00EEDF
:1014F80049F010EE08F00900F5CFEEFFE550E15095
:10150800FAE103EE00F0650EEE6AE806FDE102EE90
:1015180000F0C90EEE6AE806FDE1516A5290529257
:10152800000EF86E0001CAEF09F01B501C10D8B469
:1015380018D0010E1D6E04D0D8901B361C361D2AFB
:101548001CAEFAD71B50195C1C501A58D8A004D0EE
:101558001B50195E1C501A5AD8901C321B321D2E73
:10156800F1D719C019F01AC01AF0120012C016F0FB
:1015780013C017F002D0164A172A16C0F6FF17C074
:10158800F7FF0800F5500009D8A4F5D712C014F0E9
:1015980013C015F0141E151E144A152A16501424CB
:1015A800126E17501520136E1200000E156E9380E0
:1015B8008180000E146E010E136E30EC0CF08182E7
:1015C800000E146E010E136E30EC0CF007D0152AC5
:1015D800FA0E156403D0D6EC0BF0120081B0F7D7E1
:1015E8008192120012C0D9FF13C0DAFF1450DE181E
:1015F800D8A405D012C012F013C013F0120012C004
:10160800D9FF13C0DAFF124A132ADF50D8A4EAD749
:10161800000E126E000E136E12001AC01EF01B5040
:101628001D6E000E186E1C502CEC0BF0000E186E80
:101638001C282CEC0BF01EC018F01C50020F2CECD0
:101648000BF01DC018F01C50030F2CEC0BF012000F
:10165800196EE8EC0BF0800EFBEC09F0D9EC0AF0FF
:101668001950FBEC09F0D9EC0AF01850FBEC09F022
:10167800D9EC0AF0D6EC0BF0000E156E0A0E146EBB
:101688001AEC0CF01200000EC8EC08F05A0E256E89
:101698007F0E266E950E276E7F0E286EC10E296E60
:1016A8007F0E2A6E000E2C6E640E2B6E18EC08F05E
:1016B8000009D8A41200EAD712C018F013C019F014
:1016C80008D018C0D9FF19C0DAFF14C0DFFF184AC4
:1016D800192A1606D8A017061628F3E11728D8B431
:1016E8001200EFD7E00E256E7F0E266EC10E276E14
:1016F8007F0E286E000E296E000E2A6E000E2C6ECC
:10170800C80E2B6E18EC08F00009D8A41200EAD70E
:10171800B30E256E7F0E266EC10E276E7F0E286EC5
:10172800DA0E296E7F0E2A6E090E2C6EC40E2B6EF1
:1017380018EC08F0120012501402F3CF16F0F4CF90
:1017480017F012501502F350172613501402F350D5
:10175800172616C012F017C013F01200AC98AC9CF4
:10176800AB8E9D98AC8AD08EF28EF28CAB889D8A17
:10177800AB9CAC84B886000EB06E560EAF6E1200ED
:10178800FAEC0BF0110E186E000E2CEC0BF0150E87
:10179800186EFE0E2CEC0BF0010E186E000E2CECE1
:1017A8000BF01200939081928190000E146E040E3B
:1017B800136E30EC0CF08182000E146E040E136E62
:1017C80030EC0CF081801200939081808182000EB1
:1017D800146E040E136E30EC0CF08190000E146E33
:1017E800040E136E30EC0CF08192120093929390D9
:1017F8008182000E146E020E136E30EC0CF08180A4
:10180800000E146E020E136E30EC0CF01200146E03
:10181800000E136E3A0E146005D02F0E146402D019
:10182800010E136E13C012F012301200010E25ECD7
:101838000CF01406D8A0150614501510D8B41200D0
:10184800F5D7136E0D0E126EFC0EE82EFED7122E73
:10185800FCD7132EF7D71200010E43EC0CF0130639
:10186800D8A0140613501410D8B41200F5D7D08E8F
:10187800F28EF28CF29AF2949D929E921200126E5F
:10188800030EE82EFED700F0122EFAD71200000E33
:10189800956E000E8C6E9290899012001F11111F88
:0C18A80011111F00D394D390D3921200B2
:10758A0000E102E702ED02F302F902FF0205030B32
:10759A0003110317031D03230329032F0335033B99
:1075AA0003410347034D03530359035F0365036B09
:1075BA0003710377037D03830389038F0395039B79
:1075CA0003A103A703AD03B303B903BF03C603CCE7
:1075DA0003D203D803DE03E403EA03F003F603FC51
:1075EA0003020408040E0414041A04200426042CBA
:1075FA0004320438043E0444044A04500456045C29
:10760A0004620468046E0474047A04800486048C98
:10761A0004920498049E04A504AB04B104B704BD03
:10762A0004C304C904CF04D504DB04E104E704ED70
:10763A0004F304F904FF0405050B05110517051DDC
:10764A0005230529052F0535053B05410547054D48
:10765A0005530559055F0565056B05710577057DB8
:10766A000583058A05900596059C05A205A805AE21
:10767A0005B405BA05C005C605CC05D205D805DE90
:10768A0005E405EA05F005F605FC05020608060EFE
:10769A000614061A06200626062C06320638063E68
:1076AA000644064A06500656065C0662066906E164
:1076BA0002E802EF02F702FE0205030D0314031C9F
:1076CA000323032A0332033903400348034F0357B2
:1076DA00035E0365036D0374037B0383038A0392CA
:1076EA00039903A003A803AF03B703BE03C503CDE1
:1076FA0003D403DB03E303EA03F203F903000408F8
:10770A00040F0416041E0425042D0434043B044308
:10771A00044A0451045904600468046F0476047E20
:10772A000485048D0494049B04A304AA04B104B937
:10773A0004C004C804CF04D604DE04E504EC04F44F
:10774A0004FB0403050A0511051905200527052F61
:10775A000536053E0545054C0554055B0563056A76
:10776A000571057905800587058F0596059E05A58E
:10777A0005AC05B405BB05C205CA05D105D905E0A6
:10778A0005E705EF05F605FD0505060C0614061BBB
:10779A000622062A0631063906400647064F0656CD
:1077AA00065D0665066C0674067B0682068A0691E5
:1077BA00069806A006A706AF06B606BD06C506CCFD
:1077CA0006D306DB06E206EA06F106F80600070714
:1077DA00070F07E102EB02F60201030B031603216E
:1077EA00032B03360341034C03560361036C0376F0
:1077FA000381038C039703A103AC03B703C103CC32
:10780A0003D703E203EC03F70302040C0417042270
:10781A00042D04370442044D04570462046D0478AD
:10782A000482048D049804A204AD04B804C204CDF1
:10783A0004D804E304ED04F80403050D0518052330
:10784A00052E05380543054E05580563056E05796D
:10785A000583058E059905A305AE05B905C405CEB0
:10786A0005D905E405EE05F90504060F06190624EF
:10787A00062F06390644064F065A0664066F067A2C
:10788A000684068F069A06A406AF06BA06C506CF70
:10789A0006DA06E506EF06FA06050710071A0725AF
:1078AA000730073A07450750075B07650770077BEC
:1078BA0007850790079B07A607B007BB07C607D02F
:1078CA0007DB07E607F107FB07060811081B08266E
:1078DA000831083C08000007000F0017001F0027A6
:1078EA00002F0036003E0046004E0056005E00663D
:1078FA00006D0075007D0085008D0095009C00A438
:10790A0000AC00B400BC00C400CC00D300DB00E330
:10791A0000EB00F300FB0003010A0112011A012225
:10792A00012A01320139014101490151015901611B
:10793A000169017001780180018801900198019F15
:10794A0001A701AF01B701BF01C701CF01D601DE0F
:10795A0001E601EE01F601FE0106020D0215021D05
:10796A000225022D0235023C0244024C0254025CFA
:10797A000264026C0273027B0283028B0293029BF3
:10798A0002A202AA02B202BA02C202CA02D202D9EE
:10799A0002E102E902F102F90201030903100318E4
:1079AA000320032803300338033F0347034F0357D9
:1079BA00035F0367036F0376037E0386038E0396D2
:1079CA00039E03A603E102E902F202FA0203030C90
:1079DA000314031D0325032E0337033F03480351F2
:1079EA0003590362036A0373037C0384038D0396BA
:1079FA00039E03A703AF03B803C103C903D203DB82
:107A0A0003E303EC03F403FD0306040E0417042046
:107A1A000428043104390442044B0453045C046509
:107A2A00046D0476047E04870490049804A104AAD1
:107A3A0004B204BB04C304CC04D504DD04E604EF99
:107A4A0004F7040005080511051A0522052B05345B
:107A5A00053C0545054D0556055F05670570057921
:107A6A000581058A0592059B05A405AC05B505BEE9
:107A7A0005C605CF05D705E005E905F105FA0503B1
:107A8A00060B0614061C0625062E0636063F064871
:107A9A00065006590661066A0673067B0684068D39
:107AAA000695069E06A606AF06B806C006C906D201
:107ABA000600000200050007000A000C000F001172
:107ACA00001400160019001C001E002100230026C5
:107ADA000028002B002D0030003300350038003A12
:107AEA00003D003F004200440047004A004C004F5E
:107AFA000051005400560059005B005E00610063AB
:107B0A0000660068006B006D0070007200750078F6
:107B1A00007A007D007F0082008400870089008C43
:107B2A00008F0091009400960099009B009E00A08F
:107B3A0000A300A500A800AB00AD00B000B200B5DC
:107B4A0000B700BA00BC00BF00C200C400C700C929
:107B5A0000CC00CE00D100D300D600D900DB00DE75
:107B6A0000E000E300E500E800EA00ED00F000F2C2
:107B7A0000F500F700FA00FC00FF0001010401070C
:107B8A000109010C010E0111011301160118011B53
:107B9A00011E01000006000D0013001A0021002733
:107BAA00002E0035003B00420049004F0056005DA0
:107BBA000063006A00710077007E0085008B0092E6
:107BCA000099009F00A600AD00B300BA00C100C72B
:107BDA0000CE00D500DB00E200E900EF00F600FD70
:107BEA000003010A01110117011E0125012B0132AF
:107BFA000139013F0146014D0153015A01610167F3
:107C0A00016E0175017B01820189018F0196019D37
:107C1A0001A301AA01B101B701BE01C501CB01D27D
:107C2A0001D901DF01E601ED01F301FA01010207C1
:107C3A00020E0215021B02220229022F0236023DFF
:107C4A000243024A02510257025E0265026B027245
:107C5A0002790200000B00170022002E00390045AD
:107C6A000051005C00680073007F008A009600A241
:107C7A0000AD00B900C400D000DB00E700F300FE4D
:107C8A00000A01150121012D01380144014F015B50
:107C9A0001660172017E0189019501A001AC01B75B
:107CAA0001C301CF01DA01E601F101FD0108021465
:107CBA000220022B02370242024E025A0265027168
:107CCA00027C02880293029F02AB02B602C202CD74
:107CDA0002D902E402F002FC02070313031E032A7C
:107CEA0003350341034D03580364036F037B038782
:107CFA0003E102EB02F50200030A0315031F032A3C
:107D0A000334033E03490353035E03680373037D8D
:107D1A0003870392039C03A703B103BC03C603D1E1
:107D2A0003DB03E503F003FA0305040F041A042432
:107D3A00042E04390443044E04580463046D047881
:107D4A000482048C049704A104AC04B604C104CBD5
:107D5A0004D504E004EA04F504FF040A0514051E28
:107D6A0005290533053E05480553055D0568057275
:107D7A00057C05870591059C05A605B105BB05C5CA
:107D8A0005D005DA05E505EF05FA0504060F060034
:107D9A00000D001A002700340041004E005B006904
:107DAA00007600830090009D00AA00B700C400D2AC
:107DBA0000DF00EC00F9000601130120012D013B50
:107DCA00014801550162016F017C0189019601A4F4
:107DDA0001B101BE01CB01D801E501F201FF010D9C
:107DEA00021A022702340241024E025B026802763C
:107DFA0002830290029D02AA02B702C402D20201C1
:107E0A00000800400000020010008001000A00641F
:107E1A0000E8031027010010000001001041542B54
:107E2A0043575341503D222573222C222573222C7D
:107E3A00312C25730D0A0041542B554152543D31C2
:107E4A0031353230302C382C312C302C300D0A00A0
:107E5A0041542B554152543D393630302C382C314F
:107E6A002C302C300D0A0041542B434950534552B3
:107E7A005645523D312C353030300D0A0041542BD5
:107E8A0043574A41503D222573222C222573220D45
:107E9A000A0041542B43495053544152543D2564DE
:107EAA002C25730D0A0041542B43495053454E4427
:107EBA003D25642C25640D0A0030313233343536C1
:107ECA00373839414243444546003031323334353C
:107EDA00363738396162636465660041542B434919
:107EEA005053544152543D25730D0A0041542B43BB
:107EFA0049504D4F44453D300D0A0041542B4349EA
:107F0A00504D4F44453D310D0A0041542B434950D1
:107F1A004D55583D300D0A0041542B43574D4F449F
:107F2A00453D310D0A0041542B4349504D55583DAA
:107F3A00310D0A0041542B43574D4F44453D320DF4
:107F4A000A0041542B43574D4F44453D330D0A0017
:107F5A0041542B43574D4F44453F0D0A0022257388
:107F6A00222C222573222C2573003139322E3136E8
:107F7A00382E342E310041542B43575141500D0AAB
:107F8A00007A7834353232333331002B43574D4F30
:107F9A0044453A31002B43574D4F44453A3200434A
:107FAA004F4E4E45435445440041542B5253540DB1
:107FBA000A0053454E44204F4B00434F4E4E454313
:107FCA005400286E756C6C2900414C524541590089
:107FDA0072656164790041540D0A00353030300011
:107FEA004B454E0054435000554450003E2000007B
:067FFA000021003400002C
:020000040020DA
:08000000FFFFFFFFFFFFFFFF00
:020000040030CA
:0E000000FF061F1EFF8081FF0FC00FE00F40A4
:00000001FF
