:0400000007EF00F016
:100008006B829BED07F07EEF0AF0220E00018B6FEA
:10001800000E00018C6FFDEF04F0250E000192190F
:10002800D8B40AD01EC0D9FF1FC0DAFF92C0DFFFC4
:100038001E4A1F2AFDEF04F0000E0001916F000E0A
:10004800906F000E0001946F000E936F0DD00001A9
:10005800938708D00001938105D00001948702D0CE
:1000680000019385204A212A20C0F6FF21C0F7FF0E
:100078000800F550200AD8B4EDD7030AD8B4EDD754
:100088000E0AD8B4E4D71D0AD8B4EAD7000193A75A
:1000980002D00001939520C0F6FF21C0F7FF0800A9
:1000A800F55067EC0CF0D8A036D0000E0001916F27
:1000B800000E906F90C012F091C013F0000E156EF4
:1000C8000A0E146EFBEC0BF012C090F013C091F006
:1000D800D00E286EFF0E296E20C0F6FF21C0F7FF54
:1000E8000800F5502A6E2B6A28502A2629502B2200
:1000F8002A50000190272B5000019123204A212AE1
:1001080020C0F6FF21C0F7FF0800F55067EC0CF09F
:10011800D8A019D0CFD720C0F6FF21C0F7FF08001C
:10012800F5502A0AD8A40FD08BC0D9FF8CC0DAFFAB
:10013800DECF90F0DDCF91F0020E00018B27000E8C
:100148008C23204A212A20C0F6FF21C0F7FF08008F
:10015800F5502E0AD8A43CD00001948D204A212ABB
:1001680020C0F6FF21C0F7FF0800F5502A0AD8A4DE
:100178000FD08BC0D9FF8CC0DAFFDF5000018F6F22
:10018800020E00018B27000E8C23204A212A0FD152
:10019800000E00018F6F11D020C0F6FF21C0F7FFBD
:1001A8000800F5CF28F000018F510A0DF3502824DC
:1001B800D00F00018F6F204A212A20C0F6FF21C0EE
:1001C800F7FF0800F55067EC0CF0D8A0F0D0E4D7A2
:1001D800000E00018F6FEBD00001938D12D100014A
:1001E800948B0001938B0001938F0BD18BC0D9FFA7
:1001F8008CC0DAFFDECF87F0DDCF88F0020E000179
:100208008B27000E8C230001875100018811D8A488
:1002180006D0CC0E0001876F7F0E0001886F000E9C
:1002280000018A6F000E896F03D00001894B8A2B69
:100238000001895100018725286E00018A510001BB
:100248008821296E28C0F6FF29C0F7FFF86A050E35
:10025800F76403D00800F55005D0F6CFE9FFF7CFD3
:10026800EAFFEF500009D8A4E0D700018F51000140
:10027800D8B414D08FC028F0296A28BE29060001F6
:100288008951285C00018A512958D8B007D000014B
:100298008F510001896F8A6B89BF8A0700019051CD
:1002A8000001895D0001915100018A59D8B009D037
:1002B800000189510001905F00018A510001915BA2
:1002C80005D0000E0001916F000E906F000193A7FA
:1002D80009D02ED01EC0D9FF1FC0DAFF200EDF6E56
:1002E8001E4A1F2A00019007D8A0910700019029F3
:1002F800F1E100019129D8B41BD0ECD787C0F6FFF3
:1003080088C0F7FFF86A1EC0D9FF1FC0DAFF050EC4
:10031800F76403D00800F55005D0F6CFE9FFF7CF12
:10032800EAFFEF50DF6E0001874B882B1E4A1F2A19
:1003380000018907D8A08A0700018929DFE10001A7
:100348008A29D8A4DBD7000193B709D052D31EC09D
:10035800D9FF1FC0DAFF200EDF6E1E4A1F2A0001D8
:100368009007D8A0910700019029F1E10001912997
:10037800D8B43FD3ECD78BC0D9FF8CC0DAFFDF509D
:100388000001926F020E00018B27000E8C23920E43
:100398000001876F000E0001886F000E00018A6F50
:1003A800010E896F62D7C00E000193132AD020C0B6
:1003B800F6FF21C0F7FF204A212A0800F5CF92F066
:1003C80000019251000AD8B422D3580AD8B409D7E8
:1003D8003B0AD8B4D0D7070AD8B413D00D0AD8B47A
:1003E80010D0060AD8B4F8D61F0AD8B4F8D6030A2B
:1003F800D8B4FCD6060AD8B4D6D70D0AD8B4F3D6E2
:10040800C6D7C00E00019315286E000E0001941582
:10041800296E28502910D8A419D08BC0D9FF8CC0B8
:10042800DAFFDECF8DF0DDCF8EF0020E00018B27D4
:10043800000E8C2300018EAF16D0030E000193131B
:1004480000018D6D8E1FD8B08E2B0DD08BC0D9FFBB
:100458008CC0DAFFDECF8DF0DDCF8EF0020E00010A
:100468008B27000E8C2300018F510001D8A463D084
:1004780000018D5100018E11D8A45DD000018F2B91
:100488005AD0010E0001926F050E00019219D8B4DE
:1004980061D000019251020D150EF324F66E7E0E06
:1004A800F420F76E0900F55000018D5D0900F55044
:1004B80000018E59D8A04ED00001922BE5D7010E2D
:1004C8000001926F040E00019219D8B443D00001C4
:1004D8009251020D1F0EF324F66E7E0EF420F76E75
:1004E8000900F55000018D5D0900F55000018E5995
:1004F800D8A030D00001922BE5D7010E0001926FF1
:10050800060E00019219D8B425D000019251020DAF
:10051800090EF324F66E7E0EF420F76E0900F550EE
:1005280000018D5D0900F55000018E59D8A012D048
:100538000001922BE5D700019351C00B000AD8B4F3
:10054800A0D7400AD8B4D9D7C00AD8B4B8D7400A77
:10055800D8B497D700019251800A286E00018F51B4
:10056800800A285CD8B003D08FC092F00BD000016D
:100578008F51800A286E00019251800A285CD8A009
:1005880092C08FF00001905100019111D8B410D0A1
:10059800030E00019315286E000E00019415296EB4
:1005A80028502910D8B404D000019007D8A091078A
:1005B800000194AD1FD0800E00018FBF7F0E286E02
:1005C8000001905100018F5D00019151800A285867
:1005D800D8B00BD000018F510001905F000E0001D0
:1005E8008FBFFF0E0001915B05D0000E0001916FD7
:1005F800000E906FC40E286E080E296E93C02AF064
:1006080094C02BF028502A1629502B16400E2A1871
:100618000FE1080E2B18D8A40BD00001905100014F
:100628009111D8B42ED000019007D8A0910729D0F5
:10063800C00E286E080E296E93C02AF094C02BF0C5
:1006480028502A1629502B16800E2A181AE1080E4F
:100658002B18D8A416D0000191BF0ED000019151DB
:1006680005E1030E0001905DD8A006D00001FE0E42
:100678009027FF0E912305D0000E0001916F000E08
:10068800906F800E000192BF7F0E286E000190517E
:100698000001925D00019151800A2858D8B00BD012
:1006A800000192510001905F000E000192BFFF0E01
:1006B8000001915B05D0000E0001916F000E906F54
:1006C800000193A561D0030E00019315286E000E5A
:1006D80000019415296E28502910D8B409D01EC0DD
:1006E800D9FF1FC0DAFF2D0E0BD01E4A1F2A39D0A2
:1006F800000193A107D01EC0D9FF1FC0DAFF200E4A
:10070800DF6EF3D7C00E286E080E296E93C02AF04C
:1007180094C02BF028502A1629502B16800E2A1820
:1007280020E1080E2B18D8A41CD01EC0D9FF1FC06A
:10073800DAFF300EDF6E1E4A1F2A000193BB05D078
:10074800000E0001826F780E04D0000E0001826F47
:10075800580E816F1EC0D9FF1FC0DAFF81C0DFFFAE
:10076800C4D70001905100019111D8B41DD11EC009
:10077800D9FF1FC0DAFF300EDF6E1E4A1F2A0001A4
:100788009007D8A09107EDD7000190510001911171
:10079800D8B415D0000193B712D01EC0D9FF1FC01E
:1007A800DAFF200EDF6E1E4A1F2A00019007D8A02C
:1007B80091070001905100019111D8A4EED7030EC2
:1007C80000019315286E000E00019415296E28501B
:1007D8002910D8B409D01EC0D9FF1FC0DAFF2D0ECA
:1007E8000BD01E4A1F2A0AD0000193A107D01EC0B1
:1007F800D9FF1FC0DAFF200EDF6EF3D7C00E286EB8
:10080800080E296E93C02AF094C02BF028502A169F
:1008180029502B16400E2A180BE1080E2B18D8A4C5
:1008280007D01EC0D9FF1FC0DAFF300EDF6EBAD066
:10083800C00E286E080E296E93C02AF094C02BF0C3
:1008480028502A1629502B16800E2A1803E1080E64
:100858002B18D8A4A9D01EC0D9FF1FC0DAFF300EAC
:10086800DF6E1E4A1F2A000193BB05D0000E00014F
:10087800846F780E04D0000E0001846F580E836FC9
:100888001EC0D9FF1FC0DAFF83C0DFFF8BD0000175
:100898008F51020D150EF324F66E7E0EF420F76EBE
:1008A8000900F5CF14F00A00F5CF15F08DC012F04D
:1008B8008EC013F0A7EC0AF012C019F013C01AF09A
:1008C800000E1C6E0A0E1B6EF5EC0AF0195051D082
:1008D8008DC012F08EC013F000018F51020D1F0E53
:1008E800F324F66E7E0EF420F76E0900F5CF14F0AF
:1008F8000A00F5CF15F0A7EC0AF012500F0B000113
:10090800806F000193BB05D0D40E0001856F7E0E69
:1009180004D0C30E0001856F7E0E0001866F0001B2
:100928008051010D85C028F086C029F0F350282693
:10093800F450292228C0F6FF29C0F7FF0800F5CF98
:1009480092F02AD08DC012F08EC013F000018F51A2
:10095800020D090EF324F66E7E0EF420F76E0900E0
:10096800F5CF14F00A00F5CF15F0A7EC0AF01250F5
:10097800070B300F0001926F0FD000019351C00B8D
:10098800000AD8B484D7400AD8B4DCD7C00AD8B48F
:100998009FD7400AD8B47BD71EC0D9FF1FC0DAFF43
:1009A80092C0DFFF1E4A1F2A00018F0700018F290E
:1009B800D8A4E3D7000193A71CD0000191BF19D098
:1009C8000001915104E100019005D8A012D01EC089
:1009D800D9FF1FC0DAFF200EDF6E1E4A1F2A000152
:1009E8009007D8A091070001905100019111D8A457
:1009F800EED720C0F6FF21C0F7FF204A212A0800C1
:100A0800F5CF92F000019251D8A411EF00F01EC06A
:100A1800D9FF1FC0DAFF000EDF6E120020EE03F0D0
:100A28002450D9262550DA229F0EDF6420D0C00E2C
:100A3800266EFE0E276E20EE03F02450D926255090
:100A4800DA22DF50286E296AD890283629362650AF
:100A5800282627502922AB0E2824F66E7C0E292042
:100A6800F76E0900F5CF32F00A00F5CF33F020EE2B
:100A780005F02450D9262550DA228E0EDF6420D0C6
:100A8800E20E266EFE0E276E20EE05F02450D926C3
:100A98002550DA22DF50286E296AD8902836293660
:100AA8002650282627502922F10E2824F66E7A0E81
:100AB8002920F76E0900F5CF34F00A00F5CF35F09C
:100AC80020EE07F02450D9262550DA22B00EDF6434
:100AD80020D09E0E266EFE0E276E20EE07F02450C4
:100AE800D9262550DA22DF50286E296AD890283670
:100AF800293626502826275029226B0E2824F66EE0
:100B08007D0E2920F76E0900F5CF36F00A00F5CFE3
:100B180037F020EE09F02450D9262550DA22870E26
:100B2800DF6420D0F00E266EFE0E276E20EE09F050
:100B38002450D9262550DA22DF50286E296AD89009
:100B4800283629362650282627502922150E2824EB
:100B5800F66E790E2920F76E0900F5CF38F00A00F5
:100B6800F5CF39F020EE02F02450D9262550DA22AC
:100B7800890EDF6420D0EC0E266EFE0E276E20EE66
:100B880002F02450D9262550DA22DF50286E296A2F
:100B9800D890283629362650282627502922050E8F
:100BA8002824F66E7A0E2920F76E0900F5CF2AF070
:100BB8000A00F5CF2BF020EE04F02450D92625505A
:100BC800DA227E0EDF6420D0020E266EFF0E276E1C
:100BD80020EE04F02450D9262550DA22DF50286E62
:100BE800296AD890283629362650282627502922BF
:100BF800130E2824F66E780E2920F76E0900F5CF1B
:100C08002CF00A00F5CF2DF020EE06F02450D9265E
:100C18002550DA226D0EDF6420D0240E266EFF0EDA
:100C2800276E20EE06F02450D9262550DA22DF5010
:100C3800286E296AD8902836293626502826275023
:100C48002922EF0E2824F66E760E2920F76E090069
:100C5800F5CF2EF00A00F5CF2FF020EE08F0245043
:100C6800D9262550DA22680EDF6420D02E0E266E93
:100C7800FF0E276E20EE08F02450D9262550DA22E0
:100C8800DF50286E296AD89028362936265028261B
:100C980027502922C10E2824F66E750E2920F76EDA
:100CA8000900F5CF30F00A00F5CF31F02AC01FF067
:100CB8002BC020F032C021F033C022F0010E236E89
:100CC8008BEC06F02CC01FF02DC020F034C021F0B2
:100CD80035C022F0020E236E8BEC06F02EC01FF0FA
:100CE8002FC020F036C021F037C022F0030E236E4B
:100CF8008BEC06F030C01FF031C020F038C021F076
:100D080039C022F0040E236E8BEC06F0120080D05E
:100D18001F502010D8B409D01FC01AF020C01BF0F3
:100D2800060E1C6E6DEC0BF0120021501F241A6E7B
:100D3800225020201B6E060E1C6E6DEC0BF012006C
:100D4800740E1F5C060E2058D8B009D01FC01AF0C8
:100D580020C01BF00A0E1C6E6DEC0BF01200215027
:100D68001F241A6E225020201B6E0A0E1C6E6DEC7A
:100D78000BF01200D10E1F5C070E2058D8B009D016
:100D88001FC01AF020C01BF00E0E1C6E6DEC0BF08D
:100D9800120021501F241A6E225020201B6E0E0EA6
:100DA8001C6E6DEC0BF01200BB0E1F5C060E20587B
:100DB800D8B009D01FC01AF020C01BF0120E1C6E4C
:100DC8006DEC0BF0120021501F241A6E22502020C7
:100DD8001B6E120E1C6E6DEC0BF012002D0E1F5CBC
:100DE800060E2058D8B009D01FC01AF020C01BF03A
:100DF800160E1C6E6DEC0BF0120021501F241A6E9B
:100E0800225020201B6E160E1C6E6DEC0BF012008B
:100E18002350000AD8B47CD7010AD8B491D7030A62
:100E2800D8B4A8D7010AD8B4BFD7070AD8A41200E3
:100E3800D5D70101DC6F23EE00F011EE78F0630ED8
:100E4800DBCFE3FFE806FCE22ED0780E1E6E010E23
:100E58001F6E670E206E7F0E216EEE0E226E7F0EC5
:100E6800236E2EC024F02FC025F030C026F031C0EC
:100E780027F009EC00F01FD0780E1E6E010E1F6ED1
:100E8800670E206E7F0E216EF20E226E7F0E236E8D
:100E98002EC024F02FC025F030C026F031C027F036
:100EA80009EC00F008D00101DC51000AD8B4CDD714
:100EB800010AD8B4E1D733BE06D0335017E1050E86
:100EC800325CD8B013D0000E1E6E010E1F6E9C0E41
:100ED800206E7E0E216E32C022F033C023F0780ED1
:100EE800246E010E256E09EC00F00ED0000E1E6E69
:100EF800010E1F6EE50E206E7E0E216E780E226E9C
:100F0800010E236E09EC00F0000E256E010E266E10
:100F1800C40E276E7F0E286ED30E296E7F0E2A6EA2
:100F2800000E2C6E5A0E2B6E17EC08F012000600FD
:100F3800FACF03F0FBCF04F0E9CF05F0EACF06F0D3
:100F4800E1CF07F0E2CF08F0D9CF09F0DACF0AF005
:100F5800F3CF0BF0F4CF0CF0F6CF0DF0F7CF0EF087
:100F6800F8CF0FF0F5CF10F09EAA38D0AECF11F021
:100F78000201CC517F0B016E310E01602ED00201AF
:100F8800CC517F0B016E0150010D9A0EF324D96EDE
:100F9800020EF420DA6E11C0DFFF010E016E0201AD
:100FA800CC517F0B026E015002260201CC5102186F
:100FB800800B02180201CC6F0201CC517F0B016E2D
:100FC8000150010D9A0EF324D96E020EF420DA6E48
:100FD800DF50D8A402D00201CC8F9E9A9EA205D0E1
:100FE8005C4A5D2A5A4A5B2A9E9210C0F5FF0FC0E0
:100FF800F8FF0EC0F7FF0DC0F6FF0CC0F4FF0BC0E2
:10100800F3FF0AC0DAFF09C0D9FF08C0E2FF07C032
:10101800E1FF06C0EAFF05C0E9FF04C0FBFF03C00B
:10102800FAFF6B921100000E5F6E000E5E6E0201F9
:10103800CC91CC93CC95CC97CC99CC9BCC9D25C00E
:1010480012F026C013F0EEEC09F027502810D8A4AF
:1010580006D029502A10D8A402D0010E12002BC0A5
:1010680014F02CC015F082EC0CF027502810D8B4DE
:1010780022D029502A10D8B41ED0010E2D6E9A0EF7
:10108800216E020E226E27C023F028C024F06BECDC
:1010980009F021660ED09A0E216E020E226E29C02A
:1010A80023F02AC024F06BEC09F0216602D0000E70
:1010B8002D6E2D50120027502810D8B40CD09A0E3F
:1010C800216E020E226E27C023F028C024F06BEC9C
:1010D80009F0215012009A0E216E020E226E29C0CC
:1010E80023F02AC024F06BEC09F021501200E8EC40
:1010F8000BF0D2EC0BF0800E256E7F0E266EC10E23
:10110800276E7F0E286E000E296E000E2A6E010EC5
:101118002C6EF40E2B6E17EC08F0A3EC0BF0EA0E15
:101128002E6E7F0E2F6E8B0E306E7F0E316ED0ECD2
:101138000AF00009D8B4F3D7050E256E7F0E266E87
:10114800C10E276E7F0E286E000E296E000E2A6EC5
:10115800010E2C6EF40E2B6E17EC08F00009D8B4B3
:10116800EBD7140E256E7F0E266EC10E276E7F0EEE
:10117800286E000E296E000E2A6E010E2C6EF40EDB
:101188002B6E17EC08F00009D8B4EBD7740E2E6E4E
:101198007F0E2F6EE50E306E7F0E316E000E336EB1
:1011A800070E326E000E1DEC07F00009D8A41200DD
:1011B800EDD7000E276E000E286E0201CC91CC935D
:1011C800CC95CC97CC99CC9BCC9D9A0E216E020ED7
:1011D800226EFB0E236E7F0E246E6BEC09F02150FD
:1011E800D8B4F3D70201CC91CC93CC95CC97CC99B9
:1011F800CC9BCC9D0201CC9F9A0E216E020E226ED2
:10120800F90E236E7F0E246E6BEC09F0215022102C
:10121800D8B4F2D79A0E216E020E226EF90E236E02
:101228007F0E246E6BEC09F021502210D8B404D044
:101238009A0E276E020E286E27C025F028C026F0C9
:1012480012002E6E39D0220E256E7F0E266EC10E2C
:10125800276E7F0E286E000E296E000E2A6E090E6C
:101268002C6EC40E2B6E17EC08F012003E0E256E85
:101278007F0E266EC10E276E7F0E286E000E296E19
:10128800000E2A6E090E2C6EC40E2B6E17EC08F099
:1012980012004C0E256E7F0E266EC10E276E7F0E35
:1012A800286E000E296E000E2A6E090E2C6EC40ED2
:1012B8002B6E17EC08F012002E50000AD8B4C3D7D2
:1012C800010AD8B4D3D7030AD8A41200E2D731D080
:1012D80021C018F022C019F023C01AF024C01BF056
:1012E80023C012F024C013F016EC0BF012C01CF04F
:1012F80013C01DF0ADEC09F018501910D8A405D092
:1013080021C021F022C022F01200010E2124126E09
:10131800000E2220136E23C0F6FF24C0F7FF08003A
:10132800F550146E156A52EC0BF012C021F013C080
:1013380022F021502210D8B407D021C0D9FF22C0F2
:10134800DAFFDF50D8A4C4D7000E216E000E226E3B
:10135800120033D018C0D9FF19C0DAFFDF50D8B453
:101368000FD018C0D9FF19C0DAFFDF501E6E1AC09F
:10137800F6FF1BC0F7FF0800F5501E18D8B419D0A7
:101388001AC0F6FF1BC0F7FF0800F5501E6E1F6A53
:101398001E1E1F1E1E4A1F2A18C0D9FF19C0DAFFB9
:1013A800DF50206E20501E24186E000E1F20196E6C
:1013B8001200184A192A1A4A1B2A1C06D8A01D0608
:1013C8001C28C8E11D28D8A4C5D7000E196E000E28
:1013D800186E120016681768164A172A9EA8FED7B4
:1013E80016501224146E17501320156E14C0F6FFF1
:1013F80015C0F7FFF86A050EF76403D00800F5502A
:1014080005D0F6CFE9FFF7CFEAFFEF50AD6E1650E3
:101418001224146E17501320156E14C0F6FF15C051
:10142800F7FFF86A050EF76403D00800F55005D0F9
:10143800F6CFE9FFF7CFEAFFEF500009D8A4CCD7E1
:10144800ACB21200FDD7166E93908192000E176E03
:10145800070E176401D01200156A16AE01D0152ABE
:10146800010E151681501518FE0B1518816ED890AF
:101478001636000E146E020E136E98EC0CF0818274
:10148800000E146E020E136E98EC0CF08192000E92
:10149800146E020E136E98EC0CF0172AD9D7BEEC16
:1014A8000CF0B3EC0CF020EC0CF076EC0CF0A3ECA8
:1014B8000CF00EEC0CF07BEC08F0000E616E9A0E4E
:1014C800126E020E136E000E156E000E146E000ED4
:1014D800176E320E166EBCEC0BF0DDEC08F025C072
:1014E8003AF026C03BF03AC024F03BC025F012EC9D
:1014F80005F0F3D7740EF66E190EF76E000EF86E3F
:1015080000EE63F010EE08F00900F5CFEEFFE550AD
:10151800E150FAE103EE00F0640EEE6AE806FDE140
:1015280002EE00F0CE0EEE6AE806FDE100EE3CF0B9
:10153800270EEE6AE806FDE16B906B92000EF86EDE
:10154800000153EF0AF0000E186E000E176E1450CB
:101558001510D8B41CD0010E166E04D0D8901436CD
:101568001536162A15AEFAD7D890173618361450ED
:10157800125C15501358D8A005D01450125E15509F
:10158800135A1780D89015321432162EEDD717C07B
:1015980012F018C013F01200000E1E6E010E1F6E1E
:1015A800870E206E7E0E216E2EC022F02FC023F0F3
:1015B80030C024F031C025F009EC00F0000E256E93
:1015C800010E266EC10E276E7F0E286EA90E296E9B
:1015D8007F0E2A6E3A0E2C6E980E2B6E17EC08F0C2
:1015E80012001B501C10D8B418D0010E1D6E04D068
:1015F800D8901B361C361D2A1CAEFAD71B50195C16
:101608001C501A58D8A004D01B50195E1C501A5AE6
:10161800D8901C321B321D2EF1D719C019F01AC0F0
:101628001AF0120012C016F013C017F002D0164AB2
:10163800172A16C0F6FF17C0F7FF0800F550000973
:10164800D8A4F5D712C014F013C015F0141E151E37
:10165800144A152A16501424126E17501520136EAA
:101668001200000E156E93808180000E146E010E1C
:10167800136E98EC0CF08182000E146E010E136E3E
:1016880098EC0CF007D0152AFA0E156403D032EC4A
:101698000CF0120081B0F7D78192120012C0D9FF66
:1016A80013C0DAFF1450DE18D8A405D012C012F007
:1016B80013C013F0120012C0D9FF13C0DAFF124A88
:1016C800132ADF50D8A4EAD7000E126E000E136E4C
:1016D80012001AC01EF01B501D6E000E186E1C5012
:1016E80088EC0BF0000E186E1C2888EC0BF01EC05E
:1016F80018F01C50020F88EC0BF01DC018F01C509D
:10170800030F88EC0BF01200196E44EC0CF0800EFD
:1017180027EC0AF035EC0BF0195027EC0AF035EC01
:101728000BF0185027EC0AF035EC0BF032EC0CF00B
:10173800000E156E0A0E146E82EC0CF01200000EEC
:1017480025EC09F05A0E256E7F0E266E950E276E33
:101758007F0E286EC10E296E7F0E2A6E000E2C6E2B
:10176800640E2B6E17EC08F00009D8A41200EAD713
:1017780012C018F013C019F008D018C0D9FF19C04A
:10178800DAFF14C0DFFF184A192A1606D8A0170670
:101798001628F3E11728D8B41200EFD7E00E256E0B
:1017A8007F0E266EC10E276E7F0E286E000E296EE4
:1017B800000E2A6E000E2C6EC80E2B6E17EC08F069
:1017C8000009D8A41200EAD7B30E256E7F0E266E44
:1017D800C10E276E7F0E286EDA0E296E7F0E2A6ED6
:1017E800090E2C6EC40E2B6E17EC08F01200125066
:1017F8001402F3CF16F0F4CF17F012501502F3507D
:10180800172613501402F350172616C012F017C0EB
:1018180013F01200AC98AC9CAB8E9D98AC8AD08E1D
:10182800F28EF28CAB889D8AAB9CAC84B886000E95
:10183800B06E560EAF6E120056EC0CF0110E186E0C
:10184800000E88EC0BF0150E186EFE0E88EC0BF0EF
:10185800010E186E000E88EC0BF012009390819226
:101868008190000E146E040E136E98EC0CF08182B9
:10187800000E146E040E136E98EC0CF081801200AA
:10188800939081808182000E146E040E136E98EC82
:101898000CF08190000E146E040E136E98EC0CF090
:1018A80081921200939293908182000E146E020E20
:1018B800136E98EC0CF08180000E146E020E136EFD
:1018C80098EC0CF01200146E000E136E3A0E1460B1
:1018D80005D02F0E146402D0010E136E13C012F03F
:1018E80012301200F90ECB6ECA50870B4809CA6E27
:1018F800CA50FC0B0109CA6ECA941200010E8DEC85
:101908000CF01406D8A0150614501510D8B41200FF
:10191800F5D7136E0D0E126EFC0EE82EFED7122EA2
:10192800FCD7132EF7D71200010EABEC0CF0130600
:10193800D8A0140613501410D8B41200F5D7D08EBE
:10194800F28EF28CF29AF2949D929E921200126E8E
:10195800030EE82EFED700F0122EFAD71200000E62
:10196800956E000E8C6E9290899012001F11111FB7
:0C19780011111F00D394D390D3921200E1
:10748A0000E102000000000000000000000000000F
:10749A0000000000000000000000000000000000E2
:1074AA0000000000000000000000000000000000D2
:1074BA0000000000000000000000000000000000C2
:1074CA0000000000000000000000000000000000B2
:1074DA0000000000000000000000000000000000A2
:1074EA000000000000000000000000000000000092
:1074FA000000000000000000000000000000000082
:10750A000000000000000000000000000000000071
:10751A000000000000000000000000000000000061
:10752A000000000000000000000000000000000051
:10753A000000000000000000000000000000000041
:10754A000000000000000000000000000000000031
:10755A000000000000000000000000000000000021
:10756A000000000000000000000000000000000011
:10757A000000000000000000000000000000000001
:10758A0000000000000000000000000000000000F1
:10759A0000000000000000000000000000000000E1
:1075AA0000000000000000000000000000000000D1
:1075BA0000000000000000E102E702ED02F302F918
:1075CA0002FF0205030B03110317031D03230329FB
:1075DA00032F0335033B03410347034D0353035969
:1075EA00035F0365036B03710377037D03830389D9
:1075FA00038F0395039B03A103A703AD03B303B949
:10760A0003BF03C603CC03D203D803DE03E403EAB1
:10761A0003F003F603FC03020408040E0414041A1C
:10762A0004200426042C04320438043E0444044A88
:10763A0004500456045C04620468046E0474047AF8
:10764A0004800486048C04920498049E04A504AB66
:10765A0004B104B704BD04C304C904CF04D504DBD0
:10766A0004E104E704ED04F304F904FF0405050B3F
:10767A0005110517051D05230529052F0535053BA8
:10768A0005410547054D05530559055F0565056B18
:10769A0005710577057D0583058A05900596059C84
:1076AA0005A205A805AE05B405BA05C005C605CCF0
:1076BA0005D205D805DE05E405EA05F005F605FC60
:1076CA0005020608060E0614061A06200626062CC9
:1076DA0006320638063E0644064A06500656065C38
:1076EA000662066906E102E802EF02F702FE0205F7
:1076FA00030D0314031C0323032A03320339034033
:10770A000348034F0357035E0365036D0374037B4A
:10771A000383038A0392039903A003A803AF03B761
:10772A0003BE03C503CD03D403DB03E303EA03F279
:10773A0003F903000408040F0416041E0425042D8B
:10774A000434043B0443044A0451045904600468A1
:10775A00046F0476047E0485048D0494049B04A3B8
:10776A0004AA04B104B904C004C804CF04D604DED0
:10777A0004E504EC04F404FB0403050A05110519E5
:10778A0005200527052F0536053E0545054C0554F8
:10779A00055B0563056A0571057905800587058F0F
:1077AA000596059E05A505AC05B405BB05C205CA27
:1077BA0005D105D905E005E705EF05F605FD05053F
:1077CA00060C0614061B0622062A0631063906404E
:1077DA000647064F0656065D0665066C0674067B66
:1077EA000682068A0691069806A006A706AF06B67E
:1077FA0006BD06C506CC06D306DB06E206EA06F196
:10780A0006F806000707070F07E102EB02F6020176
:10781A00030B03160321032B03360341034C0356C0
:10782A000361036C03760381038C039703A103AC02
:10783A0003B703C103CC03D703E203EC03F7030244
:10784A00040C04170422042D04370442044D04577F
:10785A000462046D04780482048D049804A204ADC1
:10786A0004B804C204CD04D804E304ED04F8040304
:10787A00050D05180523052E05380543054E05583F
:10788A000563056E05790583058E059905A305AE81
:10789A0005B905C405CE05D905E405EE05F90504C3
:1078AA00060F06190624062F06390644064F065AFD
:1078BA000664066F067A0684068F069A06A406AF41
:1078CA0006BA06C506CF06DA06E506EF06FA060583
:1078DA000710071A07250730073A07450750075BBD
:1078EA0007650770077B07850790079B07A607B000
:1078FA0007BB07C607D007DB07E607F107FB070642
:10790A000811081B08260831083C08000007000F68
:10791A000017001F0027002F0036003E0046004EC9
:10792A000056005E0066006D0075007D0085008DC2
:10793A000095009C00A400AC00B400BC00C400CCBC
:10794A0000D300DB00E300EB00F300FB0003010AB5
:10795A000112011A0122012A0132013901410149A8
:10796A0001510159016101690170017801800188A1
:10797A0001900198019F01A701AF01B701BF01C79B
:10798A0001CF01D601DE01E601EE01F601FE010694
:10799A00020D0215021D0225022D0235023C024487
:1079AA00024C0254025C0264026C0273027B028380
:1079BA00028B0293029B02A202AA02B202BA02C27A
:1079CA0002CA02D202D902E102E902F102F9020173
:1079DA000309031003180320032803300338033F65
:1079EA000347034F0357035F0367036F0376037E5F
:1079FA000386038E0396039E03A603E102E902F2BD
:107A0A0002FA0203030C0314031D0325032E033792
:107A1A00033F0348035103590362036A0373037C58
:107A2A000384038D0396039E03A703AF03B803C120
:107A3A0003C903D203DB03E303EC03F403FD0306E8
:107A4A00040E041704200428043104390442044BA8
:107A5A000453045C0465046D0476047E0487049070
:107A6A00049804A104AA04B204BB04C304CC04D538
:107A7A0004DD04E604EF04F7040005080511051AFD
:107A8A000522052B0534053C0545054D0556055FC0
:107A9A000567057005790581058A0592059B05A488
:107AAA0005AC05B505BE05C605CF05D705E005E950
:107ABA0005F105FA0503060B0614061C0625062E13
:107ACA000636063F0648065006590661066A0673D8
:107ADA00067B0684068D0695069E06A606AF06B8A0
:107AEA0006C006C906D20600000200050007000A01
:107AFA00000C000F0011001400160019001C001ED3
:107B0A000021002300260028002B002D003000331E
:107B1A0000350038003A003D003F0042004400476B
:107B2A00004A004C004F0051005400560059005BB7
:107B3A00005E0061006300660068006B006D007003
:107B4A00007200750078007A007D007F0082008450
:107B5A0000870089008C008F00910094009600999C
:107B6A00009B009E00A000A300A500A800AB00ADEA
:107B7A0000B000B200B500B700BA00BC00BF00C236
:107B8A0000C400C700C900CC00CE00D100D300D683
:107B9A0000D900DB00DE00E000E300E500E800EACF
:107BAA0000ED00F000F200F500F700FA00FC00FF1B
:107BBA000001010401070109010C010E0111011361
:107BCA0001160118011B011E01000000000000003F
:107BDA00000000000000000000000000000000009B
:107BEA00000000000000000000000000000000008B
:107BFA00000000000000000000000000000000007B
:107C0A00000000000000000000000000000000006A
:107C1A00000000000000000000000000000000005A
:107C2A00000000000000000000000000000000004A
:107C3A00000000000000000000000000000000003A
:107C4A00000000000000000000000000000000002A
:107C5A00000000000000000000000000000000001A
:107C6A00000000000000000000000000000000000A
:107C7A0000000000000000000000000000000000FA
:107C8A0000000000000000000000000000000000EA
:107C9A0000000000000000000000000000000000DA
:107CAA0000000006000D0013001A00210027002E14
:107CBA000035003B00420049004F0056005D00635A
:107CCA00006A00710077007E0085008B009200999F
:107CDA00009F00A600AD00B300BA00C100C700CEE5
:107CEA0000D500DB00E200E900EF00F600FD00032A
:107CFA00010A01110117011E0125012B0132013967
:107D0A00013F0146014D0153015A01610167016EAC
:107D1A000175017B01820189018F0196019D01A3F1
:107D2A0001AA01B101B701BE01C501CB01D201D936
:107D3A0001DF01E601ED01F301FA01010207020E7A
:107D4A000215021B02220229022F0236023D0243B9
:107D5A00024A02510257025E0265026B02720279FE
:107D6A000200000B00170022002E003900450051C6
:107D7A00005C00680073007F008A009600A200ADD4
:107D8A0000B900C400D000DB00E700F300FE000ADF
:107D9A0001150121012D01380144014F015B0166E2
:107DAA000172017E0189019501A001AC01B701C3ED
:107DBA0001CF01DA01E601F101FD010802140220F6
:107DCA00022B02370242024E025A02650271027CFB
:107DDA0002880293029F02AB02B602C202CD02D906
:107DEA0002E402F002FC02070313031E032A03350E
:107DFA000341034D03580364036F037B03870301A5
:107E0A00000800400000020010008001000A00641F
:107E1A0000E8031027010010000001001041542B54
:107E2A0043575341503D222573222C222573222C7D
:107E3A00312C25730D0A0041542B554152543D31C2
:107E4A0031353230302C382C312C302C300D0A00A0
:107E5A0041542B554152543D393630302C382C314F
:107E6A002C302C300D0A0041542B434950534552B3
:107E7A005645523D312C353030300D0A0041542BD5
:107E8A0043574A41503D222573222C222573220D45
:107E9A000A0041542B43495053544152543D2564DE
:107EAA002C25730D0A0041542B43495053454E4427
:107EBA003D25642C25640D0A0030313233343536C1
:107ECA00373839414243444546003031323334353C
:107EDA00363738396162636465660041542B434919
:107EEA005053544152543D25730D0A0041542B43BB
:107EFA0049504D4F44453D300D0A0041542B4349EA
:107F0A00504D4F44453D310D0A0041542B434950D1
:107F1A004D55583D300D0A0041542B43574D4F449F
:107F2A00453D310D0A0041542B4349504D55583DAA
:107F3A00310D0A0041542B43574D4F44453D320DF4
:107F4A000A0041542B43574D4F44453D330D0A0017
:107F5A0041542B43574D4F44453F0D0A0022257388
:107F6A00222C222573222C2573003139322E3136E8
:107F7A00382E342E310041542B43575141500D0AAB
:107F8A00007A7834353232333331002B43574D4F30
:107F9A0044453A31002B43574D4F44453A3200434A
:107FAA004F4E4E45435445440041542B5253540DB1
:107FBA000A0053454E44204F4B00434F4E4E454313
:107FCA005400286E756C6C2900414C524541590089
:107FDA0072656164790041540D0A00353030300011
:107FEA004B454E0054435000554450003E2000007B
:067FFA000021003400002C
:020000040020DA
:08000000FFFFFFFFFFFFFFFF00
:020000040030CA
:0E000000FF061F1EFF8081FF0FC00FE00F40A4
:00000001FF
