:0400000007EF00F016
:100008006E825AED0FF0B7EF14F0220E376E000E25
:10001800386E46EF04F0250E3E18D8B40AD01EC03C
:10002800D9FF1FC0DAFF3EC0DFFF1E4A1F2A46EF76
:1000380004F0000E3D6E000E3C6E000E406E000E89
:100048003F6E09D03F8605D03F8003D0408601D05F
:100058003F84204A212A20C0F6FF21C0F7FF08006C
:10006800F550200AD8B4F0D7030AD8B4EFD70E0A4F
:10007800D8B4E8D71D0AD8B4EBD73FB63F9420C010
:10008800F6FF21C0F7FF0800F550C6EC15F0D8A020
:1000980033D0000E3D6E000E3C6E3CC012F03DC0E9
:1000A80013F0000E156E0A0E146E7EEC15F012C0D9
:1000B8003CF013C03DF0D00E286EFF0E296E20C014
:1000C800F6FF21C0F7FF0800F5502A6E2B6A28506A
:1000D8002A2629502B222A503C262B503D22204AE2
:1000E800212A20C0F6FF21C0F7FF0800F550C6EC12
:1000F80015F0D8A018D0D1D720C0F6FF21C0F7FF3F
:100108000800F5502A0AD8A40ED037C0D9FF38C045
:10011800DAFFDECF3CF0DDCF3DF0020E3726000ED1
:100128003822204A212A20C0F6FF21C0F7FF080004
:10013800F5502E0AD8A436D0408C204A212A20C057
:10014800F6FF21C0F7FF0800F5502A0AD8A40DD001
:1001580037C0D9FF38C0DAFFDF503B6E020E3726B2
:10016800000E3822204A212ADBD0000E3B6E0FD029
:1001780020C0F6FF21C0F7FF0800F5CF28F03B505C
:100188000A0DF3502824D00F3B6E204A212A20C0A4
:10019800F6FF21C0F7FF0800F550C6EC15F0D8A00F
:1001A800BFD0E6D7000E3B6EBBD03F8CE2D0408A72
:1001B8003F8A3F8EDED037C0D9FF38C0DAFFDECFA6
:1001C80033F0DDCF34F0020E3726000E38223350DC
:1001D8003410D8A404D0D10E336E7F0E346E000EC6
:1001E800366E000E356E02D0354A362A3550332425
:1001F800286E36503420296E28C0F6FF29C0F7FF34
:10020800F86A050EF76403D00800F55005D0F6CF5C
:10021800E1FFF7CFE2FFE7500009D8A4E5D73B504C
:10022800D8B410D03BC028F0296A28BE290635501A
:10023800285C36502958D8B005D03B50356E366A00
:1002480035BE36063C50355C3D503658D8B005D0E2
:1002580035503C5E36503D5A04D0000E3D6E000EBF
:100268003C6E3FA609D02AD01EC0D9FF1FC0DAFFB6
:10027800200EDF6E1E4A1F2A3C06D8A03D063C28E9
:10028800F3E13D28D8B41AD0EFD733C0F6FF34C015
:10029800F7FFF86A1EC0D9FF1FC0DAFF050EF76422
:1002A80003D00800F55005D0F6CFE1FFF7CFE2FF05
:1002B800E750DF6E334A342A1E4A1F2A3506D8A073
:1002C80036063528E2E13628D8A4DFD73FB609D06C
:1002D800D9D21EC0D9FF1FC0DAFF200EDF6E1E4A1A
:1002E8001F2A3C06D8A03D063C28F3E13D28D8B497
:1002F800C9D2EFD737C0D9FF38C0DAFFDF503E6E1A
:10030800020E3726000E38223E0E336E000E346E73
:10031800000E366E010E356E82D7C00E3F1229D000
:1003280020C0F6FF21C0F7FF204A212A0800F5CF98
:100338003EF03E50000AD8B4B2D2580AD8B438D7E2
:100348003B0AD8B4D7D7070AD8B413D00D0AD8B403
:1003580010D0060AD8B429D71F0AD8B428D7030A58
:10036800D8B429D7060AD8B4D8D70D0AD8B421D713
:10037800CBD7C00E3F14286E000E4014296E2850AB
:100388002910D8A415D037C0D9FF38C0DAFFDECF7E
:1003980039F0DDCF3AF0020E3726000E38223AAE99
:1003A80013D0030E3F12396C3A1ED8B03A2A0CD03B
:1003B80037C0D9FF38C0DAFFDECF39F0DDCF3AF0E9
:1003C800020E3726000E38223B50D8A44ED03950A2
:1003D8003A10D8A44AD03B2A48D0010E3E6E050EEA
:1003E8003E18D8B450D03E50020D070EF324F66ED6
:1003F8007E0EF420F76E0900F550395C0900F550BF
:100408003A58D8A040D03E2AEAD7010E3E6E040ED4
:100418003E18D8B438D03E50020D110EF324F66EB3
:100428007E0EF420F76E0900F550395C0900F5508E
:100438003A58D8A028D03E2AEAD7010E3E6E060EBA
:100448003E18D8B420D03E50020DFB0EF324F66EB1
:100458007D0EF420F76E0900F550395C0900F5505F
:100468003A58D8A010D03E2AEAD73F50C00B000A0D
:10047800D8B4B3D7400AD8B4E0D7C00AD8B4C5D7DF
:10048800400AD8B4AAD73E50800A286E3B50800A4A
:10049800285CD8B003D03BC03EF009D03B50800A5E
:1004A800286E3E50800A285CD8A03EC03BF03C50E5
:1004B8003D10D8B40DD0030E3F14286E000E401422
:1004C800296E28502910D8B403D03C06D8A03D0680
:1004D80040AC16D0800E3BBE7F0E286E3C503B5C75
:1004E8003D50800A2858D8B007D03B503C5E000EDB
:1004F8003BBEFF0E3D5A04D0000E3D6E000E3C6E12
:10050800C40E286E080E296E3FC02AF040C02BF09A
:1005180028502A1629502B16400E2A180CE1080ECE
:100528002B18D8A408D03C503D10D8B428D03C068D
:10053800D8A03D0624D0C00E286E080E296E3FC0F4
:100548002AF040C02BF028502A1629502B16800E6E
:100558002A1815E1080E2B18D8A411D03DBE0BD0CF
:100568003D5004E1030E3C5CD8A005D0FE0E3C26AD
:10057800FF0E3D2204D0000E3D6E000E3C6E800E34
:100588003EBE7F0E286E3C503E5C3D50800A285887
:10059800D8B007D03E503C5E000E3EBEFF0E3D5A1E
:1005A80004D0000E3D6E000E3C6E3FA458D0030EE2
:1005B8003F14286E000E4014296E28502910D8B414
:1005C80009D01EC0D9FF1FC0DAFF2D0E0AD01E4A5F
:1005D8001F2A35D03FA007D01EC0D9FF1FC0DAFFA1
:1005E800200EDF6EF4D7C00E286E080E296E3FC0AD
:1005F8002AF040C02BF028502A1629502B16800EBE
:100608002A181DE1080E2B18D8A419D01EC0D9FF2E
:100618001FC0DAFF300EDF6E1E4A1F2A3FBA04D011
:10062800000E2E6E780E03D0000E2E6E580E2D6E14
:100638001EC0D9FF1FC0DAFF2DC0DFFFC8D73C504E
:100648003D10D8B404D11EC0D9FF1FC0DAFF300E48
:10065800DF6E1E4A1F2A3C06D8A03D06F0D73C5044
:100668003D10D8A43FB60FD01EC0D9FF1FC0DAFF77
:10067800200EDF6E1E4A1F2A3C06D8A03D063C50BD
:100688003D10D8A4F1D7030E3F14286E000E401475
:10069800296E28502910D8B409D01EC0D9FF1FC010
:1006A800DAFF2D0E0AD01E4A1F2A09D03FA007D014
:1006B8001EC0D9FF1FC0DAFF200EDF6EF4D7C00EB0
:1006C800286E080E296E3FC02AF040C02BF0285033
:1006D8002A1629502B16400E2A180BE1080E2B1843
:1006E800D8A407D01EC0D9FF1FC0DAFF300EDF6EB6
:1006F800ACD0C00E286E080E296E3FC02AF040C04C
:100708002BF028502A1629502B16800E2A1803E1A0
:10071800080E2B18D8A49BD01EC0D9FF1FC0DAFF23
:10072800300EDF6E1E4A1F2A3FBA04D0000E306E0C
:10073800780E03D0000E306E580E2F6E1EC0D9FFF3
:100748001FC0DAFF2FC0DFFF80D03B50020D070E1D
:10075800F324F66E7E0EF420F76E0900F5CF14F040
:100768000A00F5CF15F039C012F03AC013F06DEC5D
:1007780014F012C019F013C01AF0000E1C6E0A0E05
:100788001B6E96EC14F0195049D039C012F03AC0DB
:1007980013F03B50020D110EF324F66E7E0EF4207A
:1007A800F76E0900F5CF14F00A00F5CF15F06DECDF
:1007B80014F012500F0B2C6E3FBA04D0C60E316ED7
:1007C8007E0E03D0B50E316E7E0E326E2C50010DAA
:1007D80031C028F032C029F0F3502826F4502922DD
:1007E80028C0F6FF29C0F7FF0800F5CF3EF027D054
:1007F80039C012F03AC013F03B50020DFB0EF3243F
:10080800F66E7D0EF420F76E0900F5CF14F00A009D
:10081800F5CF15F06DEC14F01250070B300F3E6E4B
:100828000ED03F50C00B000AD8B48FD7400AD8B4B6
:10083800DFD7C00AD8B4A9D7400AD8B486D71EC013
:10084800D9FF1FC0DAFF3EC0DFFF1E4A1F2A3B0642
:100858003B28D8A4E6D73FB63DBE14D03D5003E1AF
:100868003C04D8A00FD01EC0D9FF1FC0DAFF200E4D
:10087800DF6E1E4A1F2A3C06D8A03D063C503D109C
:10088800D8A4F1D720C0F6FF21C0F7FF204A212ABB
:100898000800F5CF3EF03E50D8A40FEF00F01EC080
:1008A800D9FF1FC0DAFF000EDF6E120092D1C230EE
:1008B800E8320F0B00018B6F00018BB126D0000EC0
:1008C8003B6EC00E3C6E3F0E3D6E000E386E800EC5
:1008D800396E3F0E3A6E5AC01AF05BC01BF091ECAD
:1008E80015F01AC035F01BC036F01CC037F0FAEC12
:1008F8000DF035C056F036C057F037C058F0C3EC8D
:100908000EF063D18DC08CF087D1000E3B6EC00E07
:100918003C6E3F0E3D6E000E386E800E396E3F0EF7
:100928003A6E5AC01AF05BC01BF091EC15F01AC071
:1009380035F01BC036F01CC037F031EC0DF035C077
:1009480056F036C057F037C058F0C3EC0EF03DD122
:10095800C230E8320F0B00018B6F00018BB129D038
:10096800C230E8320F0B020AD8A456D1000E3B6EF3
:10097800C00E3C6E3F0E3D6E000E386E800E396E16
:100988003F0E3A6E5AC01AF05BC01BF091EC15F09E
:100998001AC035F01BC036F01CC037F068EC0CF0FC
:1009A80035C056F036C057F037C058F0C3EC0EF0DB
:1009B8000CD1000E3B6EC00E3C6E3F0E3D6E000E1D
:1009C800386E800E396E3F0E3A6E5AC01AF05BC010
:1009D8001BF091EC15F01AC035F01BC036F01CC0A6
:1009E80037F09FEC0BF035C056F036C057F037C0E3
:1009F80058F0C3EC0EF0E9D0C230E8320F0B00011A
:100A08008B6F00018BB123D0000E3B6EC00E3C6E85
:100A18003F0E3D6E000E386E800E396E3F0E3A6EF8
:100A28005AC01AF05BC01BF091EC15F01AC035F0F3
:100A38001BC036F01CC037F0D6EC0AF035C056F0B3
:100A480036C057F037C058F0C3EC0EF0BED0000ED9
:100A58003B6EC00E3C6E3F0E3D6E000E386E800E33
:100A6800396E3F0E3A6E5AC01AF05BC01BF091EC1B
:100A780015F01AC035F01BC036F01CC037F00DEC6D
:100A88000AF035C056F036C057F037C058F0C3ECFE
:100A98000EF09BD0C230E8320F0B00018B6F0001C3
:100AA8008BB123D0000E3B6EC00E3C6E3F0E3D6EE8
:100AB800000E386E800E396E3F0E3A6E5AC01AF02C
:100AC8005BC01BF091EC15F01AC035F01BC036F076
:100AD8001CC037F044EC09F035C056F036C057F06A
:100AE80037C058F0C3EC0EF070D0000E3B6EC00E4D
:100AF8003C6E3F0E3D6E000E386E800E396E3F0E16
:100B08003A6E5AC01AF05BC01BF091EC15F01AC08F
:100B180035F01BC036F01CC037F07BEC08F035C050
:100B280056F036C057F037C058F0C3EC0EF04DD031
:100B3800C230E8320F0B00018B6F00018BB123D05C
:100B4800000E3B6EC00E3C6E3F0E3D6E000E386EC2
:100B5800800E396E3F0E3A6E5AC01AF05BC01BF019
:100B680091EC15F01AC035F01BC036F01CC037F0F8
:100B7800B2EC07F035C056F036C057F037C058F021
:100B8800C3EC0EF022D0000E3B6EC00E3C6E3F0E42
:100B98003D6E000E386E800E396E3F0E3A6E5AC0AA
:100BA8001AF05BC01BF091EC15F01AC035F01BC0B1
:100BB80036F01CC037F0E9EC06F035C056F036C008
:100BC80057F037C058F0C3EC0EF0565000018D6F47
:100BD80099D6C230E8320F0B00018B6F00018B51A0
:100BE800126E136A000E156E020E146E0EEC13F0E0
:100BF8001350000AD8A410D01250000AD8B457D6FF
:100C0800010AD8B4A5D6030AD8B4F6D6010AD8B4CE
:100C180041D7070AD8B48CD700018C5112001CC0E8
:100C280020F0216A226A1B34203601E321802050FB
:100C3800256E1FC020F0216A226A1E34203601E387
:100C480021802050246E2550D8B40BD02450255C28
:100C5800D8B00ED0255000082424206E180E206429
:100C680007D01DC01AF01EC01BF01FC01CF01200D8
:100C78002450D8B40BD02550245CD8B00ED02450C2
:100C880000082524206E180E206407D01AC01AF018
:100C98001BC01BF01CC01CF01200060E236E1CBEED
:100CA800238E1FBE238C1B8EFF0E1A16FF0E1B16DB
:100CB800000E1C161E8EFF0E1D16FF0E1E16000EB1
:100CC8001F162450255CD8B01BD0D8901D361E3670
:100CD8001F36240625502418D8B40DD0230623C067
:100CE80020F0070E2016D8B406D0EFD7D8901C32C3
:100CF8001B321A32252A24502518D8B41FD0F6D70B
:100D08002550245CD8B01AD0D8901A361B361C3619
:100D1800250625502418D8B40DD0230623C020F06A
:100D2800070E2016D8B406D0EFD7D8901F321E323F
:100D38001D32242A24502518D8A4F7D723AE0CD066
:100D4800FF0E1A1AFF0E1B1AFF0E1C1A010E1A2686
:100D5800000E1B22000E1C2223AC0CD0FF0E1D1A05
:100D6800FF0E1E1AFF0E1F1A010E1D26000E1E2250
:100D7800000E1F22000E236E1A501D261B501E2225
:100D88001C501F221FAE0ED0FF0E1D1AFF0E1E1A7A
:100D9800FF0E1F1A010E1D26000E1E22000E1F2216
:100DA800010E236E1DC012F01EC013F01FC014F0F8
:100DB80025C015F023C016F071EC12F012C01AF01D
:100DC80013C01BF014C01CF012003BC03EF03CC026
:100DD8003FF03DC040F038C041F039C042F03AC061
:100DE80043F07DC150F07EC151F07FC152F07DC10A
:100DF80050F07EC151F07FC152F07AC11AF07BC128
:100E08001BF07CC11CF041C01DF042C01EF043C065
:100E18001FF013EC06F01AC053F01BC054F01CC0AE
:100E280055F053C026F054C027F055C028F03EC0F6
:100E38001DF03FC01EF040C01FF053C01AF054C050
:100E48001BF055C01CF013EC06F01AC029F01BC0AB
:100E58002AF01CC02BF0DAEC10F026C04DF027C0A9
:100E68004EF028C04FF04DC029F04EC02AF04FC0B8
:100E78002BF035C01DF036C01EF037C01FF050C033
:100E880012F051C013F052C014F0A3EC15F012C0C8
:100E98001AF013C01BF014C01CF013EC06F01AC0B3
:100EA80026F01BC027F01CC028F060EC10F026C00C
:100EB80047F027C048F028C049F047C01AF048C09A
:100EC8001BF049C01CF050C01DF051C01EF052C0AC
:100ED8001FF013EC06F01AC04AF01BC04BF01CC000
:100EE8004CF0000E1D6E800E1E6E3F0E1F6E4DC024
:100EF80012F04EC013F04FC014F0A3EC15F012C05E
:100F08001AF013C01BF014C01CF013EC06F01AC042
:100F180026F01BC027F01CC028F053C029F054C08D
:100F28002AF055C02BF060EC10F026C044F027C022
:100F380045F028C046F044C07AF145C07BF146C070
:100F48007CF14AC07DF14BC07EF14CC07FF14AC0B4
:100F580035F04BC036F04CC037F012003BC03EF0C5
:100F68003CC03FF03DC040F038C041F039C042F0CD
:100F78003AC043F083C150F084C151F085C152F0AA
:100F880083C150F084C151F085C152F080C11AF07C
:100F980081C11BF082C11CF041C01DF042C01EF08F
:100FA80043C01FF013EC06F01AC053F01BC054F0F6
:100FB8001CC055F053C026F054C027F055C028F087
:100FC8003EC01DF03FC01EF040C01FF053C01AF0D5
:100FD80054C01BF055C01CF013EC06F01AC029F0E1
:100FE8001BC02AF01CC02BF0DAEC10F026C04DF024
:100FF80027C04EF028C04FF04DC029F04EC02AF04F
:101008004FC02BF035C01DF036C01EF037C01FF0A2
:1010180050C012F051C013F052C014F0A3EC15F0F8
:1010280012C01AF013C01BF014C01CF013EC06F029
:101038001AC026F01BC027F01CC028F060EC10F086
:1010480026C047F027C048F028C049F047C01AF02A
:1010580048C01BF049C01CF050C01DF051C01EF024
:1010680052C01FF013EC06F01AC04AF01BC04BF038
:101078001CC04CF0000E1D6E800E1E6E3F0E1F6EC3
:101088004DC012F04EC013F04FC014F0A3EC15F091
:1010980012C01AF013C01BF014C01CF013EC06F0B9
:1010A8001AC026F01BC027F01CC028F053C029F036
:1010B80054C02AF055C02BF060EC10F026C044F064
:1010C80027C045F028C046F044C080F145C081F1F2
:1010D80046C082F14AC083F14BC084F14CC085F10F
:1010E8004AC035F04BC036F04CC037F012003BC058
:1010F8003EF03CC03FF03DC040F038C041F039C040
:1011080042F03AC043F089C150F08AC151F08BC116
:1011180052F089C150F08AC151F08BC152F086C19A
:101128001AF087C11BF088C11CF041C01DF042C0F5
:101138001EF043C01FF013EC06F01AC053F01BC09A
:1011480054F01CC055F053C026F054C027F055C0C9
:1011580028F03EC01DF03FC01EF040C01FF053C035
:101168001AF054C01BF055C01CF013EC06F01AC05E
:1011780029F01BC02AF01CC02BF0DAEC10F026C0B6
:101188004DF027C04EF028C04FF04DC029F04EC09A
:101198002AF04FC02BF035C01DF036C01EF037C006
:1011A8001FF050C012F051C013F052C014F0A3EC5D
:1011B80015F012C01AF013C01BF014C01CF013EC89
:1011C80006F01AC026F01BC027F01CC028F060ECFF
:1011D80010F026C047F027C048F028C049F047C0A3
:1011E8001AF048C01BF049C01CF050C01DF051C097
:1011F8001EF052C01FF013EC06F01AC04AF01BC0D4
:101208004BF01CC04CF0000E1D6E800E1E6E3F0E83
:101218001F6E4DC012F04EC013F04FC014F0A3EC77
:1012280015F012C01AF013C01BF014C01CF013EC18
:1012380006F01AC026F01BC027F01CC028F053C0C7
:1012480029F054C02AF055C02BF060EC10F026C0ED
:1012580044F027C045F028C046F044C086F145C098
:1012680087F146C088F14AC089F14BC08AF14CC069
:101278008BF14AC035F04BC036F04CC037F0120045
:101288003BC03EF03CC03FF03DC040F038C041F0AC
:1012980039C042F03AC043F08FC150F090C151F0CC
:1012A80091C152F08FC150F090C151F091C152F0EC
:1012B8008CC11AF08DC11BF08EC11CF041C01DF00D
:1012C80042C01EF043C01FF013EC06F01AC053F0E2
:1012D8001BC054F01CC055F053C026F054C027F072
:1012E80055C028F03EC01DF03FC01EF040C01FF0A2
:1012F80053C01AF054C01BF055C01CF013EC06F094
:101308001AC029F01BC02AF01CC02BF0DAEC10F030
:1013180026C04DF027C04EF028C04FF04DC029F030
:101328004EC02AF04FC02BF035C01DF036C01EF05D
:1013380037C01FF050C012F051C013F052C014F063
:10134800A3EC15F012C01AF013C01BF014C01CF067
:1013580013EC06F01AC026F01BC027F01CC028F0BA
:1013680060EC10F026C047F027C048F028C049F0CC
:1013780047C01AF048C01BF049C01CF050C01DF00F
:1013880051C01EF052C01FF013EC06F01AC04AF00C
:101398001BC04BF01CC04CF0000E1D6E800E1E6E64
:1013A8003F0E1F6E4DC012F04EC013F04FC014F028
:1013B800A3EC15F012C01AF013C01BF014C01CF0F7
:1013C80013EC06F01AC026F01BC027F01CC028F04A
:1013D80053C029F054C02AF055C02BF060EC10F02F
:1013E80026C044F027C045F028C046F044C08CF120
:1013F80045C08DF146C08EF14AC08FF14BC090F1C7
:101408004CC091F14AC035F04BC036F04CC037F0B3
:1014180012003BC03EF03CC03FF03DC040F038C039
:1014280041F039C042F03AC043F095C150F096C13E
:1014380051F097C152F095C150F096C151F097C143
:1014480052F092C11AF093C11BF094C11CF041C034
:101458001DF042C01EF043C01FF013EC06F01AC086
:1014680053F01BC054F01CC055F053C026F054C0B4
:1014780027F055C028F03EC01DF03FC01EF040C008
:101488001FF053C01AF054C01BF055C01CF013ECE9
:1014980006F01AC029F01BC02AF01CC02BF0DAECA9
:1014A80010F026C04DF027C04EF028C04FF04DC0B8
:1014B80029F04EC02AF04FC02BF035C01DF036C0C1
:1014C8001EF037C01FF050C012F051C013F052C0C8
:1014D80014F0A3EC15F012C01AF013C01BF014C0DE
:1014E8001CF013EC06F01AC026F01BC027F01CC035
:1014F80028F060EC10F026C047F027C048F028C05C
:1015080049F047C01AF048C01BF049C01CF050C051
:101518001DF051C01EF052C01FF013EC06F01AC0A7
:101528004AF01BC04BF01CC04CF0000E1D6E800E24
:101538001E6E3F0E1F6E4DC012F04EC013F04FC00E
:1015480014F0A3EC15F012C01AF013C01BF014C06D
:101558001CF013EC06F01AC026F01BC027F01CC0C4
:1015680028F053C029F054C02AF055C02BF060EC85
:1015780010F026C044F027C045F028C046F044C00B
:1015880092F145C093F146C094F14AC095F14BC021
:1015980096F14CC097F14AC035F04BC036F04CC0BC
:1015A80037F012003BC03EF03CC03FF03DC040F079
:1015B80038C041F039C042F03AC043F0FAC050F0A8
:1015C800FBC051F0FCC052F0FAC050F0FBC051F023
:1015D800FCC052F098C11AF099C11BF09AC11CF0D6
:1015E80041C01DF042C01EF043C01FF013EC06F0CE
:1015F8001AC053F01BC054F01CC055F053C026F05D
:1016080054C027F055C028F03EC01DF03FC01EF062
:1016180040C01FF053C01AF054C01BF055C01CF056
:1016280013EC06F01AC029F01BC02AF01CC02BF0DE
:10163800DAEC10F026C04DF027C04EF028C04FF06D
:101648004DC029F04EC02AF04FC02BF035C01DF018
:1016580036C01EF037C01FF050C012F051C013F052
:1016680052C014F0A3EC15F012C01AF013C01BF00E
:1016780014C01CF013EC06F01AC026F01BC027F0AB
:101688001CC028F060EC10F026C047F027C048F0D6
:1016980028C049F047C01AF048C01BF049C01CF0E8
:1016A80050C01DF051C01EF052C01FF013EC06F0E0
:1016B8001AC04AF01BC04BF01CC04CF0000E1D6E47
:1016C800800E1E6E3F0E1F6E4DC012F04EC013F0FE
:1016D8004FC014F0A3EC15F012C01AF013C01BF0A1
:1016E80014C01CF013EC06F01AC026F01BC027F03B
:1016F8001CC028F053C029F054C02AF055C02BF064
:1017080060EC10F026C044F027C045F028C046F031
:1017180044C098F145C099F146C09AF14AC0FAF020
:101728004BC0FBF04CC0FCF04AC035F04BC036F063
:101738004CC037F012003BC03EF03CC03FF03DC00B
:1017480040F038C041F039C042F03AC043F0FDC023
:1017580050F0FEC051F0FFC052F0FDC050F0FEC086
:1017680051F0FFC052F09BC11AF09CC11BF09DC103
:101778001CF041C01DF042C01EF043C01FF013EC26
:1017880006F01AC053F01BC054F01CC055F053C0EB
:1017980026F054C027F055C028F03EC01DF03FC0C9
:1017A8001EF040C01FF053C01AF054C01BF055C0C3
:1017B8001CF013EC06F01AC029F01BC02AF01CC05C
:1017C8002BF0DAEC10F026C04DF027C04EF028C000
:1017D8004FF04DC029F04EC02AF04FC02BF035C055
:1017E8001DF036C01EF037C01FF050C012F051C0B7
:1017F80013F052C014F0A3EC15F012C01AF013C085
:101808001BF014C01CF013EC06F01AC026F01BC025
:1018180027F01CC028F060EC10F026C047F027C065
:1018280048F028C049F047C01AF048C01BF049C02A
:101838001CF050C01DF051C01EF052C01FF013EC38
:1018480006F01AC04AF01BC04BF01CC04CF0000E4A
:101858001D6E800E1E6E3F0E1F6E4DC012F04EC0E4
:1018680013F04FC014F0A3EC15F012C01AF013C017
:101878001BF014C01CF013EC06F01AC026F01BC0B5
:1018880027F01CC028F053C029F054C02AF055C0D6
:101898002BF060EC10F026C044F027C045F028C0BB
:1018A80046F044C09BF145C09CF146C09DF14AC03A
:1018B800FDF04BC0FEF04CC0FFF04AC035F04BC005
:1018C80036F04CC037F012003BC03EF03CC03FF051
:1018D8003DC040F038C041F039C042F03AC043F052
:1018E8005CC050F05DC051F05EC052F05CC050F07A
:1018F8005DC051F05EC052F09EC11AF09FC11BF04E
:10190800A0C11CF041C01DF042C01EF043C01FF032
:1019180013EC06F01AC053F01BC054F01CC055F06D
:1019280053C026F054C027F055C028F03EC01DF023
:101938003FC01EF040C01FF053C01AF054C01BF047
:1019480055C01CF013EC06F01AC029F01BC02AF091
:101958001CC02BF0DAEC10F026C04DF027C04EF07A
:1019680028C04FF04DC029F04EC02AF04FC02BF0D0
:1019780035C01DF036C01EF037C01FF050C012F041
:1019880051C013F052C014F0A3EC15F012C01AF0B5
:1019980013C01BF014C01CF013EC06F01AC026F09C
:1019A8001BC027F01CC028F060EC10F026C047F0E0
:1019B80027C048F028C049F047C01AF048C01BF0BB
:1019C80049C01CF050C01DF051C01EF052C01FF09D
:1019D80013EC06F01AC04AF01BC04BF01CC04CF0C8
:1019E800000E1D6E800E1E6E3F0E1F6E4DC012F053
:1019F8004EC013F04FC014F0A3EC15F012C01AF04B
:101A080013C01BF014C01CF013EC06F01AC026F02B
:101A18001BC027F01CC028F053C029F054C02AF07E
:101A280055C02BF060EC10F026C044F027C045F0FC
:101A380028C046F044C09EF145C09FF146C0A0F1C1
:101A48004AC05CF04BC05DF04CC05EF04AC035F057
:101A58004BC036F04CC037F012003BC03EF03CC0E3
:101A68003FF03DC040F038C041F039C042F03AC0C4
:101A780043F05FC050F060C051F061C052F05FC0E9
:101A880050F060C051F061C052F0A1C11AF0A2C17B
:101A98001BF0A3C11CF041C01DF042C01EF043C0A2
:101AA8001FF013EC06F01AC053F01BC054F01CC012
:101AB80055F053C026F054C027F055C028F03EC05A
:101AC8001DF03FC01EF040C01FF053C01AF054C0B4
:101AD8001BF055C01CF013EC06F01AC029F01BC00F
:101AE8002AF01CC02BF0DAEC10F026C04DF027C00D
:101AF8004EF028C04FF04DC029F04EC02AF04FC01C
:101B08002BF035C01DF036C01EF037C01FF050C096
:101B180012F051C013F052C014F0A3EC15F012C02B
:101B28001AF013C01BF014C01CF013EC06F01AC016
:101B380026F01BC027F01CC028F060EC10F026C06F
:101B480047F027C048F028C049F047C01AF048C0FD
:101B58001BF049C01CF050C01DF051C01EF052C00F
:101B68001FF013EC06F01AC04AF01BC04BF01CC063
:101B78004CF0000E1D6E800E1E6E3F0E1F6E4DC087
:101B880012F04EC013F04FC014F0A3EC15F012C0C1
:101B98001AF013C01BF014C01CF013EC06F01AC0A6
:101BA80026F01BC027F01CC028F053C029F054C0F1
:101BB8002AF055C02BF060EC10F026C044F027C086
:101BC80045F028C046F044C0A1F145C0A2F146C086
:101BD800A3F14AC05FF04BC060F04CC061F04AC04E
:101BE80035F04BC036F04CC037F012003BC03EF029
:101BF8003CC03FF03DC040F038C041F039C042F031
:101C08003AC043F062C050F063C051F064C052F073
:101C180062C050F063C051F064C052F0A4C11AF021
:101C2800A5C11BF0A6C11CF041C01DF042C01EF0AA
:101C380043C01FF013EC06F01AC053F01BC054F059
:101C48001CC055F053C026F054C027F055C028F0EA
:101C58003EC01DF03FC01EF040C01FF053C01AF038
:101C680054C01BF055C01CF013EC06F01AC029F044
:101C78001BC02AF01CC02BF0DAEC10F026C04DF087
:101C880027C04EF028C04FF04DC029F04EC02AF0B2
:101C98004FC02BF035C01DF036C01EF037C01FF006
:101CA80050C012F051C013F052C014F0A3EC15F05C
:101CB80012C01AF013C01BF014C01CF013EC06F08D
:101CC8001AC026F01BC027F01CC028F060EC10F0EA
:101CD80026C047F027C048F028C049F047C01AF08E
:101CE80048C01BF049C01CF050C01DF051C01EF088
:101CF80052C01FF013EC06F01AC04AF01BC04BF09C
:101D08001CC04CF0000E1D6E800E1E6E3F0E1F6E26
:101D18004DC012F04EC013F04FC014F0A3EC15F0F4
:101D280012C01AF013C01BF014C01CF013EC06F01C
:101D38001AC026F01BC027F01CC028F053C029F099
:101D480054C02AF055C02BF060EC10F026C044F0C7
:101D580027C045F028C046F044C0A4F145C0A5F10D
:101D680046C0A6F14AC062F04BC063F04CC064F0B4
:101D78004AC035F04BC036F04CC037F0120058C09E
:101D880080F00001816B826B57340001803701E3DA
:101D980081810001805100018A6F00018A51D8A415
:101DA80009D0000E566E000E576E000E586E000ECB
:101DB800596E1200170E0001806F56C081F057C08F
:101DC80082F058C083F0000180290001846F05D09B
:101DD8000001D8908333823381330001842FF8D7F0
:101DE800000181510001856F578EFF0E5616FF0EB8
:101DF8005716000E581656500001866F57500001AE
:101E0800876F58500001886F0001896B8E0E0001A2
:101E18008A5F00018AAF19D000018A51800A8F0FAA
:101E2800D8B009D0000E566E000E576E000E586ED0
:101E3800000E596E12000001D89089338833873319
:101E4800863300018A3FF7D71AD0170E00018A653A
:101E580011D0000E566E000E576E000E586E000E12
:101E6800596E12000001D89086378737883789372E
:101E780000018A0700018A510001D8A4F3D70001A4
:101E880085510001D8B409D00001891F881F871F18
:101E9800866D000E87238823892386C056F087C065
:101EA80057F088C058F089C059F012000600FACFE0
:101EB80003F0FBCF04F0E9CF05F0EACF06F0E1CF5D
:101EC80007F0E2CF08F0D9CF09F0DACF0AF0F3CF64
:101ED8000BF0F4CF0CF0F6CF0DF0F7CF0EF0F8CFF3
:101EE8000FF0F5CF10F0F2A404D06550D8B4C28238
:101EF800F2949EAA38D0AECF11F00101DA517F0BCF
:101F0800016E310E01602ED00101DA517F0B016E96
:101F18000150010DA80EF324D96E010EF420DA6EDB
:101F280011C0DFFF010E016E0101DA517F0B026E55
:101F3800015002260101DA510218800B0218010132
:101F4800DA6F0101DA517F0B016E0150010DA80E05
:101F5800F324D96E010EF420DA6EDF50D8A402D033
:101F68000101DA8F9E9A9EAC07D09E9CC3CF66F083
:101F7800C4CFA7F1010E656E10C0F5FF0FC0F8FFC2
:101F88000EC0F7FF0DC0F6FF0CC0F4FF0BC0F3FF47
:101F98000AC0DAFF09C0D9FF08C0E2FF07C0E1FFA5
:101FA80006C0EAFF05C0E9FF04C0FBFF03C0FAFF53
:101FB8006E92110007EC16F0EEEC15F0B5EC15F08A
:101FC8004DEC11F0A80E216E010E226EAC0E236EA0
:101FD8007F0E246E50EC13F02150D8B4F3D757EC91
:101FE80015F0FFEC15F0F7EC15F0C294C296C29804
:101FF800C29A5FD0C230E8320F0B0001F86F010EB1
:102008000001F825126E136A000E1322000E156ED9
:102018000A0E146E0CEC14F012461246C250121836
:10202800C30B1218C26E6550D8B4FDD7A7C1E7F12B
:102038000101E86BC230E8320F0B0001F86FF96B51
:10204800010E0001F827000EF923DC0E0001F82527
:10205800D96E010E0001F921DA6EE7C15AF0E8C124
:102068005BF05AEC04F0DF6EC230E8320F0B000967
:10207800D8A41FD0210E0101DC6FDC0E416E010EC9
:10208800426E000E446E0C0E436E000E19EC12F0F8
:102098008BBA04D00001F86BF82B02D00001F86B62
:1020A8000001F83BF8478B500001F819DF0BF819CD
:1020B8008B6E000E656E9ED728C02CF02D6A2E6A96
:1020C80027342C3601E32D802C502F6E2F50D8A4A6
:1020D80007D0000E266E000E276E000E286E120026
:1020E8002BC02CF02D6A2E6A2A342C3601E32D8061
:1020F8002C50346E3450D8A407D0000E266E000E33
:10210800276E000E286E120034507B0F2F2628C031
:1021180034F02B50341A800E3416278E2A8EFF0E78
:102128002916FF0E2A16000E2B16000E306E000E12
:10213800316E000E326E070E336E26A006D029507F
:1021480030262A5031222B503222D890283227327A
:102158002632D89029362A362B36332EEED7090E5A
:10216800336E26A006D0295030262A5031222B5013
:102178003222D890283227322632D8903232313261
:102188003032332EEED730C012F031C013F032C0E7
:1021980014F02FC015F034C016F071EC12F012C014
:1021A80026F013C027F014C028F0120028C02CF025
:1021B8002D6A2E6A27342C3601E32D802C50336E7D
:1021C8003350D8A407D0000E266E000E276E000EDE
:1021D800286E12002BC02CF02D6A2E6A2A342C3659
:1021E80001E32D802C50346E3450D8A407D0000E53
:1021F800266E000E276E000E286E1200000E306E3E
:10220800000E316E000E326E3450890F335E28C0D6
:1022180034F02B50341A800E3416278EFF0E2616F3
:10222800FF0E2716000E28162A8EFF0E2916FF0EFF
:102238002A16000E2B16180E2F6ED890303631360F
:1022480032362950265C2A5027582B502858D8A0B7
:1022580007D02950265E2A50275A2B50285A3080FA
:10226800D8902636273628362F2EE7D730C012F0DA
:1022780031C013F032C014F033C015F034C016F07A
:1022880071EC12F012C026F013C027F014C028F029
:10229800120041EC15F06BEC15F011EC15F0ED0E99
:1022A800416E7F0E426E8E0E436E7F0E446EFC0EA4
:1022B800456E7F0E466E44EC14F00009D8B4EFD793
:1022C800240E256E7F0E266ECE0E276E7F0E286E8C
:1022D800000E296E000E2A6E010E2C6EF40E2B6E67
:1022E800B9EC11F00009D8B4EBD7E80E256E7E0ED4
:1022F800266ECE0E276E7F0E286E000E296E000EFB
:102308002A6E030E2C6EE80E2B6EB9EC11F0000944
:10231800D8B4EBD7400E256E7F0E266ECE0E276EF4
:102328007F0E286E000E296E000E2A6E010E2C6E8E
:10233800F40E2B6EB9EC11F00009D8B4EBD7630E8C
:10234800256E7E0E266ECE0E276E7F0E286E000E30
:10235800296E000E2A6E010E2C6EF40E2B6EB9EC4F
:1023680011F00009D8A41200EAD70101DA91DA9332
:10237800DA95DA97DA99DA9BDA9D25C012F026C049
:1023880013F0D3EC13F027502810D8A406D0295006
:102398002A10D8A402D0010E12002BC014F02CC0B1
:1023A80015F0D5EC15F027502810D8B422D02950B4
:1023B8002A10D8B41ED0010E2D6EA80E216E010E63
:1023C800226E27C023F028C024F050EC13F02166B9
:1023D8000ED0A80E216E010E226E29C023F02AC04D
:1023E80024F050EC13F0216602D0000E2D6E2D5013
:1023F800120027502810D8B40CD0A80E216E010E58
:10240800226E27C023F028C024F050EC13F021508E
:102418001200A80E216E010E226E29C023F02AC0D8
:1024280024F050EC13F0215012000001A26F21EEAD
:1024380066F010EE8CF0130EDBCFE3FFE806FCE24B
:10244800000E0001A16F000EA06F800E126E000E2C
:10245800136E41C014F042C015F02AEC15F0000EBE
:1024680000018B6F8C0E1E6E000E1F6EA20E206E6A
:102478007E0E216EA2C022F0236A43C024F044C01D
:1024880025F009EC00F08C0E256E000E266EF90E74
:10249800276E7F0E286E000E296E000E2A6E000E23
:1024A8002C6E1E0E2B6EB9EC11F0800E256E000EF0
:1024B800266EC90E276E7F0E286E000E296E000E3E
:1024C8002A6E000E2C6E1E0E2B6EB9EC11F0456EA6
:1024D80045500001A06FA16B12001550D8B405D06B
:1024E800125013101410D8A40CD0000E126E000E47
:1024F800136E000E146E1200152AD890143213327F
:102508001232000E1214176E000E1314186EFE0EFF
:102518001414196E175018101910D8B40CD0ECD721
:10252800152A010E1226000E1322000E1422D8902E
:10253800143213321232000E1214176E000E1314D6
:10254800186EFF0E1414196E175018101910D8B4FD
:1025580006D0E6D71506D89012361336143613BEB1
:1025680003D0020E1560F6D715A0139ED890153229
:10257800155014121650D8A4148E12C012F013C09D
:1025880013F014C014F012002E6E39D0320E256EDE
:102598007F0E266ECE0E276E7F0E286EB60E296E23
:1025A8007F0E2A6E090E2C6EC40E2B6EB9EC11F03C
:1025B80012004E0E256E7F0E266ECE0E276E7F0EF3
:1025C800286EB60E296E7F0E2A6E090E2C6EC40E6A
:1025D8002B6EB9EC11F012005C0E256E7F0E266E84
:1025E800CE0E276E7F0E286EB60E296E7F0E2A6ECF
:1025F800090E2C6EC40E2B6EB9EC11F012002E5081
:10260800000AD8B4C3D7010AD8B4D3D7030AD8A4C8
:102618001200E2D7000E176E15AE06D0146C151E08
:10262800D8B0152A010E176E13AE06D0126C131E01
:10263800D8B0132A010E171A000E196E000E186E64
:1026480014501510D8B41CD0010E166E04D0D890B2
:1026580014361536162A15AEFAD7D8901836193604
:102668001450125C15501358D8A005D01450125E9F
:102678001550135A1880D89015321432162EEDD7EB
:102688001750D8B404D0186C191ED8B0192A18C01D
:1026980012F019C013F0120031D021C018F022C076
:1026A80019F023C01AF024C01BF023C012F024C074
:1026B80013F0D7EC14F012C01CF013C01DF092EC0C
:1026C80013F018501910D8A405D021C021F022C049
:1026D80022F01200010E2124126E000E2220136E29
:1026E80023C0F6FF24C0F7FF0800F550146E156AE2
:1026F800F6EC14F012C021F013C022F02150221081
:10270800D8B407D021C0D9FF22C0DAFFDF50D8A43F
:10271800C4D7000E216E000E226E120033D018C0EE
:10272800D9FF19C0DAFFDF50D8B40FD018C0D9FFCD
:1027380019C0DAFFDF501E6E1AC0F6FF1BC0F7FF84
:102748000800F5501E18D8B419D01AC0F6FF1BC0DF
:10275800F7FF0800F5501E6E1F6A1E1E1F1E1E4A38
:102768001F2A18C0D9FF19C0DAFFDF50206E205089
:102778001E24186E000E1F20196E1200184A192AFE
:102788001A4A1B2A1C06D8A01D061C28C8E11D28A9
:10279800D8A4C5D7000E196E000E186E1200166860
:1027A8001768164A172A9EA8FED716501224146EC8
:1027B80017501320156E14C0F6FF15C0F7FFF86AFE
:1027C800050EF76403D00800F55005D0F6CFE1FFF9
:1027D800F7CFE2FFE750AD6E16501224146E175073
:1027E8001320156E14C0F6FF15C0F7FFF86A050E22
:1027F800F76403D00800F55005D0F6CFE1FFF7CF16
:10280800E2FFE7500009D8A4CCD7ACB21200FDD73C
:10281800000E176E13AE06D0126C131ED8B0132A12
:10282800010E176E15AE04D0146C151ED8B0152AFB
:1028380014501510D8B418D0010E166E04D0D890C4
:1028480014361536162A15AEFAD71450125C1550E0
:102858001358D8A004D01450125E1550135AD890AB
:1028680015321432162EF1D71750D8B404D0126C82
:10287800131ED8B0132A12C012F013C013F012009E
:10288800800E1E6E000E1F6E190E206E7E0E216EBB
:1028980041C022F042C023F043C024F044C025F0D8
:1028A80045C026F046C027F009EC00F0800E256EE2
:1028B800000E266ECE0E276E7F0E286E000E296E35
:1028C800000E2A6E030E2C6EE80E2B6EB9EC11F07A
:1028D8001200000E186E000E176E14501510D8B4A2
:1028E8001CD0010E166E04D0D89014361536162A50
:1028F80015AEFAD7D890173618361450125C155002
:102908001358D8A005D01450125E1550135A1780CA
:10291800D89015321432162EEDD717C012F018C001
:1029280013F012001B501C10D8B418D0010E1D6EE5
:1029380004D0D8901B361C361D2A1CAEFAD71B5063
:10294800195C1C501A58D8A004D01B50195E1C5092
:102958001A5AD8901C321B321D2EF1D719C019F003
:102968001AC01AF0120002EE00F0980EEE6AE8069D
:10297800FDE101EE00F0DC0EEE6AE806FDE1000183
:10298800FF6BFE6BFD6BFC6BFB6BFA6B00EE5CF098
:10299800120EEE6AE806FDE16E906E92000EF86E79
:1029A8000001DEEF0FF012C016F013C017F002D0CE
:1029B800164A172A16C0F6FF17C0F7FF0800F55089
:1029C8000009D8A4F5D712C014F013C015F0141ECE
:1029D800151E144A152A16501424126E1750152065
:1029E800136E120012C0D9FF13C0DAFF1450DE189C
:1029F800D8A405D012C012F013C013F0120012C0F0
:102A0800D9FF13C0DAFF124A132ADF50D8A4EAD735
:102A1800000E126E000E136E1200010EC8EC12F0BA
:102A28006A0E256E7F0E266EA20E276E7F0E286E0A
:102A3800CE0E296E7F0E2A6E000E2C6E640E2B6E43
:102A4800B9EC11F00009D8A41200EAD712C016F0A8
:102A580013C017F004D0164A172A144A152A14C0AE
:102A6800D9FF15C0DAFF16C0E1FF17C0E2FFDFCFBC
:102A7800E7FFE750D8B41200EED7DE0E256E7F0EC2
:102A8800266ECE0E276E7F0E286E000E296E000E63
:102A98002A6E010E2C6EF40E2B6EB9EC11F00009A3
:102AA800D8A41200EAD7C280C19AC198C196C1843D
:102AB800C192C180C29AC298C296C294C09EC08A6E
:102AC800C088C086C094C082C0909D8C1200C00E81
:102AD800256E7F0E266ECE0E276E7F0E286ED80EC0
:102AE800296E7F0E2A6E170E2C6E700E2B6EB9ECA7
:102AF80011F0120012501402F3CF16F0F4CF17F0B1
:102B080012501502F350172613501402F3501726CB
:102B180016C012F017C013F012001AC012F01BC032
:102B280013F0146A8E0E156E000E166E71EC12F00C
:102B380012C01AF013C01BF014C01CF0120012507F
:102B480013101410D8B406D0000E121A000E131A5F
:102B5800800E141A12C012F013C013F014C014F02F
:102B68001200AC98AC9CAB8E9D98AC8AF28EF28C1D
:102B7800AB889D8AAB9CAC84B886000EB06E560EAE
:102B8800AF6E1200146E000E136E3A0E146005D06C
:102B98002F0E146402D0010E136E13C012F01230FF
:102BA800120015BE1200155003E11404D8A012003B
:102BB800010EE3EC15F01406D8A01506F2D7136E33
:102BC8000D0E126EFC0EE82EFED7122EFCD7132E19
:102BD800F7D71200000E956E000E836E000E8C6EF5
:102BE800F00E946E1200D08EF28EF28CF28AF2946D
:102BF8009D929E921200D58CD59AD596D584D59261
:0E2C0800D580D58E1200D394D390D3921200B3
:107DFA000001000800400000020010008001000A93
:107E0A00006400E80310270100100000010010417F
:107E1A00542B43575341503D222573222C2225735C
:107E2A00222C312C25730D0A0041542B55415254F2
:107E3A003D3131353230302C382C312C302C300D4C
:107E4A000A0041542B554152543D393630302C38B2
:107E5A002C312C302C300D0A0041542B43495053FD
:107E6A0045525645523D312C353030300D0A0041CD
:107E7A00542B43574A41503D222573222C22257305
:107E8A00220D0A0041542B43495053544152543D48
:107E9A0025642C25730D0A0041542B434950534540
:107EAA004E443D25642C25640D0A003031323334AA
:107EBA00353637383941424344454600303132334A
:107ECA003435363738396162636465660041542B4C
:107EDA0043495053544152543D25730D0A004154AD
:107EEA002B4349504D4F44453D300D0A0041542B18
:107EFA004349504D4F44453D310D0A002225732216
:107F0A002C222573222C25730D0A00302C434F4E48
:107F1A004E454354204641494C0041542B43495055
:107F2A004D55583D300D0A0041542B43574D4F448F
:107F3A00453D310D0A0041542B4349504D55583D9A
:107F4A00310D0A0041542B43574D4F44453D320DE4
:107F5A000A0041542B43574D4F44453D330D0A0007
:107F6A0041542B43574D4F44453F0D0A0031393296
:107F7A002E3136382E342E310041542B435751417D
:107F8A00500D0A007A7834353232333331002B43BC
:107F9A00574D4F44453A31002B43574D4F44453ACC
:107FAA003200302C434F4E4E454354006E6F2063CF
:107FBA0068616E67650041542B5253540D0A005391
:107FCA00454E44204F4B00286E756C6C2900726533
:107FDA006164790041540D0A0035303030004B6538
:107FEA006E67004B454E0054435000554450003EC6
:057FFA0020003400002E
:020000040020DA
:08000000FFFFFFFFFFFFFFFF00
:020000040030CA
:0E000000FF061F1EFF8281FF0FC00FE00F40A2
:00000001FF
